:020000022000DC
:1060000000000420B9CB0200E1CB0200E3CB020088
:10601000E5CB0200E7CB0200E9CB02000000000064
:10602000000000000000000000000000EBCB0200B8
:10603000EDCB020000000000EFCB0200F1CB02002C
:10604000D5140300F3CB0200E51403006519030027
:10605000011F0300F3CB0200D11003004915030018
:10606000F3CB0200F3CB0200F3CB0200F3CB020030
:10607000F3CB0200F3CB0200F3CB0200F3CB020020
:10608000F3CB02005DEA0200F3CB0200F3CB020087
:10609000F9EA0200F3CB020025690300F3CB02000A
:1060A000F3CB0200F3CB0200F3CB0200F3CB0200F0
:1060B000B9220300F3CB0200000000000000000042
:1060C000F3CB0200F3CB0200F3CB0200FD18030078
:1060D000F3CB0200F3CB0200F3CB0200399B0300A9
:1060E000F3CB0200F3CB0200F3CB02000000000070
:1060F00000000000F3CB020000000000F3CB020020
:10610000000000000000000000000000000000008F
:10611000000000000000000000000000000000007F
:10612000000000000000000000000000000000006F
:10613000000000000000000000000000000000005F
:10614000000000000000000000000000000000004F
:10615000000000000000000000000000000000003F
:10616000000000000000000000000000000000002F
:10617000000000000000000000000000000000001F
:10618000000000000000000000000000000000000F
:1061900000000000000000000000000000000000FF
:1061A00000000000000000000000000000000000EF
:1061B00000000000000000000000000000000000DF
:1061C00000000000000000000000000000000000CF
:1061D00000000000000000000000000000000000BF
:1061E00000000000000000000000000000000000AF
:1061F000000000000000000000000000000000009F
:1062000010B5054C237833B9044B13B10448AFF3F0
:1062100000800123237010BDACC1002000000000ED
:106220000CD4030008B5034B1BB103490348AFF37B
:10623000008008BD00000000B0C100200CD40300A5
:10624000154B002B08BF134B9D46A3F5803A002148
:106250008B460F461348144A121A13F024FF0F4BB3
:10626000002B00D098470E4B002B00D09847002001
:10627000002104000D000D48002802D00C48AFF3A7
:10628000008013F043FE2000290006F015FC13F0F7
:1062900029FE00BF000008000000042000000000EC
:1062A00000000000ACC10020D4E600200000000087
:1062B0000000000007B500238DF80500022201A9A7
:1062C0003C208DF8043004F0EFFBB0FA80F0400978
:1062D00003B05DF804FB07B500238DF805008DF8C9
:1062E0000610032201A93C208DF8043004F0DCFBE9
:1062F000B0FA80F0400903B05DF804FB07B5042252
:1063000000238DF805008DF807103C200DEB0201ED
:106310008DF804308DF8063004F0C6FBB0FA80F03A
:10632000400903B05DF804FBAE20FFF7C3BFAF2008
:10633000FFF7C0BF10B5436D1970436D013343655E
:106340001B1A542B04460DD13F2200F1150113F006
:1063500091FE04F13F00606515222021BDE8104048
:1063600013F0A1BE10BD01230A2970B5054680F8BF
:10637000583013D1446D1522231A93FBF2F402FB1B
:106380001434E4B20026A319DBB2142B00D970BD7B
:1063900020212846FFF7CEFF0136F4E7BDE8704024
:1063A000FFF7C8BF70B5064608460C4613F0D8FE86
:1063B0002518AC4200D370BD14F8011B3046FFF71E
:1063C000D2FFF6E7B0B5054600AF08460C4613F01D
:1063D000C7FE00F1090222F00702ADEB020D2346D1
:1063E000054A811C684613F067FE69462846FFF798
:1063F000D9FFBD46B0BD00BF48AC030010B5542264
:106400000446202113F04FFE0123646584F85830C0
:1064100010BD00002DE9F843064603F0DDFC224BD9
:106420001880FFF784FF03212220FFF767FFC0B326
:106430007D212120FFF762FF98B31C4C4FF40072BE
:106440000021204613F02FFE4023DFF864E0237084
:10645000B4460122204640F2F918114600251CF8E6
:10646000053003EB430300240EEB43030F1913F82D
:106470000490BFB20134062C00F80790F6D1013524
:106480000631152D89B2EAD17E3292B242450CF125
:10649000150CE2D105493C2004F006FB002386F8E8
:1064A0005830BDE8F88300BFC8C1002030E20020AA
:1064B0005CAC03000148FFF7ADBF00BFD4E1002092
:1064C00038B5044604F0D4FAAE20FFF7F3FE10B955
:1064D0000024204638BD8021D520FFF7FCFE00288F
:1064E000F6D01F21A820FFF7F6FE0028F0D00021EB
:1064F000D320FFF7F0FE0028EAD04020FFF7DAFEB5
:106500000028E5D014218D20FFF7E5FE0028DFD01C
:1065100000212020FFF7DFFE0028D9D0002C5FD01B
:10652000A020FFF7C7FE0028D2D0C020FFF7C2FE90
:106530000028CDD00221DA20FFF7CDFE0028C7D0F9
:106540008F218120FFF7C7FE0028C1D0F121D9207B
:10655000FFF7C1FE0028BBD04021DB20FFF7BBFEC8
:106560000028B5D0A420FFF7A5FE0028B0D0A620B3
:10657000FFF7A0FE0028ABD02E20FFF79BFE0028DF
:10658000A6D0AF20FFF796FE0028A1D000218120E1
:10659000FFF7A1FE044600289AD01548FFF72EFF0A
:1065A00003212220FFF7AAFEB8B17F212120FFF7A7
:1065B000A5FE90B10F4D4FF400720021284613F054
:1065C00072FD402340F2012229463C202B7004F04A
:1065D0006BFA074B002283F85820FFF76BFF78E730
:1065E000A120FFF767FE00283FF472AFC8209DE7A7
:1065F000D4E1002030E2002010B500F0B1FB0C4BDC
:106600000C4C93F858300BB923781BB1FFF752FFAD
:1066100000232370084B188803F0E4FB4EF6602338
:10662000984203D9BDE81040FFF77EBE10BD00BF01
:10663000D4E1002070BC0020C8C100201F288ABF00
:10664000054B4FF0A04300F01F00D3F8103523FA9C
:1066500000F000F0010070470003005008B500F0A2
:1066600091FB08BD08B54FF0A0430C22C3F860278A
:106670001820C3F85827FFF7E1FF02461620FFF75E
:10668000DDFF024B42EA4000187008BDCAC100207D
:1066900010B5184C227818209200D2B2FFF7CEFF26
:1066A00001461620FFF7CAFF41EA40001043C0B27E
:1066B0002070114B114C00F00F0022781B5C13442A
:1066C0005BB2012B237003DD00210846FFF7C6FFF4
:1066D00094F90030013303DA01210020FFF7BEFFF7
:1066E00094F90030002B03F00103B8BF5B42237024
:1066F00010BD00BFCAC100204CAC0300CBC10020BC
:106700003CDF704738B5054D642445F001054FF472
:106710007A40A847013CFAD138BD00BFA0B10300C0
:106720001F2886BF00F01F00044B4FF0A04300F568
:10673000E070032243F82020704700BF00030050A0
:106740001F2886BF00F01F00044A4FF0A04201231B
:1067500003FA00F0C2F80805704700BF00030050BC
:106760001F2886BF00F01F00044A4FF0A0420123FB
:1067700003FA00F0C2F80C05704700BF0003005098
:1067800008B557210020FFF7BBFFBFF34F8F054926
:10679000054BCA6802F4E0621343CB60BFF34F8F2E
:1067A00000BFFDE700ED00E00400FA0508B538B1D0
:1067B0000720FFF7B5FF0720BDE80840FFF7C0BF7F
:1067C0000720FFF7ADFF0720BDE80840FFF7C8BF6F
:1067D00010B54FF0A043184CD3F810359B0E03F0C2
:1067E0000102D1B210B92078904224D003F0010305
:1067F00081F00100237006F0F1F8207806F0E2F84D
:106800004A20FFF7ADFF2378ABB14A20FFF798FF8E
:10681000FFF778FF4A20FFF7A3FFFFF773FF4A2037
:10682000FFF78EFFFFF76EFF4A20FFF799FFBDE8E5
:106830001040FFF767BF10BDCCC1002008B507208E
:10684000FFF76EFF4A20FFF76BFF4FF0A0420423D3
:10685000C2F86837C2F8183AFFF754FF0120BDE8C4
:106860000840FFF7B5BF000008B5074B1B783BB1E8
:1068700006F0AEF820B106F09FF808B905F02AFD41
:10688000BDE8084003F094BBCDC1002008B500204E
:10689000FFF78CFF064B1B78DB0707D50720FFF7B8
:1068A0003FFF0720BDE80840FFF74ABF08BD00BF13
:1068B00008E5002008B5FFF7C1FF06F0A1F80020A9
:1068C000FFF7FEFDBDE80840FFF7CCBE08B5FFF7B7
:1068D00093FEFFF7DDFEBDE80840FFF7C5BF0000EF
:1068E0001F288ABF054B4FF0A04300F01F00D3F8CC
:1068F000103523FA00F000F001007047000300504B
:106900000378032B02D0352002F084B9704710B50C
:1069100004460078032806D102F0C6FF2046BDE8F1
:10692000104001F065BF3520BDE8104002F01DB9F0
:1069300029B983780348002B08BF00207047002046
:10694000704700BFA6B1030010B51A20FFF7C8FFBB
:1069500010F0FF0F15D004F007F9104A0346182174
:106960000F4813F0A9FB04F0FFF81223A0F51660FE
:106970000C4A90FBF3F318210B48BDE8104013F0CC
:106980009BBB0A4A0648182113F096FB084A0648A2
:106990001821BDE8104013F08FBB00BF94B3030073
:1069A000C0E40020A1B30300F0E40020ABB3030077
:1069B000BEB3030037B506F00BF80B4D0B4C0028A7
:1069C00008BF2C4605F0F8FF094B0A4A002814BFFF
:1069D00018462846009023461821074813F06CFB00
:1069E000054803B030BD00BFF8C7030055B303002E
:1069F00058B303005BB3030078E4002007B50A4BEB
:106A00000A4A1B780A4813F0010F4FEA5303009318
:106A10004FF01801074B18BF1346074A13F04CFB01
:106A2000034803B05DF804FB08E5002065B30300EC
:106A300090E4002069B303006DB3030013B503F0C5
:106A400033F80C4B0C4C10F0020F08BF1C4603F03F
:106A50002BF80A4A0A4B10F0080F08BF13460093A0
:106A6000084A09482346182113F026FB064802B0BD
:106A700010BD00BFF7C703007FB30300F8C70300D2
:106A800082B303005FB3030048E4002037B503F08E
:106A90000BF80B4D0B4C10F0010F08BF2C4603F008
:106AA00003F810F0040F084B084A094808BF2B46AA
:106AB00000931821234613F0FFFA054803B030BDB8
:106AC000F8C7030051B3030053B303005FB30300DF
:106AD00060E4002010B5044C044A1821204613F04D
:106AE000EBFA204610BD00BF30E4002084B3030061
:106AF00030B545F6C042904285B005460C468B78CD
:106B00004AD01AD839282BD0A3780BB1FFF71CFF35
:106B1000A478FFF7CFFCA5F5B943753B142B46D8F5
:106B2000DFE803F049555A646C507A7A7A7A7A7AB7
:106B30008A838383838383974E0045F60A5290426B
:106B400020D045F60F529042DED1002BDCD045F626
:106B5000DF4000F0CBF945F6DF4000F093FAD3E7D1
:106B6000002BD1D03D4B3E4A18784FF4806120B1C4
:106B700000201870C2F80C15C6E701201870C2F882
:106B80000815C1E7002BBFD00120FFF70FFE01F071
:106B90004FF801F08FFBB7E7002BB5D0314B1B78D6
:106BA000DB074CBF00200120FFF700FEACE701240B
:106BB000204605B030BD002CFAD0002000F0EAFAE3
:106BC0000024F5E7002CF3D003F0C8FEF8E7002C12
:106BD000EED005F03FFEF3E7002CE9D005F004FF0E
:106BE000214B00241C7005F035FEE1E7002CDFD0BE
:106BF00005F006FF1C4B01221A70E1E7002CD7D0EC
:106C000005F0DAFE044620B105F0FAFE05F062FB5D
:106C1000D6E705F0E9FECBE7002CC9D005F0E4FE8D
:106C2000681DC0B205F05EFECAE7002CC0D0A81EE9
:106C3000C0B203F0A9FEC3E7002CB9D003F094FF63
:106C40000A490246684613F06BFA684600F09FFA5C
:106C5000B6E7002CACD0FFF793FDB1E7CEC1002022
:106C60000003005008E50020CDC100204BB3030015
:106C700038B5542204460D4613F0E2F938B15422D7
:106C80002946204613F0EBF9012384F8583038BD2B
:106C900010B5284B0446186802F0DEFF042846D8D9
:106CA000DFE800F00303351B2B00FFF783FE0146EE
:106CB0002046FFF787FB20492046FFF783FBFFF7BD
:106CC000BDFE01462046FFF77DFBFFF7DFFE0146D4
:106CD0002046BDE81040FFF765BB18492046FFF786
:106CE00071FB17492046FFF76DFBFFF7F3FE0146E6
:106CF0002046BDE81040FFF765BB12492046FFF76C
:106D000061FB11492046FFF75DFB1049F0E7104990
:106D10002046FFF757FBFFF771FE01462046FFF7BD
:106D200051FB0C492046FFF74DFB0B49D0E70B49BF
:106D3000DEE700BF58C20020F0E40020B0B203003C
:106D4000C4B20300D2B20300E6B20300F4B20300FF
:106D500003B3030017B303002BB303003FB30300D7
:106D600000B599B001A8FFF749FB01A8FFF790FF14
:106D700001A90348FFF77CFF19B05DF804FB00BFD1
:106D8000D4E1002038B52E4B18680D4602F064FFA0
:106D9000012826D002D302282ED038BD294C8DB12F
:106DA00045F6E04000F0A2F8642544F001044FF4F9
:106DB0007A40A047013DFAD145F6E040BDE83840B1
:106DC00000F060B945F6DF4000F090F8642544F02B
:106DD00001044FF47A40A047013DFAD145F6DF4067
:106DE000ECE725B14B2000F081F84B20E6E74E2080
:106DF00000F07CF84E20E1E702F056FE420708D58D
:106E00001DB1BDE8384001F0F1B9BDE8384001F0EE
:106E1000D9B902F049FEC30708D51DB1BDE8384015
:106E200001F0BAB9BDE8384001F0A2B91DB1BDE822
:106E3000384001F087B9BDE8384001F071B900BFB2
:106E400058C20020B0B1030008B500F007030120CC
:106E50009840C0B202F04AFEBDE8084002F096BE7B
:106E6000FFF7F2BF08B500F0070301209840C0B259
:106E700002F044FEBDE8084002F088BEFFF7F2BF12
:106E8000A0F58073B3F5F85F70B505460C4612D2D5
:106E9000E80501D5E0208847A90501D5E120A047F4
:106EA0006A0501D5E220A0472B0501D5E320A047C4
:106EB000B5F5805F00D270BDE420A047E520A04773
:106EC000E620A0472346E720BDE8704018470000B1
:106ED00038B5054D044645F001054FF47A40A84702
:106EE000013CFAD138BD00BFD0B40300A0F5B943CE
:106EF000A3F15B0292B2022A10B504460FD845F600
:106F0000DB43984209D045F6DC4084420CBF822026
:106F10008320BDE8104001F065BD8120F9E75E3BAC
:106F20009BB2162B00F2998045F6DE4398425ED064
:106F300045F6DF4398425CD045F6E04398425AD08C
:106F400045F6E143984258D045F6E243984256D080
:106F500045F6F143984254D045F6F243984252D058
:106F600045F6E343984250D045F6E64398424ED06A
:106F700045F6E44398424CD045F6E54398424AD062
:106F800045F6E743984249D045F6E843984248D051
:106F900045F6E943984247D045F6EA43984246D041
:106FA00045F6EB43984245D045F6EC43984244D031
:106FB00045F6ED43984243D045F6EE43984242D021
:106FC00045F6EF43984241D045F6F343984240D00E
:106FD00045F6F44398423ED045F6F04340F22A206D
:106FE0009C4218BF0020BDE8104001F00BBDE2201C
:106FF000F9E7E920F7E7EA20F5E7B520F3E7B6205F
:10700000F1E7B320EFE7B420EDE7B720EBE7CC20C2
:10701000E9E7CD20E7E740F28310E4E74FF4C570DD
:10702000E1E74FF4C970DEE74FF4CA70DBE740F2E6
:107030002120D8E740F22320D5E74FF40970D2E7AA
:1070400040F22520CFE740F22620CCE740F227206F
:10705000C9E76F20C7E77020C5E7A0F1E003072B61
:1070600000D940B905492046FFF70AFFE0B2BDE864
:10707000104001F07ABD0249F6E700BF616E0200E0
:10708000496E0200A0F5B943A3F15B0292B2022A55
:1070900010B5044604D80020BDE8104001F0A2BCA1
:1070A0005E3B9BB2162B04D80020BDE8104001F0D7
:1070B000A9BCC0B201F0AEFDA4F1E003072B00D9DA
:1070C0002CB904492046BDE81040FFF7D9BE02495B
:1070D000F8E700BF7D6E0200656E020010B5044641
:1070E000FFF704FF3220FFF7F3FE2046BDE8104013
:1070F000FFF7C8BF0120704708B5FFF7F9FC08BDCE
:1071000010B50C4B1C5C0C4BC35C6BB1E12001F067
:107110002CFD204601F029FD204601F07BFDE120F9
:10712000BDE8104001F076BD204601F01EFD20466E
:10713000F6E700BFCFB303004FB4030070B50446B9
:107140000E46207810B3012804F1010507D16478B8
:10715000204601F00AFD204601F05CFD04E0022813
:107160000CD1607801F001FD6C1C3546013DEDB29B
:10717000FF2DE6D00120FFF7ABFEF7E7032801D192
:107180006078E9E7FFF7BCFF2546EDE770BD002119
:10719000FFF7D4BF10B501248440E0B202F0A2FD95
:1071A0002046BDE8104002F04ABB08B501F0BEFB26
:1071B000BDE8084003F0EEB9704708B5FFF7FCFFE3
:1071C00008BD08B5FFF7F9FF08BD704708B501F025
:1071D000B3FFFFF7FAFFFA20FFF77AFEBDE8084099
:1071E000FFF7CEBA37B50388ADF80430BE4B1B7835
:1071F0000546F3B983780198BBB102F0D3FB04468E
:107200000146019802F08AFB0199204600F05CFAE1
:107210002946044601F012FB29462046FFF76CFF81
:1072200060B90024204603B030BD02F09BFB044649
:10723000EAE7019802F0B6FB0199E7E72946204604
:1072400001F030FB0028ECD02946204600F08CFCF1
:107250000028E6D02946204601F09AFB0028E0D01D
:1072600045F6C8439C4200F0018151D845F6C14320
:107270009C4200F0D08029D845F614439C4216D891
:1072800045F602439C4280F04F81B4F5B84F00F0C0
:10729000B18045F601439C4200F0B380934B01223C
:1072A0001A705A702846FFF725FF0446BAE745F6DC
:1072B00015439C4200F0E58145F6C0439C42EDD168
:1072C000AB78002BADD000F0FFFFAAE745F6C44332
:1072D0009C4200F0B8800ED845F6C2439C4200F0B4
:1072E000A68045F6C3439C42D8D1AB78002B98D0FA
:1072F00000F016FF95E745F6C6439C42AB7800F0D8
:10730000AF8040F2A780002B8BD000F05BFF88E7B6
:1073100045F6CF439C4200F0D9802AD845F6CB43AE
:107320009C4200F0B1800FD845F6C9439C4200F062
:10733000A48045F6CA439C42B0D1AB78002B3FF401
:1073400070AF00F09FFC6CE745F6CD439C42AB78F4
:1073500000F0AF8040F2A080002B3FF462AF00F05D
:107360007BFC082803D900F077FC0D2868D9092098
:107370008FE045F6D3439C4200F0D08014D845F608
:10738000D1439C42AB7800F0C48040F2B580002B22
:107390003FF447AF00F060FC182803D900F05CFC14
:1073A00021284DD9192074E045F6D5439C424F4B16
:1073B00000F04B81C0F02B8145F6D64294427FF419
:1073C0006DAFAA78002A40F042815C78002C40F032
:1073D0005481474B588802F005FDC72800F24D81C3
:1073E000202001F069FC282001F0BFFB282001F0DB
:1073F00011FC17E7AB78002B3FF413AFFFF7E6FE65
:107400000FE7AB78002B3FF40CAF3A4A137843F008
:107410000103137005E7AB78002B3FF402AF02F0D5
:1074200043FB10F0220F0BD000F03EFFF9E6AB78E3
:10743000002B3FF4F6AE02F037FB10F0220FF3D032
:1074400000F01EFFEDE6AB78002B3FF4EAAE00F053
:1074500079FEE6E6002B3FF4E4AE00F089FEE0E6BC
:10746000002B3FF4DEAE00F097FEDAE6AB78002B9F
:107470003FF4D7AE00F0BAFED3E6AB78002B3FF472
:10748000D0AE00F0F3FBCCE6AB78002B3FF4C9AEF6
:10749000012000F00CFFC4E6002B3FF4C2AE00F068
:1074A000DBFB012803D900F0D7FB0428C8D9022050
:1074B000EFE7002B3FF4B5AE00F0CEFB052803D973
:1074C00000F0CAFB0728BBD90620E2E7AB78002B07
:1074D0003FF4A7AE00F0C0FB0E2803D900F0BCFBC0
:1074E0001328ADD90F20D4E706C20020D4C1002054
:1074F000D0C100207DC20020002B3FF492AE00F0EE
:10750000ABFB142803D900F0A7FB162898D9152047
:10751000BFE7002B3FF485AE1820BAE7AB78002B0D
:107520003FF47FAE2320B4E7AB78002B3FF4BAAE34
:1075300002F0C8FB08B902F0A9FB02F0D7FBA4F5E2
:10754000B8445D4B033C1880112C0AD8DFE804F0E6
:1075500013171B1F23272B2F33373B3F43474B4F1B
:1075600053571A7842F001021A70187802F0C1FBE2
:1075700001F0E2FD55E61A7842F00202F4E71A78CB
:1075800042F00402F0E71A7842F00802ECE71A78B9
:1075900042F01002E8E71A7842F02002E4E71A7895
:1075A00042F04002E0E71A7842F08002DCE71A7805
:1075B00042F00C02D8E71A786FF30002D4E71A7889
:1075C0006FF34102D0E71A786FF38202CCE71A78A2
:1075D0006FF3C302C8E71A786FF30412C4E71A788E
:1075E0006FF34512C0E71A786FF38612BCE71A787A
:1075F0006FF3C712B8E71A7802F0FB02E8E71A78CF
:10760000C2F3C01181F0010161F3C712ACE7AC789D
:107610004CB100241C7002F0DFFB284B18800220C4
:1076200001F041FBFEE51B785BB9244B188802F0A2
:10763000D9FBC72805D8262001F097FA262001F0AB
:10764000E9FA022001F038FBECE5AA783AB100240F
:107650005C7002F0C1FB194B58802020E0E75B789A
:107660005BB9164B588802F0BDFBC72805D8272008
:1076700001F07BFA272001F0CDFA202001F01CFB5D
:10768000CFE502F011FAAA780D4B6AB100F0AA001A
:10769000002815BF01220022352029201A7002F08F
:1076A000D3F902F073FABCE51B78002B14BF352028
:1076B000292002F0D1F9F4E750E50020D0C10020E4
:1076C000CFC1002070470000C1F3072303EB830202
:1076D000192303FB002050FA81F0034B33F810000C
:1076E00082B002B0704700BFB6B10300014B33F85F
:1076F00010007047D6B4030013B5ADF8041001991B
:10770000FFF7E2FF00F092F9B0F5A44F04463BD238
:10771000B0F5A24F80F02B81B0F5005F1AD2B0F522
:10772000807F15D2DF280CD8C02880F0078101287F
:1077300000F08B8003D3031FA02B40F2868000242F
:1077400083E0E72840F28180F028F8D340F4A04499
:10775000A4B27AE0B0F5804F0BD2B0F5405FC0F034
:10776000F380C3B202054CBF43F4484443F44044A1
:107770006BE0B0F5A04FC2B280F0E98000F4706415
:1077800042F42042144360E0B0F5B24F26D2B0F587
:10779000B04F80F00181B0F5A84F0FD2B0F5A64FE1
:1077A000C4B2C0F0EA80A008012304F0030403FA85
:1077B00004F444EA401444F40A44C9E7B0F5AA4F7B
:1077C000C0F0E680B0F5AC4FB9D2C0B200F09AF983
:1077D000040204F4F85444F4005436E045F6DD4362
:1077E000984211D845F6DB43984222D2B0F5B44F07
:1077F000A5D200F00F0000F085F9C4F3031440EAAD
:10780000042444F41044A3E745F6F44398421FD9F6
:10781000A0F5C043B3F5005F91D2C0F3042000F09F
:1078200071F9E4B2000200F4F85044F40054044347
:107830000BE000F0B68045F6DC4144F2820244F2EF
:10784000830388420CBF14461C46204602B010BD7C
:1078500045F6DE43984200F0A78045F6DF439842A4
:1078600000F0A58045F6E043984200F0A38045F67D
:10787000E143984200F0A18045F6E243984200F0CF
:107880009F8045F6F143984200F09D8045F6F24313
:10789000984200F09B8045F6E343984200F09980BF
:1078A00045F6E643984200F0978045F6E443984257
:1078B00000F0958045F6E543984200F0938045F648
:1078C000E743984200F0918045F6E843984200F083
:1078D0008F8045F6E943984200F08D8045F6EA43F3
:1078E000984200F08B8045F6EB43984200F0898087
:1078F00045F6EC43984200F0878045F6ED43984208
:1079000000F0858045F6EE43984200F0838045F60E
:10791000EF43984200F0818045F6F34398427FD0D0
:1079200045F6F44398427ED045F6F04244F22A638D
:1079300090420CBF1C464FF4884486E7C03880B2A2
:10794000FFF7D4FE044680E7C0F30B00F8E702F02F
:107950000304012303FA04F4C0F3011044F40C44BB
:1079600044EA0024C2F3810244EA4214F0E6C4B2BD
:107970004AF2F10343EA042467E7A008012304F074
:10798000030403FA04F444EA401444F40C44DFE62C
:10799000C4B24AF2F403EDE74AF2F00040EA0424EC
:1079A000D6E644F2810450E744F2E2444DE744F263
:1079B000E9444AE744F2EA4447E744F2B54444E77D
:1079C00044F2B64441E744F2B3443EE744F2B444DF
:1079D0003BE744F2B74438E744F2CC4435E744F29D
:1079E000CD4432E744F283542FE744F28A542CE723
:1079F00044F2925429E744F2945426E744F2216475
:107A000023E744F2236420E744F224641DE744F2B0
:107A100025641AE744F2266417E744F2276414E762
:107A200044F26F4411E744F270440EE782281AD002
:107A30000CD8312854D004D829284AD02A2856D026
:107A4000704735283ED039280DD07047E32823D021
:107A500004D8E0280ED0E22813D07047E62822D0C0
:107A6000E72829D07047264B1B7813F0030F18BF67
:107A7000E0207047224B1B7813F0010F18BF39200C
:107A800070471F4B1B7859071BD513F0100F08BF09
:107A9000E32018BF00207047194B1B785A072DD4DC
:107AA00013F0100FF5E7164B1B78190709D513F0E3
:107AB000100F08BFE720ECE7114B1B781A07EFD532
:107AC000E62070470E4B1B7813F0200F18BF2920BB
:107AD00070470B4B1B7813F0200F18BF35207047F1
:107AE000074B1B7813F0400F18BF2A207047044B38
:107AF0001B7813F0400F18BF31207047E220704709
:107B000050E50020164B1B78590707D500F01802E6
:107B1000082A12D100F0F70040F004001A0707D538
:107B200000F01802182A11D100F0E70040F014000C
:107B3000DB0648BF00F0E700704700F01402042A9B
:107B400004BF00F0FB0040F00800E7E700F014027B
:107B5000142A04BF00F0EB0040F01800E8E700BF73
:107B600050E500207047000070B58B78054613B9CA
:107B70000124204670BD144E3478A4B945F616434E
:107B80009842F5D1FFF7EEFF0123337002F024F99C
:107B90000E4B18800E4B1C700E4B1C805C809C8022
:107BA000DC801C81E5E7094B188802F01BF9B0F571
:107BB000967FDDD2064A0749137821F81350013326
:107BC00013700024D5E700BFE4C10020E2C100200B
:107BD000E0C10020D6C100207047000038B5054D37
:107BE000044645F001054FF47A40A847013CFAD11C
:107BF00038BD00BFF0B40300064A137813F0FE0F3F
:107C000004D1012161F3470313707047492BFCD95C
:107C10002421F7E708E50020082002F01DBA08B586
:107C2000FFF7EAFFBDE808400146082002F06ABA03
:107C3000084B1A78012142F0010261F347021A70E1
:107C4000FF2100225A709970D97018681A71FFF7D5
:107C5000E6BF00BF08E50020034B1B7813F00100CE
:107C600018BF5808704700BF08E50020044B1A7978
:107C70001868022A9CBF01321A71FFF7D0BF00BFFB
:107C800008E50020034B1A790AB1013A1A71186805
:107C9000FFF7C5BF08E5002030B4124B1248197831
:107CA000124B1B7813F0010307D0114B1B7803EB29
:107CB0004303184430BC00F083BD0E4A0E4C1278CA
:107CC000257802EB42040444954204F10304ECD904
:107CD000013204F8023C04F8033C04F8013CD2B23F
:107CE000F2E700BF94BC002010E5002008E500206A
:107CF000ECC10020EDC1002095BC002070B40F4BFA
:107D00001B78DB0717D50E4B0E4C1B780E4E2578D3
:107D100003EB43043444AB4204F1030402D370BCCC
:107D2000FFF7BABF013304F8020C04F8031C04F88F
:107D3000012CDBB2EFE770BC704700BF08E5002004
:107D4000EDC1002095BC002010E5002008B5094BCE
:107D50001A786FF300021A701868FFF760FF064B7D
:107D6000002232205A70FFF739FFBDE80840FFF7C4
:107D700093BF00BF08E50020F2C1002008B5084B02
:107D8000084819780B22490812F00AF910B9064B75
:107D900001225A7002F020F8044B188008BD00BF81
:107DA00008E5002099BC0020F2C10020E6C10020B7
:107DB0002DE9F0412C4B5A78002A53D01A782B4BDE
:107DC0002B4E1B78C2EB5303DBB2022AB37019D1DE
:107DD000284A294DD45CF3783BB10027F77001F0B5
:107DE000FBFFE34318443080B780308801F0FAFF8E
:107DF000A04237D333881E481C4434802B46BDE84C
:107E0000F0411847062A03D11C4A1D4DD45CE2E715
:107E1000092A04D15B081B4A1B4DD45CDBE70F2AFF
:107E200004D15B08194A1A4DD45CD4E7152A03D152
:107E3000184A194DD45CCEE7182A0FD0232A03D153
:107E4000164B174D1C88C6E7164B174D242A12BF38
:107E50004FF4FA644FF4FA741D46BCE74FF47A7499
:107E6000124DB8E7BDE8F081F2C1002008E500201E
:107E7000E6C10020D6B40300D57F0200E2B40300BF
:107E8000F97F0200E5B403003D830200EAB4030079
:107E9000AD830200DFB4030079840200E8B403007C
:107EA000B985020019860200D97B020051850200C3
:107EB00030B585B0C0F307220190304BC0F30740C6
:107EC000195CA2B98DF80C108DF80D108DF80E10FC
:107ED0009DF80C30002063F307009DF80D3063F32C
:107EE0000F209DF80E3063F3174005B030BD9DF8AC
:107EF00004306FF0540503EB4304FF20640094FB4F
:107F0000F0F4654305EB430505EB4505EDB212FBC7
:107F100005F3C5F1FF05801A6A431B121212C3F163
:107F2000FF03C2F1FF0248434B434A43C0F307201B
:107F3000C3F30723C2F30722062C1AD8DFE804F0A4
:107F400004060D10141904000B4611468DF80C3070
:107F50008DF80D108DF80E00BAE703461046F5E7D0
:107F60001A4603460846F0E70B46014618461346F4
:107F7000ECE71A460B460146F0E700BF28B60300BF
:107F800013B58DF802208DF800008DF801100098CF
:107F90001C46FFF78DFFC0F30722C0F30743607054
:107FA0002270A37002B010BD07B5094B1B78DB0728
:107FB0000AD501ABFFF7E4FF9DF806209DF80410F9
:107FC0009DF80500FFF79AFE03B05DF804FB00BFC3
:107FD00008E5002010B5064B0279064904468A5C84
:107FE00058789978FFF7E0FF23790133237110BDAA
:107FF00008E500201BB5030010B5054B0446DA78F0
:1080000099780079FFF7D0FF23790133237110BDF0
:1080100008E500202DE9F04F334C94F800C085B0FE
:108020001CF0010F054688461646019320D04FEA02
:108030005C032E4FDFF8C0E0FF5C8EF800700CF0A0
:10804000FE0CBCF1020F16D103ABFFF799FF9DF8B0
:108050000E209DF80C109DF80D00FFF74FFE019BC0
:10806000657084F80280E67013B12068FFF7D7FDD1
:1080700005B0BDE8F08F022F01D1E678EFE7062FBB
:1080800001D16578EBE7092FFBD0192FE7D1193B18
:10809000DBB203F0010200925B08154ADFF85CA036
:1080A00012F80390DFF858B00027124B1A78FBB291
:1080B0009A4202D8FFF7F0FDD1E703FB09F090FBED
:1080C000F2F0009AC0B26AB928449AF8002013442A
:1080D00003EB4303C0B25B4432464146FFF750FF17
:1080E0000137E2E7281AF0E708E50020F6B40300BC
:1080F000DAB4030096BC0020F2C10020EDC10020DC
:1081000010E5002010B405494C78CA788978083405
:108110000346E0B25DF8044BFFF77CBF08E50020A2
:108120000120FFF7EFBF000010B405494C78CA7872
:108130008978083C0346E0B25DF8044BFFF76ABF5C
:1081400008E500200120FFF7EFBF000010B4074C46
:10815000A178E2781131FF2928BFFF210346C9B277
:1081600060785DF8044BFFF755BF00BF08E50020BD
:108170000120FFF7EBBF000010B4064CA178E278B5
:10818000113921EAE1710346C9B260785DF8044B08
:10819000FFF740BF08E500200120FFF7EDBF00001A
:1081A00010B4074CE278A1781132FF2A28BFFF22D1
:1081B0000346D2B260785DF8044BFFF72BBF00BFD7
:1081C00008E500200120FFF7EBBF000010B4064CCB
:1081D000E278A178113A22EAE2720346D2B26078DC
:1081E0005DF8044BFFF716BF08E500200120FFF7FC
:1081F000EDBF0023FFF70EBF10B5164C2378DA074A
:1082000026D5D8B9012262F34703237011B1206843
:10821000FFF705FD217810480B22490811F0C0FE38
:1082200098B10E4B00225A700D4BA1786078012254
:10823000DA70E278BDE81040FFF7DBBF242801D9EF
:108240002422E0E760F34703DFE7FFF797FDEBE762
:1082500010BD00BF08E5002099BC0020F2C100203D
:10826000E6C10020054B1B78C3F346030133252BE1
:10827000014634BF18460120FFF7BEBF08E50020C5
:108280000120FFF7EFBF0000064B1B78C3F3460346
:10829000013B13F0FF03014614BF18462420FFF7EB
:1082A000ABBF00BF08E500200120FFF7EDBF0121B3
:1082B000FFF7A2BF034B187840F001001870400888
:1082C000FFF7F5BF08E50020034B1B78DB0701D55E
:1082D000FFF73CBDFFF7EEBF08E500200021FFF7E8
:1082E0008BBF000038B5114D2A78EAB9104A114CFD
:1082F000137843F00103137001F0E4FCFFF78CFCEA
:1083000010F0FE0F206002D1FFF786FC2060FFF71F
:1083100073FC094B207800225A70C30702D540082D
:10832000FFF7DCFF01232B7038BD00BFEEC100203A
:108330007DC2002008E50020F2C100202DE9F041B7
:10834000164E174FDFF85C80044600253178EAB2FC
:10835000914205F101050CD8FFF79EFCA37813F0BC
:10836000010F237914BF013303F1FF332371BDE8FB
:10837000F0813B78DFF830C0FF2090FBF1F02179ED
:10838000134400FB021003EB430343449CF8032017
:108390009CF80210C0B2FFF7F3FDD7E796BC0020AF
:1083A000EDC1002010E5002008E500202DE9F04F88
:1083B00083782C4FDFF8BCA013F0010F85B00CBF01
:1083C00001234FF0FF3302934FF000093B780193F4
:1083D0005FFA89F84345244D0CD8FFF75DFC029BFA
:1083E000012B2B7837D103B93B78013B2B7005B0BB
:1083F000BDE8F08F1D4B1E4A1B78434403EB43033B
:1084000003EB020B00248BF801409C549DF80830CC
:108410008BF80240039304262B782344DBB25AB234
:10842000002ABEBF019A9B185AB290450BD19AF808
:1084300003209AF802109AF8010072435B46C2F3D7
:108440008702FFF79DFD039B013E1C44E4B2E3D18C
:1084500009F10109BAE73978013393FBF1F201FB25
:108460001233C3E796BC0020F1C10020EDC100200B
:1084700010E5002008E500202DE9F8432C4D2D4A99
:108480002B782D4C107803EB4302224400219842B4
:1084900002F1030222D8DFF8B480284EDFF8A09062
:1084A000002798F80010FAB2914220D8FFF7F4FBA9
:1084B000234C24482278017833780A4452B20B4482
:1084C0005BB2002A3370227004DD98F80020013A74
:1084D000934201DB49420170BDE8F883013302F8A1
:1084E000021C02F8031C02F8011CDBB2CFE792FB6E
:1084F000F1F301FB132329780B4496F90010DBB24A
:108500008A4203EB43030CDB99F900108A4208DC32
:108510000D482344C27881784078FFF731FD013758
:10852000BFE7E11800224A70E2548A70F7E700BF03
:10853000EDC1002095BC002010E50020EFC1002017
:1085400097BC002098BC002008E5002096BC0020C5
:108550002DE9F0418388144E144FDFF85880013321
:1085600003F001030546838000243378E2B293428E
:1085700004F1010403D8BDE8F041FFF78DBBA888E2
:108580003B780B4900EB520000F0010013448200DD
:10859000104403EB430300EB0010CA78897843448E
:1085A000C0B2FFF7EDFCE0E796BC0020EDC1002073
:1085B00008E5002010E5002037B5164C0546207868
:1085C00038B9FF2201AB1146FFF7DAFC9DF8053000
:1085D00023702B79012B09D004D3022B16D0002253
:1085E000104601E020780022114602E000222178A6
:1085F0001046FFF783FB2B790322013393FBF2F242
:1086000002EB42029B1A2B7103B030BD002022788E
:108610000146EEE7F0C100202DE9F041164E174F5C
:10862000DFF860800546002496F800C0A44508DC09
:10863000FFF732FB2B79013303F001032B71BDE807
:10864000F0813B780E4A95F804E050789178234405
:1086500003EB4303B4EB5C0F434407DABEF1000FB6
:1086600007D0D278FFF78CFC0134DDE7BEF1000FB4
:10867000F7D00022F6E700BF96BC0020EDC1002035
:1086800008E5002010E50020704700002DE9F043C8
:10869000DFF8288198F80030ADF6E47D06460C46F8
:1086A00004ADABB9424F386879682B4603C3B8684C
:1086B0001860FF232A706B70AB70EB703D4A3E4828
:1086C000142329462B8109F0F3FC012388F800309C
:1086D00004EB4403DB0003F5C163ADF80430002371
:1086E000CDE90233304600952946802648F20C0732
:1086F00048F2060C9C4223DC302101FB045101F5B9
:10870000406348F2060001F1300221F8020B8A4270
:10871000FBD193421146F6D14FF400421A805A80A1
:108720009A80DA801A815A819A81DA8101231A4665
:108730006946214809F080FD0DF6E47DBDE8F0832F
:1087400090F80080002246FA02FE1EEA080F14BFCD
:10875000BE46E64621F812E00132082AF3D190F82D
:10876000019001F1100E002246FA02F818EA090FF2
:1087700002F1010214BFB846E046082A2EF8028B27
:10878000F2D190F8029001F1200E002246FA02F890
:1087900018EA090F02F1010214BFB846E046082AA0
:1087A0002EF8028BF2D1013303303031A2E700BF43
:1087B0001CB6030089860200A4BC0020F4C100207E
:1087C0000322FFF763BF10B5012304468375407B86
:1087D00001F070F9A07B01F089F901F0D7F9636825
:1087E000E16904F10C0013B1BDE81040184710BD59
:1087F00070B5437A0646DBB98488A4F5AE446501BA
:108800000C4C621905F10C00D1699268204402B148
:1088100090472C44607B01F055F9A07B01F06EF984
:1088200001F0B4F9044A002333703372B372138039
:1088300070BD00BF74BC0020F6C100202DE9F843D4
:108840008B78074673B1144E96F90020013209D097
:10885000124CDFF84C9000254FF0010896F90030DB
:10886000AB4201DABDE8F883237B8BB1238ABB429C
:1088700003D1B9F80030BB420AD0A37D84F814803C
:1088800013B92046FFF79FFF04F10C00FFF7B0FF7C
:1088900001352034E2E700BFACBC002074BC0020EE
:1088A000F6C10020F8B5A0F5AE44FF2C074629D844
:1088B0001B4B1C4E93F90000A4B222B29042B8BFE9
:1088C0001C70640135198B786B758A782B7BDAB153
:1088D00001332B732F8201F07FFA688201F032F9A5
:1088E000687301F0E1F8A87301F0FAF8AB7BE9696D
:1088F0001843A873335904F10C00304403B198476E
:10890000094B1F800120F8BD002BFBD0AB7D002B55
:10891000F8D004F10C003044FFF76AFFF2E700BF23
:10892000ACBC002074BC0020F6C100202DE9F84347
:10893000154B93F900200132994620D1BDE8F88308
:10894000640108EB04052E8B2B7B002E08BFC82684
:1089500073B1688A01F046FAB04209D9AB7D13B908
:108960002846FFF730FF04F10C004044FFF740FFBA
:10897000013799F90030FCB29C42E1DDDEE70027C7
:10898000DFF80880F5E700BFACBC002074BC002015
:1089900008B5A0F5B9435B3B192B03D8FEF79EFB46
:1089A000002008BD0120FCE7014B1860704700BFA4
:1089B000F8C10020024B186808B1036818477047D7
:1089C000F8C10020024B1B680BB15B681847704769
:1089D000F8C10020024B1B680BB19B681847704719
:1089E000F8C10020054B1988814205D01880044B3E
:1089F0001B680BB1DB681847704700BFFEC1002041
:108A0000F8C10020054B1988814205D01880044B1D
:108A10001B680BB11B691847704700BFFCC10020E1
:108A2000F8C100200120704708B501F0C5F901F038
:108A3000F7FD01F069FBFFF755FCFDF727FF08BDC7
:108A40002DE9FF4701F038FFFFF7ECFF00284DD07C
:108A5000314EDFF8CC90002437465FFA84F8404668
:108A600001F09CFDA55D854282463CD099F800301E
:108A7000980701D501F098FD85EA0A050023EDB2BB
:108A800045FA03F1C907DAB22AD501259D401AEA51
:108A9000050F14BF012300238DF800208DF802304C
:108AA0008DF8018001F098F940F001006B46ADF8B7
:108AB000040093E8030000F043F83B5D6B403B5536
:108AC000164C01F0A9FCFFF775FF2378834220D0F4
:108AD000FFF770FF207004B0BDE8F047FEF771BBF0
:108AE0000133052BCCD10134052CB6D14FF6FF73E1
:108AF000ADF8083000238DF80A3001F06DF940F030
:108B00000100ADF80C0004AB13E9030000F018F805
:108B1000D6E704B0BDE8F08701C2002000C2002003
:108B20007DC2002038B5054D044645F001054FF4DF
:108B30007A40A847013CFAD138BD00BF30B70300E6
:108B400084B06B4683E803000022ADF80E2093E862
:108B5000030004AB0290ADF80C1013E9030004B05D
:108B600000F092BD008800F03FBF08B5002850D04B
:108B7000822812D1FFF71EFF81074AD4392000F066
:108B800063FF01F003F86420FFF7CCFF392000F009
:108B900063FFBDE8084000F0F9BF83280DD1FFF75F
:108BA00009FFC20735D4532000F04EFF00F0EEFF5E
:108BB0006420FFF7B7FF5320E9E784280DD1FFF7C2
:108BC000F9FE430725D4472000F03EFF00F0DEFF0A
:108BD0006420FFF7A7FF4720D9E7021FD2B2A02ADF
:108BE00002D800F031FFD4E700F12002D2B2072A08
:108BF00007D800F0070301209840C0B200F05AFFE8
:108C0000C7E7EF2805D901F007FBBDE8084001F0F0
:108C1000F5BB08BD08B5002844D082280FD1FFF766
:108C2000C9FE81073ED5392000F00EFF00F0AEFFEF
:108C3000392000F011FFBDE8084000F0A7BF8328ED
:108C40000AD1FFF7B7FEC2072CD5532000F0FCFE77
:108C500000F09CFF5320ECE784280AD1FFF7AAFE1E
:108C600043071FD5472000F0EFFE00F08FFF47209D
:108C7000DFE7021FD2B2A02ADBD900F12002D2B274
:108C8000072A07D800F0070301209840C0B200F07F
:108C900019FFD0E7EF2805D901F028FBBDE808400F
:108CA00001F0ACBB08BD08B528B100F003FFBDE87A
:108CB000084000F06BBF08BD08B528B100F002FF06
:108CC000BDE8084000F062BF08BD00002DE9F04794
:108CD00090F80690857807460C464FEA19190DB1B1
:108CE00000F014FF00F0D6FE804670B11DB304F111
:108CF0002003DBB2072B1ED9022000F095FF00F005
:108D0000C9FE80F001005FFA80F8C4F303360F2E2D
:108D100040D8DFE816F0130013005A005A00AA00EA
:108D2000C3003F003F00F7004F0161016101C10135
:108D30003F003F00CA014FF00008E6E7C4F30723F5
:108D4000C4F3032613F0F00F18BF3601E4B295B157
:108D500056B104F12003DBB2072B304600D93CB9F1
:108D600000F0A8FE00F012FF2046FFF7FEFE11E023
:108D700000F0BCFEF6E72046FFF74CFF56B104F1C9
:108D80002003DBB2072B304600D9DCB900F09AFE95
:108D900000F0FCFEB8F1000F00F08E8100F072FED2
:108DA00010F0010040F08881B87000F063FE00F020
:108DB0007BFD384600F084F900F05CFEBDE8F0472A
:108DC00000F07CBD00F09AFEE2E7C4F3072303F055
:108DD000F003C4F30326202BE4B218BF360164B1BC
:108DE000012C2CD0ADB3B9F1000F2CD0BB79D90731
:108DF000BAD56FF30713BB7125E09DB1B9F1000F30
:108E000006D100F09FFE3043C0B2FFF74CFFC1E730
:108E1000B9F1010FF5D100F095FE3043C0B200F07A
:108E20009DFEB7E7B9F1000F05D100F0A3FE304673
:108E3000FFF742FFAEE7B9F1010FABD0F5E725B17F
:108E4000B9F1050FA6D83046DFE7B9F1040FA1D874
:108E5000EDE7B9F1000FEAD0392C02D15020FFF72D
:108E600061FE2046FFF7D6FE94E7C4F381232BB1C1
:108E7000012B0BD0083E032E61D98BE725B1C4F33B
:108E80000900FFF7AFFD85E72846FAE725B1C4F3EF
:108E90000900FFF7B7FD7DE72846FAE7E0B2CDB15C
:108EA000F5280DD0F62810D0F42804D1834A136891
:108EB00043F00103136001F0AFF901F09FFA69E795
:108EC0007E4A136843F00203F4E77C4A136843F0D8
:108ED0000403EFE7F5280BD0F6280ED0F42804D1D0
:108EE000764A136823F00103136001F0FFF9E4E709
:108EF000724A136823F00203F6E7704A136823F0FE
:108F00000403F1E714F4407F27D1C5B9E206C4F3A6
:108F1000421048BF0F254FEA800048BF854004F04B
:108F20000F03C4F3812448BFED438340022C45EA7C
:108F300003000CD00ED8012C06D000F08BFCFFF7FC
:108F400039FDFEF73EF925E700F07CFCF7E700F07D
:108F500089FCF4E700F073FCF1E7C4F30122D3B21B
:108F6000EDB102F00103002BE9D0C4F342108300FD
:108F700004F00F0000FA03F214F010001CBF0F20E1
:108F80009840C4F3812418BFC043022C40EA020079
:108F90000AD00CD8012C04D000F0AEFCCFE75B085F
:108FA000E1E700F0A1FCCAE700F0AEFCC7E700F083
:108FB00067FCC4E7E6B2C4F3032435B1204600F0F1
:108FC00073FC3046FFF76FFEB9E73046FFF774FEDB
:108FD000204600F073FCB2E75FFA84FAAAF1F003CE
:108FE000042B3DD8DFE803F00310161D260045B121
:108FF000B9F1040F3FF63EAFC4F3042000F06AFC61
:1090000038E7B9F1050FF5E7C4F3042035B100F0F6
:109010004BFC2FE7C4F30420002DF8D000F04EFCE9
:1090200028E725B1C4F3042000F039FC22E700F062
:1090300033FC1FE74DB1C4F30424204600F034FC98
:109040000321204600F0D6FD14E7012000F0ECFDDE
:10905000B9F1010F7FF60EAF022000F0E5FD09E740
:109060004DB1B9F1000F03D05046FFF77EFD01E787
:10907000C4F30420CBE7B9F1000F0AD0BAF1390FDD
:109080000CBF50203220FFF74DFD5046FFF7C2FDC8
:10909000F0E6C4F30420C1E7C4F30322E1B238468A
:1090A000FDF746FC00F05CFB74E6C4F30322E1B27A
:1090B0003846FEF707FB6DE6BDE8F0874CE500207B
:1090C00037B583880288ADF804200446C3B1BDF8E3
:1090D00004204FF6FF739A4212D0FEF783F878B15E
:1090E0002188A07800F08CFC054600F015FC00F00B
:1090F000A5FB2946204603B0BDE83040FFF7E6BD9A
:1091000003B030BD08B500F001FD00F015FD00F022
:109110003DFD01F0FFF901F071F90020FFF762FC5D
:109120000020BDE80840FFF76DBC08B500F09CFCCE
:10913000BDE80840FFF7E6BF08B500F0CBFCBDE88E
:109140000840FFF7F2BFC0F303330E3303F00F0202
:109150000D2A0CD80123934013F4105FC1B217D12C
:1091600040F20330184004D113F010030BD100205B
:109170007047F02902D003D8E729F8D801207047BA
:10918000F429F4D1FAE7E729F8D9F129F6D07047A4
:10919000C0F3C020704707B5ADF80400019800F097
:1091A00023FC03B05DF804EBFFF7CDBF82B002AB48
:1091B00003E9030002B0704782B002AB03E9030089
:1091C00002B0704770B5094B094E1C78094D3378D1
:1091D000A34200D170BD05EBC40355F834005968B3
:1091E0000134FFF7E9FF04F00704F0E751C2002063
:1091F00050C2002010C20020024B18685968FFF7C7
:10920000DBBF00BF08C200202DE9F341274A937954
:1092100013F0F00F0CD1937853B1254BDFF898C0C1
:109220001978244D4FF6FF769CF800308B4202D11E
:1092300002B0BDE8F0819388002B33D0177892F804
:1092400001E08DF804708DF805E0BDF80400B0422F
:1092500028D0C8002C1894F80180F04522D115F8C8
:1092600031E0BE451ED1A778E7B9A488A3428ABFE2
:10927000F31AE31A1B19C72BCCBF002301238BB1B0
:109280009379012161F3071393712B1807489A7999
:1092900061F307129A71FFF713FF02B0BDE8F041C6
:1092A000FFF790BF013101F00701BDE708C20020C0
:1092B00051C2002010C2002050C200202DE9F0470A
:1092C000A54C05468EB0A7880068218808900DF14E
:1092D000200C2A786B7895F80280B5F80490ADF8E8
:1092E000041094F800E06078002F00F03D818EB209
:1092F0004FF6FF718E4200F03781A678002E00F005
:1093000033814F458ABFCF1BA9EB07074F44C72FB7
:10931000A179CCBF0027012701F0F00A002F00F04F
:10932000C980BAF1000F7BD18DF809008DF808E0F3
:10933000BDF808C04FF6FF708445464618D08DF83A
:1093400020208DF821302088BDF820C084450FD121
:1093500076B9012363F30711A171FFF74DFF7E4832
:10936000FFF7AEFEA379AB7130460EB0BDE8F087D3
:10937000B9F1000F08D1B8F1000FF5D0A37943F08F
:109380000103A3710026EFE78DF81C208DF81D3036
:10939000BDF81C004FF6FF718842ECD0B8F1000F09
:1093A000ECD16E486E4990F800C009786D4861456F
:1093B0000FD18DF820208DF82130089800F014FB93
:1093C000C0F30332C3B2032A1DD8DFE802F013133F
:1093D000212100EBC10494F801E09E4506D110F86C
:1093E00031E0964502D1A478002CBDD1013101F0C5
:1093F0000701DCE710F4706F01D0002BB4D02033EC
:10940000DBB2072BB0D92846FFF75AFE3E46ABE742
:1094100010F4706FF3D0AA7912F0F00FEFD1A3E738
:109420008DF80D008DF80CE0BDF80C604FF6FF7064
:10943000864216D08DF820208DF821302088BDF886
:10944000206086420DD1B8F1000F0AD1A9712846DB
:10945000FFF736FE2B6823606B686360FFF7CCFE76
:10946000D4E78DF820208DF821300898FFF793FE7F
:10947000E0B1B8F1000F19D0A3791F2B0CD92288C5
:10948000ADF8282000228DF82A20ADF82C908DF818
:109490002E300AA8FFF714FE2B6823606B68636008
:1094A000FFF7B2FEFFF7A8FE01265DE72846FFF7AB
:1094B00007FEF9E7BAF1000F13D18DF820208DF8DF
:1094C00021308DF82280ADF824909CE80300FFF74E
:1094D0006DFE2148FFF7F4FD27606760FFF78CFE03
:1094E00050E78DF811008DF810E0BDF810704FF6C0
:1094F000FF70874214D08DF820208DF8213020880D
:10950000BDF8207087420BD1B8F1000F08D1A971C6
:109510002846FFF7D5FDC4F80080C4F8048023E78F
:109520008DF820208DF821300898FFF734FE0028B0
:10953000BCD0B8F1000FB9D0A3791F2BACD92288C9
:10954000ADF8302000228DF83220ADF834908DF83F
:1095500036300CA89EE700BF08C2002050C2002091
:1095600051C2002010C20020002F72D08DF814E0EC
:109570008DF81500BDF814104FF6FF76B14268D093
:10958000A178002965D14F4539D8A9EB0707C72F26
:10959000CCBF00260126002E4CD04646002E85D09A
:1095A0008DF818E08DF81900BDF818004FF6FF711E
:1095B00088422DD08DF820208DF821302188BDF8EB
:1095C0002000884224D1A379DA071CD413F0F00FCD
:1095D00019D003F0F002F02A1CBFC3F303120132CA
:1095E000AB711CBF62F30713AB712846FFF768FD30
:1095F0002B6823606B686360FFF7FEFDB4E6F61B23
:109600004E44C72EC4E72B6823606B686360ABE6EB
:109610008DF820208DF821300898FFF7BCFD002838
:109620007FF43AAFA379284643F00103A371FFF713
:1096300047FD99E68DF82280ADF824908DF8202022
:109640008DF821309CE80300FFF7B0FD26606660CE
:10965000D2E7B8F1000F3FF429AF8DF820208DF844
:1096600021300898FFF797FD064600283FF41EAF0B
:109670002B6823606B6803486360FFF773FAFFF79A
:10968000C3FDB9E708C20020F0B587B06C4684E896
:1096900003002046FFF712FE2D4E2E4D074688B1DF
:1096A000BDF80430BDF80020ADF8082043B192B2F7
:1096B0004FF6FF739A4203D094E80300FFF77CFD56
:1096C000254C40E094E8030004AB83E80300BDF8B8
:1096D0000420BDF81010ADF80C10002AF0D089B2AB
:1096E0004FF6FF729142EBD034782978621C02F079
:1096F00007028A420BD0184F327003CB07EBC40C21
:1097000047F83400CCF80410FFF75CFDD8E7FFF70A
:1097100013FD124B37702F701F605F6007B0F0BDF4
:1097200004EBC000FFF7CAFD0028F7D02B7804EB4C
:10973000C30254F833005168FFF73EFD2B78013324
:1097400003F007032B70287833788342E8D1E5E7EC
:1097500050C2002051C2002010C2002008C20020C8
:10976000F8B5034670B12B4E002746F00106187875
:10977000732803F1010406D8042827D201280ED04B
:10978000022826D0F8BD75283DD032D3A0F184033D
:109790006F2BF7D800F07F00FFF73CFA0EE09C1C1F
:1097A0005B7803F12002D2B2072A0ED803F0070338
:1097B0009840C0B200F0B0F900F0E8F93D46013D34
:1097C000EDB2FF2D22D12346D1E71846FFF7CDF9A0
:1097D000F4E758789C1C00F12003DBB2072BDBD8A0
:1097E000012300F0070003FA00F0C0B200F09CF97A
:1097F000E2E75D789C1C013DEDB2FF2DDED04FF419
:109800007A40B047F7E79C1C5F78D7E74FF47A407F
:10981000B047D4E740B70300704708B5FFF7FCFF37
:1098200008BD000008B5FFF7F8FF034B1860BDE85E
:109830000840FFF767BC00BF54C200207047FFF725
:10984000F1BF0000024B1B681843FFF7EBBF00BFDE
:1098500054C20020024B1B681840FFF7E3BF00BF53
:1098600054C20020024B1B685840FFF7DBBF00BF0B
:1098700054C20020704708B5FFF7FCFF08BD000088
:1098800008B5FFF7F8FF034B1860BDE80840FFF785
:1098900039BC00BF58C200200020FFF7F1BF0123F0
:1098A00003FA00F0FFF7ECBF012303FA00F0024BCC
:1098B0001B681843FFF7E4BF58C20020012303FAD6
:1098C00000F0034B1B6823EA0000FFF7D9BF00BF7D
:1098D00058C20020012303FA00F0024B1B685840D5
:1098E000FFF7CEBF58C20020024B1B681843FFF79A
:1098F000C7BF00BF58C20020024B1B681840FFF7CB
:10990000BFBF00BF58C20020024B1B685840FFF782
:10991000B7BF00BF58C2002070470000C0F3072344
:1099200003EB830353FA80F3DBB237B503F007028E
:1099300001209040DB080A4A03EB8303C0B21344C2
:10994000002413F8015F21FA04F242F300026A4096
:10995000024001346A40052C1A70F2D103B030BDC8
:109960005BC20020C0F3072303EB830313B553FA54
:1099700080F0C0B200F007040949C00800EB800085
:109980000022014410468B5CE34003F00103934046
:1099900001321843052AC0B2F5D102B010BD00BF94
:1099A0005CC2002073B50E4BADF804001E680D4B71
:1099B0001B681F241E4326FA04F3DB07E5B206D416
:1099C00014F1FF34F7D20025284602B070BD01998A
:1099D0002846FDF791FE80B20128F1D0F4E700BFE0
:1099E00058C2002054C2002007B5ADF80400019809
:1099F000FFF7D8FF019903B05DF804EBFDF77CBEDB
:109A000013B5104BADF804101B782BB1019802B0C0
:109A1000BDE81040FFF7E8BF70B10198FFF7C2FF43
:109A2000044601460198FFF779FF0199204602B0EC
:109A3000BDE81040FDF760BE0198FFF793FF0446B4
:109A4000F3E700BF06C20020024B0146186800F091
:109A500088B900BFB0BC0020024B0146186800F076
:109A600082B900BFB0BC0020014B186800F07DB97E
:109A7000B0BC0020024B93F90000C0F3C700704750
:109A800079C20020024B187800F00700704700BF31
:109A900079C20020034B187810F0070018BF01208E
:109AA000704700BF79C20020014B1878704700BF93
:109AB0007BC20020024A137818431070704700BF21
:109AC0007BC20020024A137823EA0000107070471E
:109AD0007BC20020014B00221A7070477BC200201D
:109AE000014B1878704700BF7CC20020024A1378EF
:109AF00018431070704700BF7CC20020024A1378E0
:109B000023EA0000107070477CC20020014B002245
:109B10001A7070477CC20020024A137818431070F4
:109B2000704700BF78C20020024A137823EA000081
:109B30001070704778C20020014B00221A707047E5
:109B400078C20020014B1878704700BF7AC200200D
:109B5000704708B5FFF7FCFF08BD000008B5044BCF
:109B60001978814202D01870FFF7F3FF08BD00BFDB
:109B70007AC2002008B5044B1A781AB10020187078
:109B8000FFF7E7FF08BD00BF7AC2002010B5114CF7
:109B90001149226809781170216810480A78007804
:109BA00002430A7021680E480A78007802430A705E
:109BB0000C4A12784AB1236819780A431A7020684F
:109BC00000F09BF808B1FFF7D5FF2068BDE8104012
:109BD000FEF7F8BEB0BC00207BC200207CC2002093
:109BE00078C200207AC20020704708B5FFF7FCFF5A
:109BF00008BD000010B5064C41EAC0012170FFF716
:109C000053FE94F90000C0F3C700FFF7EEFF10BD4C
:109C100079C2002008B5034B00201870FFF7E5FF5C
:109C200008BD00BF79C2002008B50A4A92F9003089
:109C300023EA000040B2107042070AD1DBB283422F
:109C400007D0C0F3C700FFF739FEBDE80840FFF7B3
:109C5000E1BF08BD79C20020030C002B16BF1846D7
:109C600000231023020A1CBF1046083302091EBF3E
:109C700004331046DBB282081EBF02331046DBB24B
:109C800042081CBF0133DBB21846704708B54FF6D7
:109C9000ED61002000F034FA0021022000F02EFADD
:109CA0000021032000F02AFA0021042000F026FA07
:109CB0000021052000F022FA00210820BDE808401C
:109CC00000F020BA08B5002000F0BAF94FF6ED63B5
:109CD000C31A5842584108BD022000F089B9032038
:109CE00000F086B90146032000F008BA042000F015
:109CF0007FB90146042000F001BA821C00F108037C
:109D000000209A4200D1704712F8011B0029F8D0B8
:109D10000130C0B2F5E730B54FF0FF33851C0022AB
:109D200015F8014B8C420ED0B3F1FF3F02D1002C4D
:109D300008BF13460132D4B2062C62B2F0D15A1CCD
:109D400001D01844817030BD10B5831C002208304A
:109D500013F8014B8C4208BF03F8012C8342F7D162
:109D600010BDFFF7D8BFFFF7EFBF0622002102307A
:109D700010F099B908B5084A084813680A33136007
:109D80000021074A05F03EF800224FF4A47105486F
:109D9000BDE8084005F048B8A0C2002048B703005D
:109DA000759D020080C20020024A136818441060AA
:109DB000704700BFA0C2002008B5054A0548002131
:109DC00005F020F818B1BDE8084004F0D1BD08BD89
:109DD000759D020048B70300014B186880B27047B8
:109DE000A0C20020054B1A681B6892B2904288BF3F
:109DF00003F1FF33181A80B2704700BFA0C20020E1
:109E0000024B1960024B1860704700BFA4C20020CB
:109E1000A8C2002041DF704730B5354D4268354B50
:109E2000017853F82230344A0446288852F8212019
:109E30003249000487B040F0030004F027FC237887
:109E4000052B2BD8DFE803F0032C2A2C2A48616865
:109E500021BB2B4B01221A7001A8122210F023F90A
:109E600001A805F05FFF08B104F082FD2888BDF865
:109E700008202449000440F0030004F0FDFB28887A
:109E8000BDF80A202049000440F0030004F0F4FB70
:109E9000BDF80A30222B01D905F0F2FE07B030BD23
:109EA0006368002BFAD12888A2681849000440F0A2
:109EB000030004F0E1FB2888A2891549000440F062
:109EC000030004F0D9FB2888E2891249000440F01D
:109ED000030004F0D1FBE1E76368002BDED12888A2
:109EE0000D49000440F0030004F0C2FBD6E700BFB8
:109EF0004CC10020B4BC0020F8B703004CB70300ED
:109F0000D8C2002064B703007CB70300B4B70300D5
:109F1000C6B70300D6B70300E9B703001FB51E4854
:109F200005F0DCFC05F0F0FC08B104F021FD1B4A53
:109F300013784BB3002108226846CDE9001110F0D8
:109F4000B2F86B46164A41F201014FF4805005F019
:109F5000BBFEE0B9CDE9020002A9114805F0D2FD2F
:109F600008B104F005FD242203990E4810F077F89B
:109F70000B4805F0EBFD08B104F0FAFC0A4B012296
:109F80001A7005B05DF804FBFFF744FFD0E70749FE
:109F9000034805F03DFEEEE7199E0200D8C20020FE
:109FA000DCC20020ACC20020D0C2002010B80300E8
:109FB00008B50B4A137893B10A4B1968C8290BD915
:109FC0000021196008481170084905F02BFE30B1D6
:109FD000BDE8084004F0CCBC1A6804321A6008BD21
:109FE000D1C20020D4C20020DCC2002010B803007F
:109FF00010B5044B1B7804460BB9FFF78FFF024BDB
:10A00000185D10BDD0C20020ACC2002038B5084B8E
:10A010001B7804460D460BB9FFF780FF054B1D5515
:10A02000054B01221A70054B00221A6038BD00BF93
:10A03000D0C20020ACC20020D1C20020D4C2002077
:10A0400038B50546FFF7D4FF0446681CFFF7D0FF7C
:10A0500044EA002080B238BDF8B50546FFF7C8FFD6
:10A060000646681CFFF7C4FF0746A81CFFF7C0FFA1
:10A070000404E81CFFF7BCFF44EA0724344344EA25
:10A080000060F8BD38B5094B1B7805460C460BB986
:10A09000FFF744FF064B5C552B44240A5C70054BCC
:10A0A00001221A70044B00221A6038BDD0C2002071
:10A0B000ACC20020D1C20020D4C2002038B50B4B66
:10A0C0001B7805460C460BB9FFF728FF0848445596
:10A0D0002844230A4370230C8370064B01221A7014
:10A0E000054B240E0022C4701A6038BDD0C2002077
:10A0F000ACC20020D1C20020D4C20020FFF786BF2E
:10A10000FFF7C0BFFFF7DABF08B5FFF7DBFD08B9FF
:10A11000FFF7BCFDFFF7E0FD054B1870FFF7E6FD0C
:10A12000044B1880FFF7DBFDBDE80840FFF787BB55
:10A130007DC2002050E50020194B1B78D90709D5B6
:10A14000184B187800EB800080087F2823D820B3B4
:10A15000C0B270479A0705D5124B187800EB800003
:10A160004008F2E75B0704D50E4B187800EB80003F
:10A17000EBE70D4B1B7863B10C4A0A49127808785B
:10A18000934200EB80003EBF584390FBF2F080B258
:10A19000DBE70520DCE77F2070470120704700BF28
:10A1A000EFC20020F6BC0020F0C20020F7BC002067
:10A1B000154B1B78D90705D5144B1878800800B3C8
:10A1C000C0B270479A0703D5104B18784008F6E7DD
:10A1D0005B0705D50D4B18787F28F0D97F20704795
:10A1E0000B4B1B785BB10B4A0849127808789342F5
:10A1F00036BF10FB03F080B290FBF2F0ECE70120D9
:10A20000DEE70120704700BFEFC20020F8BC00204D
:10A21000F0C20020F9BC0020F02808B505D1FFF7F6
:10A220008BFF40422F4B987008BDF12802D1FFF7F9
:10A2300083FFF7E7F22805D1FFF77EFF4042294B65
:10A240005870F1E7F32802D1FFF776FFF7E7F92816
:10A2500004D1FFF7ADFF234BD870E5E7FA2803D10F
:10A26000FFF7A6FF4042F6E7FB2805D1FFF7A0FF66
:10A2700040421C4B1871D7E7FC2802D1FFF798FF2A
:10A28000F7E7F42804D1174A137843F0010313E0E9
:10A29000F52804D1134A137843F002030CE0F628A2
:10A2A00004D1104A137843F0040305E0F72805D1E0
:10A2B0000C4A137843F008031370B5E7F82804D16B
:10A2C000084A137843F01003F6E7FD2801D1064A47
:10A2D000DAE7FE2801D1044ADDE7FF28A4D1024ACB
:10A2E000E0E700BFEAC20020EFC20020F028404BA8
:10A2F00014D193F90220002A01DA00229A7093F90E
:10A30000012052B993F902203AB993F9032022B9F6
:10A3100093F904300BB9374A13707047F12804D110
:10A3200093F90220002AE8DCE9E7F22893F90120FA
:10A3300004D1002AE3DA00225A70E0E7F32802D1C0
:10A34000002AF8DCDBE7F92806D193F90320002A7C
:10A35000D5DD0022DA70D2E7FA2804D193F9032080
:10A36000002ACCDAF5E7FB2806D193F90420002A6D
:10A37000C5DA00221A71C2E7FC2804D193F904203F
:10A38000002AF6DCBBE7F42804D11A7822F0010297
:10A390001A70B4E7F52803D11A7822F00202F7E721
:10A3A000F62803D11A7822F00402F1E7F72803D146
:10A3B0001A7822F00802EBE7F82803D11A7822F085
:10A3C0001002E5E7FD2805D10B490A7822F00102C9
:10A3D0000A7094E7FE2804D107490A7822F00202A5
:10A3E000F6E7FF288BD104490A7822F00402EFE750
:10A3F000EAC20020F0C20020EFC2002008B50448E5
:10A40000FEF7E8FAFFF7E8FC024B188008BD00BF32
:10A41000EAC20020E8C20020F8B5394B1888FFF7DF
:10A42000E1FC38490A78A2B1374B1B7898420FDB20
:10A43000364C94F9013094F9027094F9036094F960
:10A44000045063B9002F58D1002E56D1002D54D19D
:10A45000F8BD2F4B1B7803EB83035B00E6E7FF2A75
:10A4600001D001320A70002B02DDFFF765FE60703B
:10A4700094F90130002B03DAFFF75EFE4042607072
:10A48000002F02DDFFF758FEA07094F90230002B78
:10A4900003DAFFF751FE4042A07094F9012072B137
:10A4A00094F9021059B1B5235A43121203FB01F378
:10A4B00008BF01221B1208BF01236270A370002E87
:10A4C00002DDFFF775FEE07094F90330002B03DA2C
:10A4D000FFF76EFE4042E070002D02DDFFF768FEE0
:10A4E000207194F90430002B03DAFFF761FE40423B
:10A4F0002071BDE8F840FFF781BFFF2AB1D1BFE767
:10A50000E8C20020F0C20020F5BC0020EAC2002012
:10A51000F4BC0020044A002313601371034A137033
:10A52000034A1370704700BFEAC20020F0C2002047
:10A53000EFC200200279036882B033F81230ADF820
:10A5400004309DF80430002063F307009DF80530C7
:10A5500063F30F2002B07047002937B5C0F307201E
:10A5600014BF052100214408094D052394FBF3F392
:10A57000194403EB8303E41A01236A56A3405BB238
:10A58000C0074CBF1A439A436A5403B030BD00BFA2
:10A59000F1C2002008B5FCF799F908BD014B185C21
:10A5A000704700BFF1C200207047000030B50022A4
:10A5B0000C4C0D4D104654F822101F298ABF2B4613
:10A5C0004FF0A04301F01F01D3F81035CB40DB431F
:10A5D00003F00103934001321843052AC0B2EAD1C7
:10A5E00030BD00BFE0B903000003005030B50A4C95
:10A5F0000A4D0022012054F822301F2B86BF03F0A1
:10A600001F0329464FF0A041013200FA03F3052A47
:10A61000C1F80835EFD130BDCCB9030000030050BC
:10A6200038B51D4C1D4D00220C2054F822301F2B34
:10A6300086BF03F01F0329464FF0A04103F5E073E6
:10A640000132052A41F82300EFD1154C134DFFF7D5
:10A65000CDFF002240F2036054F822301F2B86BF4A
:10A6600003F01F0329464FF0A04103F5E0730132C8
:10A67000052A41F82300EFD10A490B4A00230B7049
:10A6800013704B7053708B709370CB70D3700B71D1
:10A690001371FCF70FF938BDE0B903000003005057
:10A6A000CCB90300F1C20020F6C20020074B53F8DA
:10A6B00020301F2B86BF03F01F0305494FF0A04138
:10A6C000012202FA03F3C1F80C357047CCB903003C
:10A6D0000003005010B5FFF7E9FFFFF767FF0446DE
:10A6E000FFF784FF204610BDF8B50D4D002401266C
:10A6F000E0B2FFF7EFFF06FA04F149B2CF430023BF
:10A700005A5740FA03FC1CF0010F14BF0A433A40A9
:10A710005A550133052BF3D10134052CE8D1F8BD8E
:10A7200092E500202DE9F04186B000240594FFF762
:10A73000DBFF584A58481578584F234621460646AD
:10A74000DC5D13F800C0A4451CBF1C54012103F1BB
:10A75000010318BF0D46052BF2D101B11570137816
:10A76000F3B1013BDBB21370D3B94D4C4D4F14F82C
:10A77000010FF25C90420ED00021504040FA01F5EA
:10A78000ED0705D5059D059D059D059D01350595A3
:10A7900001310529F2D1DA550133052B2270E6D1BA
:10A7A0004149424C0B7894F806800133DBB2FF2B11
:10A7B00008BF00230B70B8F1000F29D02046FFF727
:10A7C000B9FEC6B23A4DAB7923B32846FFF7B2FEC5
:10A7D000C7B237480978FFF7ADFEFF2FADF810007C
:10A7E0000FD0344B1A783C2393FBF2F39DF81020E2
:10A7F000891AC9B28B4211DBB8F1000F0CD1BE42ED
:10A8000002D82A4DA3794BBB012006B0BDE8F081E8
:10A81000FF26D7E7FF27DCE7BE42F2D9DFF89080BA
:10A8200018E04046FFF786FEADF80400C0B2B8421B
:10A83000E5D100210198FFF78FFEAA7952B12B795B
:10A84000E8790133DBB2013AB3FBF0F100FB1133DD
:10A850002B71AA71AB79002BE3D1D0E72846FFF723
:10A8600069FEADF80400C0B2B042CDD1012101981B
:10A87000FFF772FEA279002AC4D02379E079013370
:10A88000DBB2013AB3FBF0F100FB11332371A2718B
:10A89000B8E700BFFABC0020F6C2002092E5002015
:10A8A000FAC20020F1C2002000C3002004BD002035
:10A8B000FCBC00200EC3030010B50448FFF732FFB4
:10A8C0000446FCF772FC204610BD00BFF1C2002018
:10A8D00033DF704708B503F069FD18B9BDE80840DB
:10A8E00006F0B2B908BD704710B54FF40041002022
:10A8F00003F0F6FC08B104F03BF8084C03F02CFC24
:10A900000321204603F0E6FE0123637206F086F978
:10A9100018B1BDE8104004F02BB810BD0CBD0020EC
:10A92000F8B50C680D46082C06464FF6FF7028BF98
:10A93000082409F07DFF00232B604FF6FF77B84213
:10A9400002D014F1FF3400D2F8BD2B685A1C2A60E3
:10A9500026F8130009F06CFFF1E7000008B5084B7A
:10A9600008491888000440F0030003F081FE09F054
:10A97000B7FF18B1BDE8084003F0FABF08BD00BF3B
:10A980004CC1002007BA030010B5044601F0A2FC38
:10A99000204609F09BFF08B103F0EAFF054B06498A
:10A9A00018880004224640F00300BDE8104003F080
:10A9B00063BE00BF4CC10020F4B9030030B44FF0B7
:10A9C0008043D3F83824D10701D5920730D5D3F886
:10A9D000383403F00303032B2AD0164C164D002203
:10A9E000012054F822301F2B86BF03F01F03294695
:10A9F0004FF0A041013200FA03F3052AC1F80C35EB
:10AA0000EFD10E4C0C4D0E48002254F822301F2B73
:10AA100086BF03F01F0329464FF0A04103F5E07302
:10AA20000132052A41F82300EFD130BCFFF750BFB7
:10AA300030BC7047CCB9030000030050E0B90300FC
:10AA40000C00030010B5074B07490446188822780C
:10AA5000000440F0030003F00FFE2378034A0133A3
:10AA6000136010BD4CC100203CBA030004C3002099
:10AA700030B50A4B0A4D0FCB85B06C4684E80F0009
:10AA800021460023074A284607F00EF804462846C8
:10AA900007F092F8204605B030BD00BF18BA030099
:10AAA00034BA030045AA020073B5154D00232B608C
:10AAB000009313460A460146124807F0CBF9D0B17D
:10AAC000286810F1FF3018BF012002B070BD0134BA
:10AAD00006F0BAF8B442F3D02B68002BF7D0B4F5E7
:10AAE0007A7FEDD1084B09491888000440F0030033
:10AAF00003F0BEFDE4E7044640F2E936ECE700BFB0
:10AB000004C3002034BA03004CC1002028BA03005B
:10AB10007047000030B50C4C0C49206885B000250A
:10AB2000009068468DF8005006F0C0FD234601AA4B
:10AB300053F8040F59681B7A03C201A92846137001
:10AB400006F0F8FD05B030BD4ABA030011AB0200B3
:10AB500010B5044C0020214606F042FE08B1002347
:10AB6000238010BD08C30020064BB3F900004FF44A
:10AB7000616320EAE07010FB03F0FF23B0FBF3F009
:10AB800080B2704708C300207047704710B501219C
:10AB9000174800F021FE02210446154800F01CFE73
:10ABA000002814BF02230023042111481C4400F094
:10ABB00013FE002814BF042300230821E4B20C482C
:10ABC0001C4400F009FE002814BF08230023E4B24F
:10ABD000102107481C4400F0FFFD002814BF10237B
:10ABE0000023E4B21C44034BE4B21C8010BD00BF40
:10ABF000ECBB030052CA002007B5044B0093044A83
:10AC0000402303F043FA03B05DF804FB6DAC02008F
:10AC1000BDC4002010B5028943899A4210D28388AE
:10AC200002685C1C8480D15481884289B1FBF2F3B4
:10AC300002FB13138380038901330381012010BDBC
:10AC40000020FCE7022908B502D0032904D008BD82
:10AC5000BDE80840FFF79ABF00F0D2F90248BDE80E
:10AC6000084000F06DBA00BFECBB030070B50E4E9B
:10AC700033780D464BB10D4E8C18A54212D015F805
:10AC8000011B3046FFF7C6FFF7E7D4B2224608485B
:10AC90000FF0E5F92246064906480DF0EDF908B92E
:10ACA0000123337070BD00BFBCC4002034BD002040
:10ACB000BDC400205CBB0300023808B50C280DD8C9
:10ACC000DFE800F0070D0C0C0C0C1424300C0C0CFD
:10ACD00011000DF073FC154B01221A7008BDBDE880
:10ACE0000840FFF753BF0DF01DFCF4E70EF028FC01
:10ACF0000028F3D10DF014FC0D4B0E491888000408
:10AD000040F00300BDE8084003F0B2BC084B0A491C
:10AD10001888000440F0030003F0AAFCBDE80840D6
:10AD20000DF042BCBDE808400DF0FEBB0AC3002098
:10AD30004CC10020E3BC0300EEBC030070470A4690
:10AD400001460020FFF792BF70B5002390B0048940
:10AD5000D9B29CB1C18805684A1C92B2C2806E5CAF
:10AD600045890DF80360B2FBF5F1013305FB1122B3
:10AD7000013C402BC2800481E9D119466846FFF7A7
:10AD8000DEFF10B070BD00002DE9F041054603293B
:10AD900006D8DFE801F012071F021F4B00221A70CD
:10ADA000BDE8F0811C4B1D4800221A700389002B5E
:10ADB000F6D0BDE8F041FFF7C7BF0DF07BF9184FA3
:10ADC000DFF8648006460024B4420AD128460DF01C
:10ADD00074F968B9012212491248BDE8F0410DF03A
:10ADE0006FB9E3B24046F95CFFF714FF0134EBE7BB
:10ADF000402828BF40200246044609490948084F18
:10AE0000094E0DF05DF90025795D30460135FFF7FB
:10AE100001FFAC42F8D1DDE7BCC4002034BD002006
:10AE20007CC400205CBB030028BD0020014B1889B6
:10AE3000704700BF28BD002007B502AB012103F811
:10AE4000010D1846FFF77BFF03B05DF804FB00001F
:10AE500030B50A4B1A8972B1D8881C685D89411CCB
:10AE600089B2D980205CB1FBF5F4013A05FB1411DD
:10AE7000D9801A8130BD1046FCE700BF28BD0020F4
:10AE800008B505F075FF08B103F072FD16480DF026
:10AE9000B7FA08B103F06CFD14480DF0A9FB08B136
:10AEA00003F066FD11480DF015FC08B103F060FDDC
:10AEB0000F480DF09DFB08B103F05AFD0D480DF051
:10AEC00097FB08B103F054FD0B480DF091FB08B15E
:10AED00003F04EFD09480DF08BFB08B103F048FD6F
:10AEE00000F01CFD002008BDC8BC0300ECBB030043
:10AEF00020BC0300B4BB03007CBB03005CBB0300AD
:10AF000010B50DF0F7FA044608B103F031FD204604
:10AF100010BD000038B5144C144D0DF0F3FD18B9F8
:10AF2000BDE8384000F018BD2378002BF5D02B6821
:10AF3000642B16DD002323700EF00CFB50B101F0E2
:10AF400047FD0028E9D10EF061FB18B9012001F09E
:10AF500057FDE2E701F030FD0028DED101F044FDAD
:10AF6000DBE701332B60D8E70AC300200CC30020C5
:10AF700010B50146054800F049F804460EF028FBDC
:10AF800008B10DF025FBE0B210BD00BFECBB030023
:10AF90000146052201480CF0E1BA00BF20BC0300C5
:10AFA00037B504460322ADF8050001A908488DF81D
:10AFB00004200CF0D3FA074B074905461888000413
:10AFC000224640F0030003F057FB284603B030BD93
:10AFD000B4BB03004CC10020D4BC030007B504235C
:10AFE000ADF8050003220DEB030104488DF8043091
:10AFF0000CF0B4FA03B05DF804FB00BFB4BB03006F
:10B00000014B00221A7070473EC900202DE9F04F15
:10B01000074687B057F810AB454E04463846884679
:10B020000BF059FF96F800B00AF11C0308250360E5
:10B030004560BBF1000F16D03E4C3F4823785A1CA8
:10B04000227000EBC3002A4641460FF008F823782F
:10B050003A4A03F00F032370137801331370012071
:10B0600007B0BDE8F08F2A4641460AF114000EF001
:10B07000F6FF237A2268002B55D0A37A04F1090148
:10B08000002B52D0E37A02F10808CB5C00936FF0FA
:10B090000801404604F0F6FF2368019338460BF0A0
:10B0A0001AFF019B814603F11C00C9E900052368D2
:10B0B000143319462A4601930EF0C2FF019B70B368
:10B0C0001946D9F80420D9F800000EF0C8FF384618
:10B0D00024680BF000FF1C34C0E9004506A8CDE948
:10B0E000034500F80DBDCDF814B003F0F1FE03A93F
:10B0F00000980DF067FB044618B92946404604F055
:10B10000ABFF9DF80B0003F007FF14F0FF0008D120
:10B11000DAF808301B0704D501233370A0E7044692
:10B12000F3E70023F9E75B78FFDE1B78FCE700BF5D
:10B130003EC90020C0C900203FC900203DC90020F1
:10B1400073B50E4D2B780646ABB10D4C0D492378E7
:10B150005A1C01EBC3012270684608220EF07FFFE3
:10B16000237803F00F0323702B786946013B3046A8
:10B170002B70FFF74BFF002002B070BD3DC90020CF
:10B18000BFC900203FC9002010B50B46044658B97E
:10B190000A68096A0968497882F8241018469A6A88
:10B1A00002219047204610BD0320FCE7F0B5BB4DBF
:10B1B0000C7A2C700468B4F5F07F00F062815FD8DF
:10B1C00040F2D716B44200F01E81B4F5EC7F26D2CF
:10B1D000B4F5E87F00F0ED800BD8002C00F0CA80B9
:10B1E00040F2CF16B44200F0D88000230360184626
:10B1F000D2E0B4F5EA7F00F0F980B4F5EB7FF4D14A
:10B2000000240AB106791655A54E366801347678C1
:10B2100006719C42C0F0F88040F2D713BAE0B4F552
:10B22000ED7F00F0098114D8B4F5EC7F00F0F780D1
:10B2300040F2D916B442D8D100240AB10679165585
:10B2400001344E7E06719C42C0F0F7804FF4ED73DE
:10B25000A0E0B4F5EF7F00F0FC8000F2068140F240
:10B26000DB16B442C1D100240AB106791655013467
:10B2700009269C420671C0F0ED804FF4EF7389E01F
:10B2800040F2F916B44200F07181B4F5FD7F3CD272
:10B2900040F2E316B44200F01881B4F5F27F14D204
:10B2A00040F2E116B44200F00381B4F5F17F9CD185
:10B2B00000240AB10679165501344E6906719C4284
:10B2C000C0F0048140F2E31364E040F2EF16B442B0
:10B2D00000F02D81B4F5F87F00F03781B4F5F67FEA
:10B2E00083D100240AB1067916556E4E37780E695F
:10B2F00056F827606C4F36683E8001349C420671D8
:10B30000C0F0168140F2EF1344E040F2FF16B44261
:10B3100000F05281B4F5007F14D2B4F5FD7F00F047
:10B320003181B4F5FF7F7FF460AF00240AB1067964
:10B330001655013403269C420671C0F03E8140F24E
:10B34000FF1327E040F20126B44200F04D81B4F52E
:10B35000007F40F23D8140F20226B4427FF445AFC7
:10B3600000240AB1067916554E4F3E780136013455
:10B370003E70C6E04D4E34704C4E37782E78B74252
:10B3800002D340F2062305E00926A342067105D840
:10B3900040F2CF1303600120F0BD00240AB106790A
:10B3A0001655013404269C42067103D34FF4E8730A
:10B3B000F0E700240AB1067916553C4E0F7A36782C
:10B3C000DFF8DCC0B74204F1010440F21A8101F158
:10B3D000090706EB460607EB060E9C42BE5DCCF85D
:10B3E00000E0067103D34FF4EA73D3E700240AB1F7
:10B3F00006791655013400269C420671FFF401AF10
:10B400004FF4EB73C6E700240AB1067916550134F0
:10B4100003269C42067103D34FF4EC73BAE7002471
:10B420000AB10679165501340E7E06719C42FFF46E
:10B4300004AF40F2D913ADE700240AB106791655DE
:10B44000013400269C420671FFF40EAF40F2DB137C
:10B45000A0E700240AB106791655013421269C4242
:10B46000067103D340F2DF1394E700240AB1067992
:10B470001655013411269C42067103D34FF4F07324
:10B4800088E700240AB106791655013401269C424A
:10B4900006710ED340F2E1137CE700BFCAC9002059
:10B4A000CCC90020CBC90020C2C90020C9C90020D6
:10B4B00000240AB106791655013400269C42067113
:10B4C000FFF4F7AE4FF4F17364E700240AB1067994
:10B4D00016554F4E4F6937704E4E00270134377066
:10B4E0004C4EDFF82CC137789CF800C0BC4513D80F
:10B4F000494F3F6897F801C0484F87F800C00027C0
:10B500003770444E3778454E3678B74227D3444F8C
:10B510003E7801363E702FE70E6956F82760A34249
:10B52000367906713FF6DEAE4FF4F67332E700244B
:10B530000AB1067916553B4E36880134360A9C42CC
:10B54000067103D34FF4F87324E700240AB1067997
:10B550001655304F3E78013601343E70C0E707265D
:10B560009C42067103D340F2F91313E700240AB199
:10B5700006791655013405269C42067103D34FF413
:10B58000FD7307E700240AB106791655224E244FB1
:10B5900036683F7896F801C0BC4504F1010435D9FE
:10B5A00096F802C03E449C4216F80C600671FFF407
:10B5B000BDAE4FF4FF73EDE600240AB106791655CF
:10B5C000013440269C42067103D34FF40073E1E638
:10B5D00000240AB106791655013400269C420671F2
:10B5E00003D340F20123D5E600240AB106791655AB
:10B5F000013401269C420671FFF4B3AE40F20223EF
:10B60000C8E60023CCF800301B78FFDE0023FBE700
:10B61000C1C90020CBC90020CCC90020C8C9002066
:10B62000C9C90020C2C9002030B5036A1A680024C5
:10B63000147087B01A685B68054606A80132013BA2
:10B6400000F8154DCDE90434039203F041FC204687
:10B6500003A90DF0B7F8044630B9074B01A9CDE9AD
:10B66000013501F065FB04469DF8030003F054FC2E
:10B67000204607B030BD00BF89B102000A79012A17
:10B680000B4607D1C169D1E90012581C013A0131BA
:10B6900001F060BB022A01D1016AF4E7062070477D
:10B6A00010B404460B4654F8102B214608325DF8BE
:10B6B000044B0BF0F5BA2DE9FF47037A0668044600
:10B6C000002B4AD0837A00F10902002B47D0C37ABD
:10B6D00008366FF00801304604F1100912F80380B3
:10B6E00004F0D0FC484625680BF0F5FB074605F151
:10B6F0001C00082538607D60236803F1140A2A467F
:10B7000051460EF09DFC30B37A68386851460EF011
:10B71000A6FC484624680BF0DEFB1C34C0E900455B
:10B7200004A8002300F80D3DCDE90145039303F083
:10B73000CFFB01A940460DF045F8044618B929464B
:10B74000304604F089FC9DF8030003F0E5FB204639
:10B7500004B0BDE8F0870446F9E75B78FFDE1B78AC
:10B76000FCE7FFF7A8BF0000F0B504689DF814607F
:10B770003CB1B4F5067F4FF0000420D004602046B1
:10B780001CE00D6955F826502F68114D2F60114DA2
:10B790002C60104D0E4F2D683F68BD4202D940F21B
:10B7A0001B2309E00F6957F82670BF68A3427D5D2F
:10B7B000057104D84FF4067303600120F0BD0AB18F
:10B7C00005791555034F3D68013501343D60E0E7CB
:10B7D000D0C90020C4C90020036893F8243019425E
:10B7E00014BF012000207047BFF34F8F0549064B5F
:10B7F000CA6802F4E0621343CB60BFF34F8F00BF0F
:10B80000FDE700BF00ED00E00400FA0508B5FAF717
:10B81000B7FF002008BD07B54368012B11DD0423E5
:10B820000DEB0302012100F013FB9DF804003038FA
:10B83000C0B2092801D8FFF7A7F8002003B05DF8CF
:10B8400004FBFFF78BF8F8E707B54368012B11DD20
:10B8500004230DEB0302012100F0FAFA9DF8040025
:10B860003038C0B2092801D801F03CF8002003B0FC
:10B870005DF804FB00F0EEFFF8E710B504460EF0AB
:10B880006FFCC1B22046BDE81040FFF758BA000077
:10B8900070B50A4D0A4E00246059FFF7EEFF0920EB
:10B8A000FFF7CAFA2B190C349868FFF7E6FF304609
:10B8B000FFF7E3FF482CEFD1002070BDB4BD0300BB
:10B8C00049C30300F0B587B002AD10224FF6FF71F7
:10B8D00028460EF0E8FB06A9082341F8143D284647
:10B8E000FFF71EF80B4E0C4F0024019B9C4202D325
:10B8F000002007B0F0BD3046FFF7BFFF15F8140079
:10B900003030C0B2FFF798FA3846FFF7B6FF01347F
:10B91000EBE700BFFCBD030049C3030013B50024DF
:10B920000094074B074A0849084800F07FF8084987
:10B9300008482346062202B0BDE8104000F000BAD5
:10B9400051AE02002DAE020039AE0200F4C9002053
:10B95000B4BD030010CA0020F7B5124C237823B9F8
:10B960003E20FFF769FA012323700F4E0F4D326816
:10B970000F4805F12007BB1A294600F065F8B842C8
:10B9800030600CD101AA29460A4800F0DEF92022D5
:10B99000002128460EF087FB00233560237003B09A
:10B9A000F0BD00BF1CCA002040BD0020D4C900204B
:10B9B000F4C9002010CA002070B58D1806462C4628
:10B9C000601B14F8013B03B970BD326818469047FC
:10B9D000F6E710B5044603680D20984723680A204F
:10B9E000BDE81040184770B505460E460024B44225
:10B9F00000DB70BD2B681B2098472B685B209847A5
:10BA00002B68442098470134F1E770B505460E468F
:10BA100000242B681B2098472B685B209847013433
:10BA20002B6843209847B442F3D170BDF8B5044663
:10BA30001D460F46164600F029F9069B6561C4E9CC
:10BA40000376A361F8BD00002DE9F74FDFF83882D7
:10BA50008C4E009204460F46994615462369984736
:10BA6000002858D06369984701468246204600F076
:10BA700017F9A269834602B19047BBF10A0F00F0A3
:10BA8000D68059D8BBF1060F00F0B88049D8BBF179
:10BA9000020F5DD0BBF1030F00F0C980BBF1010FB5
:10BAA000DCD13368D8F80020D21A511C1A440B4458
:10BAB0003A4401333B441046A2EB000C614500F3CD
:10BAC0009880A34650465BF80C2F9047D8F800109A
:10BAD000326885F800A0013101326B1CC8F80010F3
