:020000022000DC
:106000000000042005CC02002DCC02002FCC0200A1
:1060100031CC020033CC020035CC0200000000007D
:1060200000000000000000000000000037CC02006B
:1060300039CC0200000000003BCC02003DCC020045
:10604000211503003FCC020031150300B1190300F4
:106050004D1F03003FCC02001D11030095150300E6
:106060003FCC02003FCC02003FCC02003FCC0200FC
:106070003FCC02003FCC02003FCC02003FCC0200EC
:106080003FCC0200A9EA02003FCC02003FCC020054
:1060900045EB02003FCC0200716903003FCC0200D7
:1060A0003FCC02003FCC02003FCC02003FCC0200BC
:1060B000052303003FCC02000000000000000000A8
:1060C0003FCC02003FCC02003FCC02004919030044
:1060D0003FCC02003FCC02003FCC0200859B030076
:1060E0003FCC02003FCC02003FCC02000000000089
:1060F000000000003FCC0200000000003FCC020086
:10610000000000000000000000000000000000008F
:10611000000000000000000000000000000000007F
:10612000000000000000000000000000000000006F
:10613000000000000000000000000000000000005F
:10614000000000000000000000000000000000004F
:10615000000000000000000000000000000000003F
:10616000000000000000000000000000000000002F
:10617000000000000000000000000000000000001F
:10618000000000000000000000000000000000000F
:1061900000000000000000000000000000000000FF
:1061A00000000000000000000000000000000000EF
:1061B00000000000000000000000000000000000DF
:1061C00000000000000000000000000000000000CF
:1061D00000000000000000000000000000000000BF
:1061E00000000000000000000000000000000000AF
:1061F000000000000000000000000000000000009F
:1062000010B5054C237833B9044B13B10448AFF3F0
:1062100000800123237010BDD0C1002000000000C9
:10622000ACD7030008B5034B1BB103490348AFF3D8
:10623000008008BD00000000D4C10020ACD70300DE
:10624000154B002B08BF134B9D46A3F5803A002148
:106250008B460F461348144A121A13F02BFF0F4BAC
:10626000002B00D098470E4B002B00D09847002001
:10627000002104000D000D48002802D00C48AFF3A7
:10628000008013F069FE2000290006F047FC13F09F
:106290004FFE00BF000008000000042000000000C6
:1062A00000000000D0C1002008E90020000000002C
:1062B000000000001F288ABF054B4FF0A04300F0EC
:1062C0001F00D3F8103523FA00F000F001007047EA
:1062D0000003005008B500F0D3FB08BD08B54FF02F
:1062E000A0430C22C3F834270D20C3F86027FFF722
:1062F000E1FF02461820FFF7DDFF024B42EA4000B3
:10630000187008BDECC1002010B5184C22780D2083
:106310009200D2B2FFF7CEFF01461820FFF7CAFF66
:1063200041EA40001043C0B22070114B114C00F004
:106330000F0022781B5C13445BB2012B237003DD3A
:1063400000210846FFF7C6FF94F90030013303DA55
:1063500001210020FFF7BEFF94F90030002B03F06D
:106360000103B8BF5B42237010BD00BFECC1002029
:1063700088AC0300EDC10020014B1878704700BFC6
:10638000EEC10020A0F5C043B3F5005F09D3A0F52E
:106390008043B3F5805F04D3A0F58073B3F5F85F55
:1063A0000BD2C0B2031F9BB2232B0BD92B3880B268
:1063B0000D288CBF002001207047B0F5807F28BFDA
:1063C0000020EFE70120704708B5FFF7DBFF08BDAD
:1063D00010B5FFF7F9FF00B3104C2088D0B103F0DF
:1063E00033FD0F49DFED0F6A0A7842F6E06393FB55
:1063F000F0F0C0B2801A07EE900A07EE102AF8EE0D
:10640000E77AB8EEC77AA7EEA67AFCEEC77A17EE5F
:10641000903A0B7003F00CFD208010BDF0C10020FD
:10642000EEC10020A779473D10B50F4C208803F03E
:106430000BFDB0F57A7F16D90C4ADFED0D6A1378A3
:10644000594207EE101A07EE903AB8EEC77AF8EE06
:10645000E77AE7EE267AFCEEE77A17EE903A1370C9
:1064600003F0E6FC208010BDF0C10020EEC100204A
:10647000A779473D10B5104C206803F019FC04289B
:1064800013D8DFE800F0030A0C0E10000B4A0C488A
:10649000182113F017FE0A4810BD0A4AF7E70A4A06
:1064A000F5E70A4AF3E70A4AF1E72368094A04488C
:1064B000182113F007FEEEE7F4C2002098AC0300A9
:1064C0009CE30020A5AC0300B6AC0300C4AC030001
:1064D000D3AC0300E5AC03003CDF704738B5054D95
:1064E000044645F001054FF47A40A847013CFAD133
:1064F00038BD00BF00AD03001F2886BF00F01F009D
:10650000044B4FF0A04300F5E070032243F8202035
:10651000704700BF000300501F2886BF00F01F0017
:10652000044A4FF0A042012303FA00F0C2F8080524
:10653000704700BF000300501F2886BF00F01F00F7
:10654000044A4FF0A042012303FA00F0C2F80C0500
:10655000704700BF0003005008B557210020FFF727
:10656000BBFFBFF34F8F0549054BCA6802F4E062D9
:106570001343CB60BFF34F8F00BFFDE700ED00E09A
:106580000400FA0508B538B10720FFF7B5FF07206A
:10659000BDE80840FFF7C0BF0720FFF7ADFF0720A9
:1065A000BDE80840FFF7C8BF10B54FF0A0431A4C34
:1065B000D3F810359B0E03F00102D1B210B9207848
:1065C000904228D003F0010381F00100237006F00F
:1065D00037FA207806F028FA4A20FFF7ADFF237833
:1065E000CBB14A20FFF798FF6420FFF777FF4A20DE
:1065F000FFF7A2FF6420FFF771FF4A20FFF78CFF2F
:106600006420FFF76BFF4A20FFF796FF6420BDE888
:106610001040FFF763BF10BDF2C1002008B507208E
:10662000FFF76AFF4A20FFF767FF5020FFF756FF8A
:106630000120BDE80840FFF7B7BF08B506F0FAF93A
:1066400020B106F0EBF908B905F078FEBDE8084086
:1066500003F0E0BC0020FFF795BF08B5FFF7DEFFB1
:1066600006F000FAFFF73AFE0020BDE8084001F00E
:1066700035B808B5FFF748FEFFF7D6FE01F0A6FAD9
:10668000BDE80840FFF7D9BF0378032B02D03520BF
:1066900002F004BB7047000010B5074C0023A37044
:1066A00003F0C6FB40F00101A180206889B2BDE87B
:1066B000104002F00DBA00BF70BC002010B5074CAE
:1066C0000023A37003F0B4FB40F00101A180206817
:1066D00089B2BDE8104002F0FBB900BF76BC0020D3
:1066E00010B504460078032806D103F009F92046C6
:1066F000BDE8104002F05AB83520BDE8104002F065
:10670000FCB9000070B504F061FA41F2680404FBC2
:1067100000F340F6E4450C4A93FBF5F318210B48CF
:1067200013F0D0FC04F052FA12236043084A90FBA5
:10673000F5F01821A0F51660BDE8704090FBF3F36A
:10674000044813F0BFBC00BFFFB003005CE40020AE
:106750000DB103008CE4002037B506F06BF90B4D4A
:106760000B4C002808BF2C4606F058F9094B0A4A82
:10677000002814BF184628460090234618210748D1
:1067800013F0A0FC054803B030BD00BF94CB03005C
:10679000D3B00300D6B00300D9B0030014E4002046
:1067A00010B5FFF7E9FD044A034618210348BDE888
:1067B000104013F087BC00BF18B10300E4E30020D1
:1067C00007B50A4B0A4A1B780A4813F0010F4FEA33
:1067D000530300934FF01801074B18BF1346074AA5
:1067E00013F070FC034803B05DF804FBACE6002036
:1067F000E4B003002CE40020E8B00300ECB0030098
:1068000030B585B004460D4601F0C6F845F6C043E4
:106810009C42AB784AD01CD8392C2BD0AB7833B102
:10682000FFF770FF2046FFF7D3FDFFF7B9FFA4F590
:10683000B9425B3AAB78132A47D8DFE802F0424E00
:10684000535B6349707070707070827A7A7A7A7A6A
:106850007A8F45F6F04294421ED045F6F5429442B6
:10686000DCD1002BDAD0A92002F047F9A92002F0F0
:1068700015FAD3E7002BD1D03B4B3C4A18784FF4A4
:10688000806120B100201870C2F80C15C6E7012005
:106890001870C2F80815C1E7002BBFD00120FFF720
:1068A00071FE01F0C5F901F0EBFCB7E7002BB5D0A4
:1068B0002F4B1B78DB074CBF00200120FFF762FE47
:1068C000ACE713B1002000F010FA012005B030BD94
:1068D000002BFAD004F06EF8F7E7002BF5D005F0A6
:1068E000EBFFF2E7002BF0D006F0B0F8214B0022CE
:1068F0001A70F4E7002BE8D006F0B4F81D4B012223
:106900001A70E2E7002BE0D006F088F820B106F01C
:10691000A9F805F013FDD8E706F098F8D5E7002BA5
:10692000D3D006F093F804F11F00C0B206F00CF8C3
:10693000CBE7002BC9D004F11800C0B204F050F826
:10694000C3E7002BC1D004F041F90B490246684669
:1069500013F0ECFB684600F0C5F9B6E7002BB4D0A5
:10696000FFF7FAFDB1E700BFF4C1002000030050BB
:10697000ACE60020F3C10020CDB00300002070473A
:1069800008B52E4B186803F093F9042846D8DFE8C1
:1069900000F0030335172600FFF76CFD002100F01F
:1069A000F3FFFFF7D9FE002100F0EEFF002124489D
:1069B00000F0EAFF23480021BDE8084000F0E4BFF2
:1069C0000021214800F0E0FF0021204800F0DCFF1A
:1069D00000211F4800F0D8FF00211E48ECE70021ED
:1069E0001D4800F0D1FF00211C4800F0CDFF002120
:1069F0001B4800F0C9FF00211A48DDE700211A48B2
:106A000000F0C2FFFFF7DCFE002100F0BDFF002117
:106A1000164800F0B9FF00211548CDE700211548C0
:106A200000F0B2FF00210B4800F0AEFF0021124839
:106A300000F0AAFF00211148BEE700BFF4C2002009
:106A4000E4E300208CE40020FCAF030011B003005D
:106A500025B003002DB003003BB0030050B003008D
:106A60005AB0030068B0030077B003008CB0030095
:106A7000A1B00300B6B00300C3B00300C8B0030068
:106A800038B5354B18680C4603F012F9012832D09E
:106A900002D302283DD038BD0123BCB12F4CA370D6
:106AA00003F0C6F940F00101A180206889B202F02C
:106AB0000FF82B4A2B48002108F0CAF92A48002277
:106AC00040F28F21BDE8384008F0D4B9274DAB70B3
:106AD00003F0AEF940F00101A980286889B201F005
:106AE000F7FF234A2348214608F0B2F9224640F234
:106AF0008F212148E6E73CB14B2000F083F84B2082
:106B0000BDE8384000F094B84E2000F07BF84E20ED
:106B1000F6E702F0F5FF420708D51CB1BDE83840A2
:106B200001F04EBBBDE8384001F036BB02F0E8FF93
:106B3000C30708D51CB1BDE8384001F017BBBDE85C
:106B4000384001F0FFBA1CB1BDE8384001F0E4BAAA
:106B5000BDE8384001F0CEBAF4C2002076BC002077
:106B6000BD660200F4AF0300F8C1002070BC002035
:106B700099660200F8AF030018C2002008B500F0C3
:106B8000070301209840C0B202F0DCFFBDE80840D6
:106B900003F028B8FFF7F2BF08B500F007030120A3
:106BA0009840C0B202F0D6FFBDE8084003F01AB822
:106BB000FFF7F2BFA0F58073B3F5F85F70B5054637
:106BC0000C4612D2E80501D5E0208847A90501D579
:106BD000E120A0476A0501D5E220A0472B0501D599
:106BE000E320A047B5F5805F00D270BDE420A04748
:106BF000E520A047E620A0472346E720BDE87040F7
:106C000018470000A0F1E003072B10B5044600D997
:106C100040B905492046FFF7CDFFE0B2BDE810407E
:106C200001F06BBF0149F6E7956B02007D6B020036
:106C300010B50446C0B202F031F8A4F1E003072B0E
:106C400000D92CB903492046BDE81040FFF7B2BF78
:106C50000149F8E7B16B0200996B0200012070470F
:106C600008B5FFF7CDFD08BD10B50C4B1C5C0C4BF7
:106C7000C35C6BB1E12001F040FF204601F03DFF15
:106C8000204602F00BF8E120BDE8104002F006B803
:106C9000204601F032FF2046F6E700BF20B1030096
:106CA000A0B1030038B504462078D0B1012804F122
:106CB000010507D16478204601F01FFF204601F04E
:106CC000EDFF04E0022804D1607801F016FF6C1C8F
:106CD000EAE7032801D16078F1E7FFF7C5FF254611
:106CE000F5E738BD0021FFF7DDBF10B50124844072
:106CF000E0B203F023F82046BDE8104002F0CBBD1F
:106D000003F066BC08B501F0EFFDBDE8084003F0F4
:106D100063BC704708B5FFF7FCFF08BD08B5FFF777
:106D2000F9FF08BD704708B502F04EFAFFF7FAFF09
:106D3000BDE80840FFF710BC37B50388ADF8043054
:106D4000C24B1B780546F3B983780198BBB102F0BA
:106D500055FE04460146019802F00CFE01992046BA
:106D600000F05AFA2946044601F046FD294620461D
:106D7000FFF776FF60B90024204603B030BD02F073
:106D80001DFE0446EAE7019802F038FE0199E7E7A4
:106D90002946204601F064FD0028ECD02946204613
:106DA00000F04EFC0028E6D045F6C8439C4200F0B7
:106DB000018151D845F6C1439C4200F0D08029D8CA
:106DC00045F614439C4216D845F602439C4280F097
:106DD0005081B4F5B84F00F0B18045F601439C42B4
:106DE00000F0B3809A4B01221A705A702846FFF7C0
:106DF00035FF0446C0E745F615439C4200F0E681A6
:106E000045F6C0439C42EDD1AB78002BB3D001F0E6
:106E100041FAB0E745F6C4439C4200F0B8800ED872
:106E200045F6C2439C4200F0A68045F6C3439C420F
:106E3000D8D1AB78002B9ED001F05CF99BE745F6EA
:106E4000C6439C42AA7800F0AF8040F2A780002A97
:106E500091D001F0A1F98EE745F6CF439C4200F0B6
:106E6000D9802AD845F6CB439C4200F0B1800FD898
:106E700045F6C9439C4200F0A48045F6CA439C42B3
:106E8000B0D1AB78002B3FF476AF00F0F7FE72E79D
:106E900045F6CD439C42AA7800F0AF8040F2A08036
:106EA000002A3FF468AF00F0D5FE082803D900F0AF
:106EB000D1FE0D2868D909208FE045F6D3439C42C6
:106EC00000F0D18014D845F6D1439C42AA7800F056
:106ED000C58040F2AD80002A3FF44DAF00F0BAFE0D
:106EE000182803D900F0B6FE21284DD9192074E0E6
:106EF00045F6D5439C42564B00F04C81C0F02C81A6
:106F000045F6D64294427FF46DAFAA78002A40F04D
:106F100043815C78002C40F055814E4B588802F03C
:106F200093FFC72800F24E81202001F01DFF28208A
:106F300001F0E3FD282001F0B1FE1DE7AB78002B46
:106F40003FF419AFFFF7EFFE15E7AB78002B3FF4E6
:106F500012AF414A137843F0010313700BE7AB788B
:106F6000002B3FF408AF02F0CBFD10F0220F0BD046
:106F700001F080F9FFE6AB78002B3FF4FCAE02F0A5
:106F8000BFFD10F0220FF3D001F060F9F3E6AB780B
:106F9000002B3FF4F0AE01F0BFF8ECE6002A3FF41E
:106FA000EAAE01F0CFF8E6E6002A3FF4E4AE01F0E5
:106FB000DDF8E0E6AB78002B3FF4DDAE01F000F940
:106FC000D9E6AB78002B3FF4D6AE00F04DFED2E60A
:106FD000AB78002B3FF4CFAE012001F04EF9CAE6AA
:106FE000002A3FF4C8AE00F035FE012803D900F0B6
:106FF00031FE0428C8D90220EFE7002A3FF4BBAED7
:1070000000F028FE052803D900F024FE0728BBD98C
:107010000620E2E7AB78002B3FF4ADAE00F01AFE9D
:107020000E2803D900F016FE1328ADD90F20D4E79F
:10703000002A3FF4A0AE00F00DFE142803D900F0A2
:1070400009FE1628A0D91520C7E700BFA4C200205A
:107050003EC200203AC2002037C30020002A3FF47D
:107060008AAE1820B9E7AB78002B3FF484AE23201A
:10707000B3E7AB78002B3FF4B9AE02F04FFE08B98E
:1070800002F030FE02F05EFEA4F5B8445D4B033C16
:107090001880112C0AD8DFE804F013171B1F2327D0
:1070A0002B2F33373B3F43474B4F53571A7842F010
:1070B00001021A70187802F048FE02F085F85AE6CC
:1070C0001A7842F00202F4E71A7842F00402F0E77C
:1070D0001A7842F00802ECE71A7842F01002E8E76A
:1070E0001A7842F02002E4E71A7842F04002E0E722
:1070F0001A7842F08002DCE71A7842F00C02D8E7F6
:107100001A786FF30002D4E71A786FF34102D0E7E0
:107110001A786FF38202CCE71A786FF3C302C8E7DC
:107120001A786FF30412C4E71A786FF34512C0E7B8
:107130001A786FF38612BCE71A786FF3C712B8E7B4
:107140001A7802F0FB02E8E71A78C2F3C01181F066
:10715000010161F3C712ACE7AC784CB100241C709C
:1071600002F066FE284B1880022001F0F4FD03E6D1
:107170001B785BB9244B188802F066FEC72805D837
:10718000262001F0BAFC262001F088FD022001F043
:10719000EBFDF1E5AA783AB100245C7002F048FEFC
:1071A000194B58802020E0E75B785BB9164B588874
:1071B00002F04AFEC72805D8272001F09EFC2720B0
:1071C00001F06CFD202001F0CFFDD4E502F098FC29
:1071D000AA780E4B6AB100F0AA00002815BF012260
:1071E0000022352029201A7002F05AFC02F0FAFC25
:1071F000C1E51B78002B14BF3520292002F058FC74
:10720000F4E700BF80E700203AC2002038C2002027
:107210000020704770470000C1F30723C3EB03123F
:107220004B2303FB002050FA81F0034B33F810008E
:1072300082B002B0704700BF06AD0300014B33F8C7
:107240001000704720B2030013B5ADF80410019987
:10725000FFF7E2FF00F056F9B0F5A04F04462FD239
:10726000B0F5804F80F0D480E72816D8E0287BD294
:10727000A72808D8A5286DD2012875D001D30428E5
:1072800072D2002470E0BE2871D9C028F9D3C0386A
:1072900080B2FFF7D3FF044666E0B0F5005F08D286
:1072A000B0F5807F03D2F028EBD340F4A044A4B221
:1072B0005AE0B0F5405F80F0A380C0F30B00E8E730
:1072C000B0F5AA4F1ED2B0F5A84FC3B280F0BF8070
:1072D000B0F5A44F08D2B0F5A24FC0F09E804AF29C
:1072E000F10040EA03243FE0B0F5A64F80F0A5800E
:1072F0009808012403F003039C4044EA401444F43A
:107300000C44D4E7B0F5B24F0FD2B0F5B04F80F0D7
:10731000A380B0F5AC4FB4D2C0B200F05FF9040264
:1073200004F4F85444F400541EE0B0F5B44FC0F037
:107330009880A0F5C043B3F5005FA2D2C0F304204B
:1073400000F04CF9E4B2000200F4F85044F40054A8
:10735000044309E000F0908044F2820244F2830387
:10736000A6280CBF14461C46204602B010BDA82813
:1073700000F08580A92800F08580AA2800F085808B
:10738000AB2800F08580AC2800F08580BB2800F099
:107390008580BC2800F08580AD2800F08580B0286D
:1073A00000F08580AE2800F08580AF2800F0858051
:1073B000B12800F08580B22800F08580B32800F065
:1073C0008580B42800F08580B52800F08580B62837
:1073D00000F08580B72800F08580B82800F085800F
:1073E000B92800F08580BD2800F08580BE2800F017
:1073F0008580BA2844F22A6418BF4FF48844B3E762
:10740000C3B202054CBF43F4484443F44044ABE7E5
:10741000C0F30B0444F42044A6E703F00302012464
:107420009440C0F3011044F40C4444EA0024C3F334
:10743000810344EA43139CB296E79808012403F0C1
:1074400003039C4044EA401444F40A442FE74AF200
:10745000F40444EA032487E74AF2F00040EA0424F3
:1074600025E700F00F0000F0B9F8C4F3031440EA78
:10747000042444F410441AE744F2810474E744F20B
:10748000E24471E744F2E9446EE744F2EA446BE710
:1074900044F2B54468E744F2B64465E744F2B344C5
:1074A00062E744F2B4445FE744F2B7445CE744F275
:1074B000CC4459E744F2CD4456E744F2835453E7B1
:1074C00044F28A5450E744F292544DE744F2945403
:1074D0004AE744F2216447E744F2236444E744F274
:1074E000246441E744F225643EE744F226643BE726
:1074F00044F2276438E744F26F4435E744F27044BD
:1075000032E7000082281AD00CD8312854D004D891
:1075100029284AD02A2856D0704735283ED0392805
:107520000DD07047E32823D004D8E0280ED0E228FD
:1075300013D07047E62822D0E72829D07047264B81
:107540001B7813F0030F18BFE0207047224B1B7805
:1075500013F0010F18BF392070471F4B1B785907D4
:107560001BD513F0100F08BFE32018BF0020704791
:10757000194B1B785A072DD413F0100FF5E7164B53
:107580001B78190709D513F0100F08BFE720ECE7A7
:10759000114B1B781A07EFD5E62070470E4B1B786E
:1075A00013F0200F18BF292070470B4B1B7813F0E6
:1075B000200F18BF35207047074B1B7813F0400F82
:1075C00018BF2A207047044B1B7813F0400F18BFD8
:1075D00031207047E220704780E70020164B1B786F
:1075E000590707D500F01802082A12D100F0F70059
:1075F00040F004001A0707D500F01802182A11D12C
:1076000000F0E70040F01400DB0648BF00F0E700A0
:10761000704700F01402042A04BF00F0FB0040F0A1
:107620000800E7E700F01402142A04BF00F0EB00A2
:1076300040F01800E8E700BF80E700207047000036
:1076400070B58B78054613B90124204670BD144EE1
:107650003478A4B945F616439842F5D1FFF7EEFF0A
:107660000123337002F0E4FB0E4B18800E4B1C70AC
:107670000E4B1C805C809C80DC801C81E5E7094B04
:10768000188802F0E1FBB0F5967FDDD2064A074983
:10769000137821F81350013313700024D5E700BF8D
:1076A0004EC200204CC200204AC2002040C200202E
:1076B00010B5074C4FF400720021204612F0FAFC7E
:1076C000044B1C60044B4FF6FF721A8010BD00BFC4
:1076D000A4E40020A8E6002050C20020F0B585B048
:1076E000FFF74CF9334D344B287010F0010F0CBFED
:1076F000802220221A7003F0D9F9304B6A4603F138
:107700000807164618685968144603C40833BB4274
:107710002246F7D118681B79206023710D2264235B
:1077200031463C2003F0DEF950B1254B254918883D
:10773000000440F0030006F0C1FF002005B0F0BDDA
:10774000287810F002054FF064034FF0030209D1CE
:107750001D493C2003F0C6F970B1194B1B4918882C
:107760000004E6E71A493C2003F0BCF920B1144BB1
:10777000184918880004DCE764230D2216493C20D0
:1077800003F0B0F9044620B10D4B144918880004E9
:10779000CFE702F053FB124B00F56A4060301860EF
:1077A000FFF786FF0F4B012018700F4B18700F4B1F
:1077B0001C70C3E753C2002054C2002020B2030053
:1077C00070C100206DB703009FBC002089B7030083
:1077D0009CBC0020AFB70300A2BC0020C7B70300C9
:1077E000A4E6002052C200204FC2002055C2002053
:1077F000084B00EB40001B78400003FB010189B2FD
:10780000B1F5007F044B28BF00211944034B1960D8
:10781000704700BF54C20020A4E40020A8E6002066
:1078200010B50C480C490268531A0C4A06331278FA
:107830009BB293FBF2F402FB1434121BD2B2052A62
:107840009CBF9B189BB2B3F5007F28BF00230B445D
:10785000036010BDA8E60020A4E4002054C200206C
:1078600070B5204C05460E46062221681E4812F0CF
:1078700016FCDF2D0FD906220021206812F01AFC19
:107880009EB906222168184812F0FAFBB0B9BDE88B
:107890007040FFF7C5BF1549206805EB4505062276
:1078A00001EB450112F0FBFBEAE72368991D9942C1
:1078B000E7D01A78D24303F8012BF8E723680C4A83
:1078C0000C489B1AC3F34A129BB201210488063369
:1078D00001FA02F25B09224301FA03F31343038026
:1078E000D5E700BFA8E6002056C200202DB2030055
:1078F000A4E4002050C2002070B5134E134B316831
:10790000134C1A78091B8DB295FBF2F302FB13534B
:10791000D31ADBB260B10624B3FBF4F4631EDCB20D
:10792000FF2C00D170BD00212020FFF799FFF5E763
:107930001D44B5F5007FAABF034689B21946194414
:1079400021443160EEE700BFA8E6002054C20020C9
:10795000A4E400200A2802D10120FFF7CDBF0D28A2
:1079600001D10020F9E7FFF77BBF70B504460E4652
:1079700012F0FCFB2518AC4200D370BD314614F860
:10798000010BFFF7E7FFF6E708B5FFF7EEFF012071
:10799000BDE80840FFF7B0BF37B502F04FFA114B12
:1079A000114C00F56A40603018604FF42F43ADF879
:1079B0000430237825469BB96423022201A93C2088
:1079C00003F090F850B1094B09491888000440F0C1
:1079D000030006F073FE207803B030BD012323704E
:1079E0002878F9E7A4E600204FC2002070C10020EB
:1079F000F3B703002DE9F74F554C2288002A00F019
:107A0000A380544B1B78002B40F09E80DDB242FADD
:107A100005F1C90703F10103F8D54F4E337813F090
:107A200001024E4B1BD1680100F060019970C00942
:107A30001F315871D9709A714849642307223C203C
:107A400003F050F8804698B1454B46491888000429
:107A500040F0030003B0BDE8F04F06F02FBEEA008F
:107A6000D2B29A7000210732DA7059710322E2E72C
:107A70003378DB074FEA45170FD43B4A6423009362
:107A80003A44202340213C2003F05AF8002853D0E8
:107A9000334B364918880004DAE70146202234487F
:107AA00012F008FB4046334B10F803C02E4BBC4489
:107AB0009C44314BC25C2E4B013A1A4400260123F0
:107AC000C6F1070A03FA06FB12F8019F5FFA8AFA69
:107AD0005FFA8BFB4FF0000E1CF80E10AAEB0E03A2
:107AE0000BEA010103F0070301FA03F85B4203F01C
:107AF000070321FA03F348EA03030EF1010E49EAF2
:107B00000303BEF1080F5FFA83F9E5D10136082EB1
:107B100082F80090D3D101300428C4D164230093AB
:107B2000134A202340213C2003F00AF820B10C4BDB
:107B30001249188800048BE7FFF72EFF0123AB40A2
:107B4000258825EA0305258003B0BDE8F08F00BF36
:107B500050C2002055C2002053C20020AFBC0020FC
:107B600070C1002007B80300A4E400202AB8030075
:107B70005CC200205EB8030062B8030043B8030093
:107B800037B50F4C4FF42E43ADF80430237825461B
:107B900093B16423022201A93C2002F0A3FF50B15B
:107BA000084B09491888000440F0030006F086FDE0
:107BB000207803B030BD2070287880F00100F8E70D
:107BC0004FC2002070C10020DEB7030008B50C4B87
:107BD0001B78A3B100210846FFF70AFEFEF7D0FE8E
:107BE000FFF708FF074B1B784BB102F027F9064B54
:107BF0001B68984203D9BDE80840FFF7C1BF08BD24
:107C000052C200204FC20020A4E6002070470000AE
:107C1000064A137813F0FE0F04D1012161F34703E4
:107C200013707047492BFCD92421F7E7ACE60020FC
:107C3000074B1A78012142F0010261F347021A70E2
:107C4000FF2100225A709970D9701A71704700BFD5
:107C5000ACE60020034B1B7813F0010018BF580856
:107C6000704700BFACE60020034A1379022B9CBF8B
:107C700001331371704700BFACE60020024A13794C
:107C80000BB1013B13717047ACE6002030B4124BCE
:107C900012481978124B1B7813F0010307D0114BCF
:107CA0001B7803EB4303184430BC00F067BD0E4A59
:107CB0000E4C1278257802EB42040444954204F1FC
:107CC0000304ECD9013204F8023C04F8033C04F844
:107CD000013CD2B2F2E700BFB6BC0020B4E60020FF
:107CE000ACE6002082C2002083C20020B7BC002086
:107CF00070B40F4B1B78DB0717D50E4B0E4C1B785F
:107D00000E4E257803EB43043444AB4204F10304E4
:107D100002D370BCFFF7BABF013304F8020C04F8B9
:107D2000031C04F8012CDBB2EFE770BC704700BF06
:107D3000ACE6002083C20020B7BC0020B4E60020DF
:107D4000044B1A786FF300021A70034B00225A702A
:107D5000FFF79CBFACE6002088C2002008B5084BA6
:107D6000084819780B22490812F03AF910B9064B65
:107D700001225A7002F05CF8044B188008BD00BF65
:107D8000ACE60020BBBC002088C200207CC20020E2
:107D90002DE9F0412C4B5A78002A53D01A782B4BFE
:107DA0002B4E1B78C2EB5303DBB2022AB37019D1FE
:107DB000284A294DD45CF3783BB10027F77002F0D4
:107DC00037F8E34318443080B780308802F03CF83D
:107DD000A04237D333881E481C4434802B46BDE86C
:107DE000F0411847062A03D11C4A1D4DD45CE2E736
:107DF000092A04D15B081B4A1B4DD45CDBE70F2A20
:107E000004D15B08194A1A4DD45CD4E7152A03D172
:107E1000184A194DD45CCEE7182A0FD0232A03D173
:107E2000164B174D1C88C6E7164B174D242A12BF58
:107E30004FF4FA644FF4FA741D46BCE74FF47A74B9
:107E4000124DB8E7BDE8F08188C20020ACE6002002
:107E50007CC2002066B80300B57F020072B8030040
:107E6000D97F020075B80300F58202007AB80300DA
:107E7000658302006FB803003184020078B8030004
:107E800071850200D18502000D7C02000985020087
:107E900030B585B0C0F307220190304BC0F30740E6
:107EA000195CA2B98DF80C108DF80D108DF80E101C
:107EB0009DF80C30002063F307009DF80D3063F34C
:107EC0000F209DF80E3063F3174005B030BD9DF8CC
:107ED00004306FF0540503EB4304FF20640094FB6F
:107EE000F0F4654305EB430505EB4505EDB212FBE8
:107EF00005F3C5F1FF05801A6A431B121212C3F184
:107F0000FF03C2F1FF0248434B434A43C0F307203B
:107F1000C3F30723C2F30722062C1AD8DFE804F0C4
:107F200004060D10141904000B4611468DF80C3090
:107F30008DF80D108DF80E00BAE703461046F5E7F0
:107F40001A4603460846F0E70B4601461846134614
:107F5000ECE71A460B460146F0E700BFAEB9030056
:107F600013B58DF802208DF800008DF801100098EF
:107F70001C46FFF78DFFC0F30722C0F30743607074
:107F80002270A37002B010BD07B5094B1B78DB0748
:107F90000AD501ABFFF7E4FF9DF806209DF8041019
:107FA0009DF80500FFF7A4FE03B05DF804FB00BFD9
:107FB000ACE6002010B5064B0279064904468A5CFF
:107FC00058789978FFF7E0FF23790133237110BDCA
:107FD000ACE60020A2B8030010B5054B0446DA78E1
:107FE00099780079FFF7D0FF23790133237110BD11
:107FF000ACE600202DE9F04F304C94F800C01CF0A6
:10800000010F85B00546884616461BD04FEA5C0333
:108010002B4FDFF8B8E0FF5C8EF800700CF0FE0C20
:10802000BCF1020F11D103ABFFF79AFF9DF80E20B0
:108030009DF80C109DF80D00FFF75AFE657084F84E
:108040000280E67005B0BDE8F08F022F01D1E6781E
:10805000F4E7062F01D16578F0E7092FFBD0192F3F
:10806000ECD1193BDBB203F0010201925B08154A27
:10807000DFF85CA012F80390DFF858B00027124B2D
:108080001A78FBB29A4202D8FFF700FED6E703FB4C
:1080900009F090FBF2F0019AC0B26AB928449AF84C
:1080A0000020134403EB4303C0B25B443246414615
:1080B000FFF756FF0137E2E7281AF0E7ACE60020A9
:1080C0007DB803006AB80300B8BC002088C2002055
:1080D00083C20020B4E6002010B405494C78CA7869
:1080E000897808340346E0B25DF8044BFFF782BF9D
:1080F000ACE600200120FFF7EFBF000010B40549F7
:108100004C78CA788978083C0346E0B25DF8044BA5
:10811000FFF770BFACE600200120FFF7EFBF0000C3
:1081200010B4074CA178E2781131FF2928BFFF2154
:108130000346C9B260785DF8044BFFF75BBF00BF30
:10814000ACE600200120FFF7EBBF000010B4064CA6
:10815000A178E278113921EAE1710346C9B2607869
:108160005DF8044BFFF746BFACE600200120FFF7A7
:10817000EDBF000010B4074CE278A1781132FF2A5D
:1081800028BFFF220346D2B260785DF8044BFFF7A8
:1081900031BF00BFACE600200120FFF7EBBF0000BD
:1081A00010B4064CE278A178113A22EAE272034652
:1081B000D2B260785DF8044BFFF71CBFACE600203C
:1081C0000120FFF7EDBF0023FFF714BF10B5144CDB
:1081D0002378DA0722D5B8B9012262F34703237066
:1081E000217810480B22490811F0FAFE98B10E4B85
:1081F00000225A700D4BA17860780122DA70E27883
:10820000BDE81040FFF7DFBF242801D92422E4E7AE
:1082100060F34703E3E7FFF7A1FDEBE710BD00BF05
:10822000ACE60020BBBC002088C200207CC200203D
:10823000054B1B78C3F346030133252B014634BF9E
:1082400018460120FFF7C2BFACE600200120FFF76F
:10825000EFBF0000064B1B78C3F34603013B13F04E
:10826000FF03014614BF18462420FFF7AFBF00BF2D
:10827000ACE600200120FFF7EDBF0121FFF7A6BF0C
:10828000034B187840F0010018704008FFF7F5BF65
:10829000ACE60020034B1B78DB0701D5FFF750BD90
:1082A000FFF7EEBFACE600200021FFF78FBF000014
:1082B00038B50C4D2C78A4B90B4A137843F0010360
:1082C000137001F02BFD09480460FFF7A1FC084B77
:1082D00000785C70C30702D54008FFF7E5FF012373
:1082E0002B7038BD84C2002037C30020ACE60020CC
:1082F00088C200202DE9F041164E174FDFF85C8050
:10830000044600253178EAB2914205F101050CD806
:10831000FFF7BCFCA37813F0010F237914BF0133DE
:1083200003F1FF332371BDE8F0813B78DFF830C003
:10833000FF2090FBF1F02179134400FB021003EBC6
:10834000430343449CF803209CF80210C0B2FFF79B
:1083500007FED7E7B8BC002083C20020B4E60020A7
:10836000ACE600202DE9F04F83782C4FDFF8BCA05D
:1083700013F0010F85B00CBF01234FF0FF330293C0
:108380004FF000093B7801935FFA89F84345244D8B
:108390000CD8FFF77BFC029B012B2B7837D103B95C
:1083A0003B78013B2B7005B0BDE8F08F1D4B1E4A9A
:1083B0001B78434403EB430303EB020B00248BF8CD
:1083C00001409C549DF808308BF80240039304262A
:1083D0002B782344DBB25AB2002ABEBF019A9B1805
:1083E0005AB290450BD19AF803209AF802109AF8E5
:1083F000010072435B46C2F38702FFF7B1FD039BA6
:10840000013E1C44E4B2E3D109F10109BAE739782D
:10841000013393FBF1F201FB1233C3E7B8BC002038
:1084200087C2002083C20020B4E60020ACE6002012
:108430002DE9F8432C4D2D4A2B782D4C107803EB69
:10844000430222440021984202F1030222D8DFF8BD
:10845000B480284EDFF8A090002798F80010FAB2F8
:10846000914220D8FFF712FC234C2448227801784F
:1084700033780A4452B20B445BB2002A3370227044
:1084800004DD98F80020013A934201DB4942017073
:10849000BDE8F883013302F8021C02F8031C02F85D
:1084A000011CDBB2CFE792FBF1F301FB1323297828
:1084B0000B4496F90010DBB28A4203EB43030CDB5A
:1084C00099F900108A4208DC0D482344C27881786B
:1084D0004078FFF745FD0137BFE7E11800224A70F9
:1084E000E2548A70F7E700BF83C20020B7BC0020C7
:1084F000B4E6002085C20020B9BC0020BABC002030
:10850000ACE60020B8BC00202DE9F0418388144E71
:10851000144FDFF85880013303F0010305468380D0
:1085200000243378E2B2934204F1010403D8BDE899
:10853000F041FFF7ABBBA8883B780B4900EB52003A
:1085400000F0010013448200104403EB430300EBEE
:108550000010CA7889784344C0B2FFF701FDE0E714
:10856000B8BC002083C20020ACE60020B4E60020A6
:1085700037B5164C0546207838B9FF2201AB1146B5
:10858000FFF7EEFC9DF8053023702B79012B09D005
:1085900004D3022B16D00022104601E020780022DE
:1085A000114602E0002221781046FFF7A1FB2B794B
:1085B0000322013393FBF2F202EB42029B1A2B716E
:1085C00003B030BD002022780146EEE786C20020CD
:1085D0002DE9F041164E174FDFF860800546002464
:1085E00096F800C0A44508DCFFF750FB2B79013357
:1085F00003F001032B71BDE8F0813B780E4A95F83A
:1086000004E050789178234403EB4303B4EB5C0F10
:10861000434407DABEF1000F07D0D278FFF7A0FC81
:108620000134DDE7BEF1000FF7D00022F6E700BF0E
:10863000B8BC002083C20020ACE60020B4E60020D5
:10864000704700002DE9F043DFF82C81ADF5C45DE3
:1086500098F8003081B006460C4604ADB3B9434FDC
:10866000386879682B4603C3B8681860FF238DF813
:1086700010206B70AB70EB703D4A3E4814232946C6
:108680002B8109F03BFD012388F8003004EB440303
:10869000DB0003F5C163ADF804300023CDE90233FC
:1086A000304600952946802648F20C0748F2060C11
:1086B0009C4224DC302101FB045101F5406348F267
:1086C000060001F1300221F8020B8A42FBD19342ED
:1086D0001146F6D14FF400421A805A809A80DA800F
:1086E0001A815A819A81DA8101231A466946214802
:1086F00009F0C8FD0DF5C45D01B0BDE8F08390F848
:108700000080002246FA02FE1EEA080F14BFBE4691
:10871000E64621F812E00132082AF3D190F80190E0
:1087200001F1100E002246FA02F818EA090F02F1D0
:10873000010214BFB846E046082A2EF8028BF2D197
:1087400090F8029001F1200E002246FA02F818EA91
:10875000090F02F1010214BFB846E046082A2EF8BC
:10876000028BF2D1013303303031A1E7A2B903000B
:1087700041860200C8BC00208AC200200922FFF7FF
:1087800061BF10B5012304468375407B01F0BEF93B
:10879000A07B01F0D7F901F025FA6368E16904F1E3
:1087A0000C0013B1BDE81040184710BD70B5437AF6
:1087B0000646DBB98488A4F5AE4465010C4C621909
:1087C00005F10C00D1699268204402B190472C4415
:1087D000607B01F0A3F9A07B01F0BCF901F002FA83
:1087E000044A002333703372B372138070BD00BF2C
:1087F0007CBC00208CC200202DE9F8438B78074612
:1088000073B1144E96F90020013209D0124CDFF8F2
:108810004C9000254FF0010896F90030AB4201DA88
:10882000BDE8F883237B8BB1238ABB4203D1B9F81F
:108830000030BB420AD0A37D84F8148013B92046CF
:10884000FFF79FFF04F10C00FFF7B0FF0135203464
:10885000E2E700BFD0BC00207CBC00208CC200201E
:10886000F8B5A0F5AE44FF2C074629D81B4B1C4E8B
:1088700093F90000A4B222B29042B8BF1C70640108
:1088800035198B786B758A782B7BDAB101332B73B2
:108890002F8201F0CDFA688201F080F9687301F04F
:1088A0002FF9A87301F048F9AB7BE9691843A87365
:1088B000335904F10C00304403B19847094B1F8031
:1088C0000120F8BD002BFBD0AB7D002BF8D004F1CC
:1088D0000C003044FFF76AFFF2E700BFD0BC002075
:1088E0007CBC00208CC200202DE9F843154B93F985
:1088F00000200132994620D1BDE8F883640108EBDD
:1089000004052E8B2B7B002E08BFC82673B1688A06
:1089100001F09AFAB04209D9AB7D13B92846FFF7A6
:1089200030FF04F10C004044FFF740FF013799F994
:108930000030FCB29C42E1DDDEE70027DFF8088072
:10894000F5E700BFD0BC00207CBC0020014B1860C4
:10895000704700BF90C20020024B186808B103683E
:108960001847704790C20020024B1B680BB15B6830
:108970001847704790C20020024B1B680BB19B68E0
:108980001847704790C20020054B1988814205D0D6
:108990001880044B1B680BB1DB681847704700BF99
:1089A00096C2002090C20020054B1988814205D054
:1089B0001880044B1B680BB11B691847704700BF38
:1089C00094C2002090C200200120704708B501F039
:1089D0001FFA01F047FE01F0B3FBFFF769FCFDF75A
:1089E00039FE08BD2DE9FF4701F092FFFFF7ECFFCC
:1089F000002850D0334EDFF8D490002437465FFA79
:108A000084F8404601F0ECFD36F814508542824669
:108A10003ED099F80030980701D501F0E7FD85EACE
:108A20000A050023ADB245FA03F1C907DAB22CD525
:108A300001259D401AEA050F14BF012300238DF87C
:108A400000208DF802308DF8018001F0F1F940F03E
:108A500001006B46ADF8040093E8030000F038F81D
:108A600037F814306B4027F81430174C01F0F0FC45
:108A7000FFF772FF2378834220D0FFF76DFF20704D
:108A800004B0BDE8F047FEF749B901330F2BCAD156
:108A90000134052CB3D14FF6FF73ADF80830002335
:108AA0008DF80A3001F0C4F940F00100ADF80C0077
:108AB00004AB13E9030000F00BF8D6E704B0BDE8FF
:108AC000F08700BF9AC2002098C2002037C3002060
:108AD00084B06B4683E803000022ADF80E2093E8D3
:108AE000030004AB0290ADF80C1013E9030004B0CE
:108AF00000F012BE008800F0A3BF08B5002800F007
:108B0000CC80822810D1FFF727FF810700F1C580B4
:108B1000392000F0C5FF01F065F8392000F0C8FFEA
:108B2000BDE8084001F05EB883280BD1FFF714FFC1
:108B3000C20700F1B280532000F0B2FF01F052F8FA
:108B40005320EBE784280BD1FFF706FF430700F122
:108B5000A480472000F0A4FF01F044F84720DDE79F
:108B6000021FD2B2A02A02D800F09AFFD8E700F183
:108B70002002D2B2072A07D800F00703012098404C
:108B8000C0B200F0C3FFCBE700F15B02D2B2022A11
:108B90000BD8A52807D0A6280CBF82208320BDE8CB
:108BA0000840FFF7F1BE8120F9E700F15802D2B288
:108BB000162A6AD8A82832D0A92832D0AA2832D0BA
:108BC000AB2832D0AC2832D0BB2832D0BC2832D02F
:108BD000AD2832D0B02832D0AE2832D0AF2832D033
:108BE000B12833D0B22834D0B32835D0B42836D009
:108BF000B52837D0B62838D0B72839D0B8283AD0D9
:108C0000B9283BD0BD283CD0BE283CD0BA2840F281
:108C10002A2018BF0020BDE80840FFF7C5BEE220AB
:108C2000F9E7E920F7E7EA20F5E7B520F3E7B62012
:108C3000F1E7B320EFE7B420EDE7B720EBE7CC2076
:108C4000E9E7CD20E7E740F28310E4E74FF4C57091
:108C5000E1E74FF4C970DEE74FF4CA70DBE740F29A
:108C60002120D8E740F22320D5E74FF40970D2E75E
:108C700040F22520CFE740F22620CCE740F2272023
:108C8000C9E76F20C7E77020C5E7EF2805D901F0D5
:108C9000DFFABDE8084001F0CDBB08BD08B50028EB
:108CA00058D082280FD1FFF757FE810752D53920BF
:108CB00000F0F6FE00F096FF392000F0F9FEBDE866
:108CC000084000F08FBF83280AD1FFF745FEC20796
:108CD00040D5532000F0E4FE00F084FF5320ECE781
:108CE00084280AD1FFF738FE430733D5472000F028
:108CF000D7FE00F077FF4720DFE7021FD2B2A02A9D
:108D0000DBD900F12002D2B2072A07D800F007030E
:108D100001209840C0B200F001FFD0E700F15B02F3
:108D2000D2B2022A04D80020BDE80840FFF72CBECA
:108D300000F15802D2B2162A04D80020BDE808403B
:108D4000FFF732BEEF2805D901F0ECFABDE8084084
:108D500001F070BB08BD08B528B100F0D7FEBDE832
:108D6000084000F03FBF08BD08B528B100F0D6FEAE
:108D7000BDE8084000F036BF08BD00002DE9F8430B
:108D800090F80690857807460C464FEA19190DB100
:108D900000F0E8FE00F0AAFE804670B11DB304F1B9
:108DA0002003DBB2072B1ED9022000F069FF00F080
:108DB0009DFE80F001005FFA80F8C4F303360F2EA9
:108DC00040D8DFE816F0130013005A005A00A40040
:108DD000BD003F003F00F10049015B015B01B101B3
:108DE0003F003F00BA014FF00008E6E7C4F3072355
:108DF000C4F3032613F0F00F18BF3601E4B295B1A7
:108E000056B104F12003DBB2072B304600D93CB940
:108E100000F07CFE00F0E6FE2046FFF76EFE11E05B
:108E200000F090FEF6E72046FFF738FF56B104F158
:108E30002003DBB2072B304600D9DCB900F06EFE10
:108E400000F0D0FEB8F1000F00F07E8100F046FE89
:108E500010F0010040F07881B87000F037FE00F0AB
:108E60004FFD384600F074F900F030FEBDE8F843DD
:108E700000F050BD00F06EFEE2E7C4F3072303F0FC
:108E8000F003C4F30326202BE0B218BF360160B113
:108E900001282CD0ADB3B9F1000F2CD0BB79D90784
:108EA000BBD56FF30713BB7125E09DB1B9F1000F7E
:108EB00006D100F073FE3043C0B2FFF74CFFC1E7AC
:108EC000B9F1010FF5D100F069FE3043C0B200F0F6
:108ED00071FEB7E7B9F1000F05D100F077FE30461B
:108EE000FFF742FFAEE7B9F1010FABD0F5E725B1CF
:108EF000B9F1050FA6D83046DFE7B9F1040FA1D8C4
:108F0000EDE7B9F1000FEAD0FFF7C8FE9AE7C4F326
:108F100081232BB1012B0BD0083E032E61D991E7A1
:108F200025B1C4F30900FFF72FFD8BE72846FAE7C8
:108F300025B1C4F30900FFF737FD83E72846FAE7B8
:108F4000E0B2CDB1F5280DD0F62810D0F42804D128
:108F50007E4A136843F00103136001F079F901F0D0
:108F600069FA6FE7794A136843F00203F4E7774A36
:108F7000136843F00403EFE7F5280BD0F6280ED072
:108F8000F42804D1714A136823F00103136001F03F
:108F9000C9F9E4E76D4A136823F00203F6E76B4A68
:108FA000136823F00403F1E714F4407F27D1C5B917
:108FB000E206C4F3421048BF0F254FEA800048BFC5
:108FC000854004F00F03C4F3812448BFED43834080
:108FD000022C45EA03000CD00ED8012C06D000F07C
:108FE00065FCFFF7B9FCFDF799FE2BE700F056FC96
:108FF000F7E700F063FCF4E700F04DFCF1E7C4F3A1
:109000000122D3B2EDB102F00103002BE9D0C4F389
:109010004210830004F00F0000FA03F214F0100075
:109020001CBF0F209840C4F3812418BFC043022CFA
:1090300040EA02000AD00CD8012C04D000F088FCD1
:10904000CFE75B08E1E700F07BFCCAE700F088FCB3
:10905000C7E700F041FCC4E7E6B2C4F3032435B12E
:10906000204600F04DFC3046FFF775FEB9E730466C
:10907000FFF77AFE204600F04DFCB2E7E0B2A0F127
:10908000F003042B3DD8DFE803F00310161D260083
:1090900045B1B9F1040F3FF63FAFC4F3042000F02F
:1090A00045FC39E7B9F1050FF5E7C4F3042035B104
:1090B00000F026FC30E7C4F30420002DF8D000F0C7
:1090C00029FC29E725B1C4F3042000F014FC23E7B0
:1090D00000F00EFC20E74DB1C4F30424204600F05C
:1090E0000FFC0321204600F0B1FD15E7012000F040
:1090F000C7FDB9F1010F7FF60FAF022000F0C0FDF0
:109100000AE745B1B9F1000F02D0FFF7F6FC03E71B
:10911000C4F30420CCE7B9F1000F02D0FFF7BEFD85
:10912000FAE6C4F30420CAE7C4F30322E1B23846E6
:10913000FEF76EF800F05CFB84E6C4F30322E1B2B4
:109140003846FEF767F87DE6BDE8F8837CE7002047
:1091500037B583880288ADF804200446C3B1BDF852
:1091600004204FF6FF739A4212D0FDF7E5FD78B167
:109170002188A07800F070FC054600F0F9FB00F0B3
:1091800089FB2946204603B0BDE83040FFF7F6BD15
:1091900003B030BD08B500F0E5FC00F0F9FC00F0CC
:1091A00021FD01F0D3F901F045F90020FFF7ECFBB8
:1091B0000020BDE80840FFF7F7BB08B500F080FCD1
:1091C000BDE80840FFF7E6BF08B500F0AFFCBDE81A
:1091D0000840FFF7F2BFC0F303330E3303F00F0272
:1091E0000D2A0CD80123934013F4105FC1B217D19C
:1091F00040F20330184004D113F010030BD10020CB
:109200007047F02902D003D8E729F8D80120704729
:10921000F429F4D1FAE7E729F8D9F129F6D0704713
:10922000C0F3C020704707B5ADF80400019800F006
:1092300007FC03B05DF804EBFFF7CDBF82B002ABD3
:1092400003E9030002B0704782B002AB03E90300F8
:1092500002B0704770B5094B094E1C78094D337840
:10926000A34200D170BD05EBC40355F83400596822
:109270000134FFF7E9FF04F00704F0E7EFC2002034
:10928000EEC20020AEC20020024B18685968FFF7FA
:10929000DBBF00BFA6C200202DE9F341274A937926
:1092A00013F0F00F0CD1937853B1254BDFF898C031
:1092B0001978244D4FF6FF769CF800308B4202D18E
:1092C00002B0BDE8F0819388002B33D0177892F874
:1092D00001E08DF804708DF805E0BDF80400B0429F
:1092E00028D0C8002C1894F80180F04522D115F838
:1092F00031E0BE451ED1A778E7B9A488A3428ABF52
:10930000F31AE31A1B19C72BCCBF002301238BB11F
:109310009379012161F3071393712B1807489A7908
:1093200061F307129A71FFF713FF02B0BDE8F04135
:10933000FFF790BF013101F00701BDE7A6C2002091
:10934000EFC20020AEC20020EEC200202DE9F0479F
:10935000A54C05468EB0A7880068218808900DF1BD
:10936000200C2A786B7895F80280B5F80490ADF857
:10937000041094F800E06078002F00F03D818EB278
:109380004FF6FF718E4200F03781A678002E00F074
:1093900033814F458ABFCF1BA9EB07074F44C72F27
:1093A000A179CCBF0027012701F0F00A002F00F0BF
:1093B000C980BAF1000F7BD18DF809008DF808E063
:1093C000BDF808C04FF6FF708445464618D08DF8AA
:1093D00020208DF821302088BDF820C084450FD191
:1093E00076B9012363F30711A171FFF74DFF7E48A2
:1093F000FFF7AEFEA379AB7130460EB0BDE8F08743
:10940000B9F1000F08D1B8F1000FF5D0A37943F0FE
:109410000103A3710026EFE78DF81C208DF81D30A5
:10942000BDF81C004FF6FF718842ECD0B8F1000F78
:10943000ECD16E486E4990F800C009786D486145DE
:109440000FD18DF820208DF82130089800F0F8FA1F
:10945000C0F30332C3B2032A1DD8DFE802F01313AE
:10946000212100EBC10494F801E09E4506D110F8DB
:1094700031E0964502D1A478002CBDD1013101F034
:109480000701DCE710F4706F01D0002BB4D020335B
:10949000DBB2072BB0D92846FFF75AFE3E46ABE7B2
:1094A00010F4706FF3D0AA7912F0F00FEFD1A3E7A8
:1094B0008DF80D008DF80CE0BDF80C604FF6FF70D4
:1094C000864216D08DF820208DF821302088BDF8F6
:1094D000206086420DD1B8F1000F0AD1A97128464B
:1094E000FFF736FE2B6823606B686360FFF7CCFEE6
:1094F000D4E78DF820208DF821300898FFF793FEEF
:10950000E0B1B8F1000F19D0A3791F2B0CD9228834
:10951000ADF8282000228DF82A20ADF82C908DF887
:109520002E300AA8FFF714FE2B6823606B68636077
:10953000FFF7B2FEFFF7A8FE01265DE72846FFF71A
:1095400007FEF9E7BAF1000F13D18DF820208DF84E
:1095500021308DF82280ADF824909CE80300FFF7BD
:109560006DFE2148FFF7F4FD27606760FFF78CFE72
:1095700050E78DF811008DF810E0BDF810704FF62F
:10958000FF70874214D08DF820208DF8213020887C
:10959000BDF8207087420BD1B8F1000F08D1A97136
:1095A0002846FFF7D5FDC4F80080C4F8048023E7FF
:1095B0008DF820208DF821300898FFF734FE002820
:1095C000BCD0B8F1000FB9D0A3791F2BACD9228839
:1095D000ADF8302000228DF83220ADF834908DF8AF
:1095E00036300CA89EE700BFA6C20020EEC20020C5
:1095F000EFC20020AEC20020002F72D08DF814E020
:109600008DF81500BDF814104FF6FF76B14268D002
:10961000A178002965D14F4539D8A9EB0707C72F95
:10962000CCBF00260126002E4CD04646002E85D009
:109630008DF818E08DF81900BDF818004FF6FF718D
:1096400088422DD08DF820208DF821302188BDF85A
:109650002000884224D1A379DA071CD413F0F00F3C
:1096600019D003F0F002F02A1CBFC3F30312013239
:10967000AB711CBF62F30713AB712846FFF768FD9F
:109680002B6823606B686360FFF7FEFDB4E6F61B92
:109690004E44C72EC4E72B6823606B686360ABE65B
:1096A0008DF820208DF821300898FFF7BCFD0028A8
:1096B0007FF43AAFA379284643F00103A371FFF783
:1096C00047FD99E68DF82280ADF824908DF8202092
:1096D0008DF821309CE80300FFF7B0FD266066603E
:1096E000D2E7B8F1000F3FF429AF8DF820208DF8B4
:1096F00021300898FFF797FD064600283FF41EAF7B
:109700002B6823606B6803486360FFF7F3F9FFF78A
:10971000C3FDB9E7A6C20020F0B587B06C4684E867
:1097200003002046FFF712FE2D4E2E4D074688B14E
:10973000BDF80430BDF80020ADF8082043B192B266
:109740004FF6FF739A4203D094E80300FFF77CFDC5
:10975000254C40E094E8030004AB83E80300BDF827
:109760000420BDF81010ADF80C10002AF0D089B21A
:109770004FF6FF729142EBD034782978621C02F0E8
:1097800007028A420BD0184F327003CB07EBC40C90
:1097900047F83400CCF80410FFF75CFDD8E7FFF77A
:1097A00013FD124B37702F701F605F6007B0F0BD64
:1097B00004EBC000FFF7CAFD0028F7D02B7804EBBC
:1097C000C30254F833005168FFF73EFD2B78013394
:1097D00003F007032B70287833788342E8D1E5E75C
:1097E000EEC20020EFC20020AEC20020A6C20020C0
:1097F00038B558B101250378732B00F1010406D860
:10980000042B32D2012B0DD0022B1DD038BD752B6D
:1098100029D9A3F184026F2AF8D803F07F00FFF75B
:109820003DFA0FE0841C407800F12002D2B2072AF2
:109830001CD800F0070003FA00F0C0B200F098F95D
:1098400000F0D0F92046D6E7841C407800F12003D0
:10985000DBB2072BE3D800F0070005FA00F0C0B236
:1098600000F08EF9ECE7841CECE71846FFF745F9A9
:10987000E8E7704708B5FFF7FCFF08BD08B5FFF73C
:10988000F9FF034B1860BDE80840FFF783BC00BF39
:10989000F0C200207047FFF7F1BF0000024B1B68C9
:1098A0001843FFF7EBBF00BFF0C20020024B1B685C
:1098B0001840FFF7E3BF00BFF0C20020024B1B6857
:1098C0005840FFF7DBBF00BFF0C20020704708B56B
:1098D000FFF7FCFF08BD000008B5FFF7F8FF034BDA
:1098E0001860BDE80840FFF755BC00BFF4C2002077
:1098F0000020FFF7F1BF012303FA00F0FFF7ECBFF0
:10990000012303FA00F0024B1B681843FFF7E4BF82
:10991000F4C20020012303FA00F0034B1B6823EA82
:109920000000FFF7D9BF00BFF4C20020012303FAF3
:1099300000F0024B1B685840FFF7CEBFF4C2002076
:10994000024B1B681843FFF7C7BF00BFF4C20020DB
:10995000024B1B681840FFF7BFBF00BFF4C20020D6
:10996000024B1B685840FFF7B7BF00BFF4C200208E
:1099700070470000C0F30723C3EB031353FA80F3CF
:10998000DBB237B503F0070201209040DB080A4A3A
:1099900003EB8303C0B21344002413F8015F21FAE0
:1099A00004F242F300026A40024001346A40052C8E
:1099B0001A70F2D103B030BDF7C20020C0F3072304
:1099C000C3EB031313B553FA80F0C0B200F00704E1
:1099D0000949C00800EB80000022014410468B5C5E
:1099E000E34003F00103934001321843052AC0B25B
:1099F000F5D102B010BD00BFF8C2002073B50E4B08
:109A0000ADF804001E680D4B1B681F241E4326FA88
:109A100004F3DB07E5B206D414F1FF34F7D20025D6
:109A2000284602B070BD01992846FDF70DFC80B2B2
:109A30000128F1D0F4E700BFF4C20020F0C20020FA
:109A400007B5ADF804000198FFF7D8FF019903B0FE
:109A50005DF804EBFDF7F8BB13B5104BADF804103F
:109A60001B782BB1019802B0BDE81040FFF7E8BFAA
:109A700070B10198FFF7C2FF044601460198FFF755
:109A800079FF0199204602B0BDE81040FDF7DCBB2C
:109A90000198FFF793FF0446F3E700BFA4C200203C
:109AA000024B0146186800F088B900BFD4BC002002
:109AB000024B0146186800F082B900BFD4BC0020F8
:109AC000014B186800F07DB9D4BC0020024B93F91B
:109AD0000000C0F3C700704733C30020024B187862
:109AE00000F00700704700BF33C30020034B187815
:109AF00010F0070018BF0120704700BF33C30020DB
:109B0000014B1878704700BF35C30020024A137814
:109B100018431070704700BF35C30020024A137805
:109B200023EA00001070704735C30020014B00226B
:109B30001A70704735C30020014B1878704700BF7A
:109B400036C30020024A137818431070704700BFD4
:109B500036C30020024A137823EA000010707047D1
:109B600036C30020014B00221A70704736C3002014
:109B7000024A137818431070704700BF32C30020A8
:109B8000024A137823EA00001070704732C30020A5
:109B9000014B00221A70704732C30020014B187825
:109BA000704700BF34C30020704708B5FFF7FCFFC3
:109BB00008BD000008B5044B1978814202D0187026
:109BC000FFF7F3FF08BD00BF34C3002008B5044B06
:109BD0001A781AB100201870FFF7E7FF08BD00BF20
:109BE00034C3002010B5114C114922680978117056
:109BF000216810480A78007802430A7021680E48EC
:109C00000A78007802430A700C4A12784AB1236835
:109C100019780A431A70206800F09BF808B1FFF722
:109C2000D5FF2068BDE81040FEF79EBED4BC0020E2
:109C300035C3002036C3002032C3002034C30020C7
:109C4000704708B5FFF7FCFF08BD000010B5064CD3
:109C500041EAC0012170FFF753FE94F90000C0F300
:109C6000C700FFF7EEFF10BD33C3002008B5034B5C
:109C700000201870FFF7E5FF08BD00BF33C30020C8
:109C800008B50A4A92F9003023EA000040B2107089
:109C900042070AD1DBB2834207D0C0F3C700FFF707
:109CA00039FEBDE80840FFF7E1BF08BD33C300201F
:109CB000030C002B16BF184600231023020A1CBFFA
:109CC0001046083302091EBF04331046DBB2820877
:109CD0001EBF02331046DBB242081CBF0133DBB2A9
:109CE0001846704708B54FF6ED61002000F024FAE1
:109CF0000021022000F01EFA0021032000F01AFAD1
:109D00000021042000F016FA0021052000F012FACC
:109D100000210820BDE8084000F010BA08B5002076
:109D200000F0C0F94FF6ED63C31A5842584108BD20
:109D3000022000F08FB9032000F08CB90146032007
:109D400000F0F8B9042000F085B90146042000F0C5
:109D5000F1B9821C00F1080300209A4200D170473B
:109D600012F8011B0029F8D00130C0B2F5E730B578
:109D70004FF0FF33851C002215F8014B8C420ED0AA
:109D8000B3F1FF3F02D1002C08BF13460132D4B219
:109D9000062C62B2F0D15A1C01D01844817030BD3B
:109DA00010B5831C0022083013F8014B8C4208BF09
:109DB00003F8012C8342F7D110BDFFF7D8BFFFF79E
:109DC000EFBF06220021023010F074B908B5084A2E
:109DD000084813680A3313600021074A05F038F871
:109DE00000224FF4A4710548BDE8084005F042B8D0
:109DF00058C30020B0BA0300CD9D020038C3002034
:109E0000024A136818441060704700BF58C300200E
:109E100008B5054A0548002105F01AF818B1BDE853
:109E2000084004F0CBBD08BDCD9D0200B0BA0300D0
:109E3000014B186880B2704758C30020014B186866
:109E4000704700BF58C30020054B1A681B6892B2C8
:109E5000904288BF03F1FF33181A80B2704700BFE9
:109E600058C30020024B1960024B1860704700BFB6
:109E70005CC3002060C3002041DF704730B5354D22
:109E80004268354B017853F82230344A044628881A
:109E900052F821203249000487B040F0030004F05A
:109EA0001BFC2378052B2BD8DFE803F0032C2A2C8E
:109EB0002A48616821BB2B4B01221A7001A812228B
:109EC00010F0F8F801A805F053FF08B104F076FD92
:109ED0002888BDF808202449000440F0030004F05D
:109EE000F1FB2888BDF80A202049000440F0030057
:109EF00004F0E8FBBDF80A30222B01D905F0E6FE9C
:109F000007B030BD6368002BFAD12888A2681849D1
:109F1000000440F0030004F0D5FB2888A28915490D
:109F2000000440F0030004F0CDFB2888E2891249C8
:109F3000000440F0030004F0C5FBE1E76368002B78
:109F4000DED128880D49000440F0030004F0B6FB80
:109F5000D6E700BF70C10020D8BC002060BB030062
:109F6000B4BA030090C30020CCBA0300E4BA0300E3
:109F70001CBB03002EBB03003EBB030051BB030010
:109F80001FB51E4805F0D0FC05F0E4FC08B104F054
:109F900015FD1B4A13784BB3002108226846CDE912
:109FA000001110F087F86B46164A41F201014FF498
:109FB000805005F0AFFEE0B9CDE9020002A91148DA
:109FC00005F0C6FD08B104F0F9FC242203990E48FF
:109FD00010F065F80B4805F0DFFD08B104F0EEFC69
:109FE0000A4B01221A7005B05DF804FBFFF744FF2D
:109FF000D0E70749034805F031FEEEE77D9E0200F9
:10A0000090C3002094C3002064C3002088C30020B4
:10A0100078BB030008B50B4A137893B10A4B196853
:10A02000C8290BD90021196008481170084905F0AA
:10A030001FFE30B1BDE8084004F0C0BC1A6804320D
:10A040001A6008BD89C300208CC3002094C300207F
:10A0500078BB030010B5044B1B7804460BB9FFF71F
:10A060008FFF024B185D10BD88C3002064C3002021
:10A0700038B5084B1B7804460D460BB9FFF780FF37
:10A08000054B1D55054B01221A70054B00221A6025
:10A0900038BD00BF88C3002064C3002089C30020EE
:10A0A0008CC3002038B50546FFF7D4FF0446681C72
:10A0B000FFF7D0FF44EA002080B238BD38B5094B25
:10A0C0001B7805460C460BB9FFF75AFF064B5C554B
:10A0D0002B44240A5C70054B01221A70044B0022A9
:10A0E0001A6038BD88C3002064C3002089C30020E3
:10A0F0008CC3002038B50B4B1B7805460C460BB9BA
:10A10000FFF73EFF084844552844230A4370230CB8
:10A110008370064B01221A70054B240E0022C47076
:10A120001A6038BD88C3002064C3002089C30020A2
:10A130008CC30020FFF79CBFFFF7C0BFFFF7DABF5B
:10A1400008B5FFF7EBFD08B9FFF7CCFDFFF7F0FD11
:10A15000054B1870FFF7F6FD044B1880FFF7EBFD79
:10A16000BDE80840FFF797BB37C3002080E7002019
:10A17000194B1B78D90709D5184B187800EB8000CC
:10A1800080087F2823D820B3C0B270479A0705D52E
:10A19000124B187800EB80004008F2E75B0704D50B
:10A1A0000E4B187800EB8000EBE70D4B1B7863B18A
:10A1B0000C4A0A4912780878934200EB80003EBFAF
:10A1C000584390FBF2F080B2DBE70520DCE77F200C
:10A1D00070470120704700BFA7C300201ABD0020B0
:10A1E000A8C300201BBD0020154B1B78D90705D53F
:10A1F000144B1878800800B3C0B270479A0703D593
:10A20000104B18784008F6E75B0705D50D4B18781A
:10A210007F28F0D97F2070470B4B1B785BB10B4A2E
:10A22000084912780878934236BF10FB03F080B2D9
:10A2300090FBF2F0ECE70120DEE70120704700BF61
:10A24000A7C300201CBD0020A8C300201DBD002006
:10A25000F02808B505D1FFF78BFF40422F4B9870CF
:10A2600008BDF12802D1FFF783FFF7E7F22805D1F7
:10A27000FFF77EFF4042294B5870F1E7F32802D1E7
:10A28000FFF776FFF7E7F92804D1FFF7ADFF234B7F
:10A29000D870E5E7FA2803D1FFF7A6FF4042F6E7BA
:10A2A000FB2805D1FFF7A0FF40421C4B1871D7E7F0
:10A2B000FC2802D1FFF798FFF7E7F42804D1174AEA
:10A2C000137843F0010313E0F52804D1134A1378FF
:10A2D00043F002030CE0F62804D1104A137843F04F
:10A2E000040305E0F72805D10C4A137843F008036E
:10A2F0001370B5E7F82804D1084A137843F0100327
:10A30000F6E7FD2801D1064ADAE7FE2801D1044A22
:10A31000DDE7FF28A4D1024AE0E700BFA2C3002086
:10A32000A7C30020F028404B14D193F90220002A43
:10A3300001DA00229A7093F9012052B993F90220B0
:10A340003AB993F9032022B993F904300BB9374A8B
:10A3500013707047F12804D193F90220002AE8DC39
:10A36000E9E7F22893F9012004D1002AE3DA002278
:10A370005A70E0E7F32802D1002AF8DCDBE7F9287D
:10A3800006D193F90320002AD5DD0022DA70D2E746
:10A39000FA2804D193F90320002ACCDAF5E7FB2848
:10A3A00006D193F90420002AC5DA00221A71C2E707
:10A3B000FC2804D193F90420002AF6DCBBE7F4283A
:10A3C00004D11A7822F001021A70B4E7F52803D1FB
:10A3D0001A7822F00202F7E7F62803D11A7822F061
:10A3E0000402F1E7F72803D11A7822F00802EBE71C
:10A3F000F82803D11A7822F01002E5E7FD2805D1EC
:10A400000B490A7822F001020A7094E7FE2804D171
:10A4100007490A7822F00202F6E7FF288BD10449A7
:10A420000A7822F00402EFE7A2C30020A8C30020AC
:10A43000A7C3002008B50448FEF79EFAFFF7F8FC12
:10A44000024B188008BD00BFA2C30020A0C300209B
:10A45000F8B5394B1888FFF7F7FC38490A78A2B1EC
:10A46000374B1B7898420FDB364C94F9013094F946
:10A47000027094F9036094F9045063B9002F58D125
:10A48000002E56D1002D54D1F8BD2F4B1B7803EB75
:10A4900083035B00E6E7FF2A01D001320A70002B3C
:10A4A00002DDFFF765FE607094F90130002B03DADE
:10A4B000FFF75EFE40426070002F02DDFFF758FE9E
:10A4C000A07094F90230002B03DAFFF751FE4042EE
:10A4D000A07094F9012072B194F9021059B1B5231A
:10A4E0005A43121203FB01F308BF01221B1208BFDB
:10A4F00001236270A370002E02DDFFF775FEE0708D
:10A5000094F90330002B03DAFFF76EFE4042E0704F
:10A51000002D02DDFFF768FE207194F90430002B56
:10A5200003DAFFF761FE40422071BDE8F840FFF713
:10A5300081BFFF2AB1D1BFE7A0C30020A8C300207C
:10A5400019BD0020A2C3002018BD0020044A00232A
:10A5500013601371034A1370034A1370704700BFEE
:10A56000A2C30020A8C30020A7C30020027903686B
:10A5700082B033F81230ADF804309DF8043000207A
:10A5800063F307009DF8053063F30F2002B07047B6
:10A59000002937B5C0F3072014BF05210021440866
:10A5A0000A4D0F2394FBF3F31944C3EB0313E41A8E
:10A5B000012335F91120A3401BB2C0074CBF1A4339
:10A5C0009A4325F8112003B030BD00BFAAC3002074
:10A5D00008B5FCF742F808BD08B5FCF74AF808BD15
:10A5E000014B33F810007047AAC3002070470000E9
:10A5F00030B500220C4C0D4D104654F822101F2986
:10A600008ABF2B464FF0A04301F01F01D3F810354D
:10A61000CB40DB4303F00103934001321843052A8A
:10A62000C0B2EAD130BD00BF70BD030000030050CE
:10A6300030B50A4C0A4D0022012054F822301F2B5D
:10A6400086BF03F01F0329464FF0A041013200FAF4
:10A6500003F30F2AC1F80835EFD130BD34BD030034
:10A660000003005038B51D4C1D4D00220C2054F83D
:10A6700022301F2B86BF03F01F0329464FF0A04155
:10A6800003F5E0730132052A41F82300EFD1154CA0
:10A69000134DFFF7CDFF002240F2036054F8223043
:10A6A0001F2B86BF03F01F0329464FF0A04103F57F
:10A6B000E07301320F2A41F82300EFD10A490B4A17
:10A6C00000230B8013804B8053808B809380CB8042
:10A6D000D3800B811381FCF713FB38BD70BD0300E1
:10A6E0000003005034BD0300AAC30020B4C30020FF
:10A6F000074B53F820301F2B86BF03F01F0305497B
:10A700004FF0A041012202FA03F3C1F80C35704763
:10A7100034BD03000003005010B5FFF7E9FFFFF759
:10A7200067FF0446FFF784FF204610BDF8B50E4DC5
:10A7300000240126E0B2FFF7EFFF06FA04F109B2A8
:10A74000CF43002335F9132040FA03FC1CF0010F1E
:10A7500014BF0A433A4025F813200133052BF1D1E9
:10A7600001340F2CE6D1F8BDC2E700202DE9F041FD
:10A7700086B000240594FFF7D9FF5C4A5C49107845
:10A780005C4F23460D4637F8136031F813C0B445CB
:10A7900018BF21F8136003F101031CBF012402203C
:10A7A000052BF0D104B11070137833B3013BDBB249
:10A7B000137013BB504FDFF854C1BE4637F8130077
:10A7C00035F8132090424FEA43060FD0002180EA6B
:10A7D000020444FA01F0C00705D5059805980598CC
:10A7E00005980130059001310F29F2D10133052B75
:10A7F0002EF8062026F80C20E0D14049404C0B787A
:10A8000094F806800133DBB2FF2B08BF00230B70E6
:10A81000B8F1000F29D02046FFF7A8FEC6B2394D87
:10A82000AB7923B32846FFF7A1FEC7B235480978B4
:10A83000FFF79CFEFF2FADF810000FD0324B1A78B7
:10A840003C2393FBF2F39DF81020891AC9B28B4286
:10A8500011DBB8F1000F0CD1BE4202D8284DA3790C
:10A860004BBB012006B0BDE8F081FF26D7E7FF27EC
:10A87000DCE7BE42F2D9DFF88C8018E04046FFF7F3
:10A8800075FEADF80400C0B2B842E5D100210198D0
:10A89000FFF77EFEAA7952B12B79E8790133DBB25A
:10A8A000013AB3FBF0F100FB11332B71AA71AB79C4
:10A8B000002BE3D1D0E72846FFF758FEADF804009F
:10A8C000C0B2B042CDD101210198FFF761FEA2795B
:10A8D000002AC4D02379E0790133DBB2013AB3FB1B
:10A8E000F0F100FB11332371A271B8E71EBD002007
:10A8F000B4C30020C2E70020BEC30020C8C30020AC
:10A9000028BD002020BD0020BEC60300AAC3002031
:10A9100010B50448FFF72AFF0446FCF7F3F9204678
:10A9200010BD00BFAAC3002033DF704708B503F095
:10A9300063FD18B9BDE8084006F0ACB908BD704722
:10A9400010B54FF40041002003F0F0FC08B104F012
:10A9500035F8084C03F026FC0321204603F0E0FE06
:10A960000123637206F080F918B1BDE8104004F0CD
:10A9700025B810BD30BD0020F8B50C680D46082C78
:10A9800006464FF6FF7028BF082409F077FF002322
:10A990002B604FF6FF77B84202D014F1FF3400D29B
:10A9A000F8BD2B685A1C2A6026F8130009F066FFD0
:10A9B000F1E7000008B5084B08491888000440F08A
:10A9C000030003F07BFE09F0B1FF18B1BDE80840B9
:10A9D00003F0F4BF08BD00BF70C1002097BD0300A5
:10A9E00010B5044601F0AAFC204609F095FF08B115
:10A9F00003F0E4FF054B064918880004224640F0A6
:10AA00000300BDE8104003F05DBE00BF70C1002030
:10AA100084BD030030B44FF08043D3F83824D1070D
:10AA200001D5920730D5D3F8383403F00303032B54
:10AA30002AD0164C164D0022012054F822301F2B2C
:10AA400086BF03F01F0329464FF0A041013200FAF0
:10AA500003F30F2AC1F80C35EFD10E4C0C4D0E4804
:10AA6000002254F822301F2B86BF03F01F03294613
:10AA70004FF0A04103F5E0730132052A41F82300AD
:10AA8000EFD130BCFFF750BF30BC704734BD03007E
:10AA90000003005070BD03000C0003000378024A5D
:10AAA00001331360704700BFCCC4002030B50A4B9F
:10AAB0000A4D0FCB85B06C4684E80F002146002379
:10AAC000074A284607F016F80446284607F09AF881
:10AAD000204605B030BD00BFA8BD0300C4BD0300C3
:10AAE0009DAA020037B5124C002323600093134641
:10AAF0000A4601460F4807F0D3F930B1206810F13B
:10AB0000FF3018BF012003B030BD40F2E9352368A3
:10AB1000002BF3D106F0BEF8013DF8D1064B0749F2
:10AB20001888000440F0030003F0C8FDE6E700BF0A
:10AB3000CCC40020C4BD030070C10020B8BD030018
:10AB40002DE9F0410A4DBDF8187006462846944696
:10AB50001C461A4600F8011B61460FF0A0FA621C61
:10AB60003B462946304692B2BDE8F041FFF7BABFF6
:10AB7000C9C300207047000030B50C4C0C49206858
:10AB800085B00025009068468DF8005006F0B4FDB1
:10AB9000234601AA53F8040F59681B7A03C201A97E
:10ABA0002846137006F0ECFD05B030BDCCBD0300A7
:10ABB00075AB020010B5044C0020214606F036FEAD
:10ABC00008B10023238010BDD0C40020064BB3F988
:10ABD00000004FF4616320EAE07010FB03F0FF23F4
:10ABE000B0FBF3F080B27047D0C4002070477047CC
:10ABF00010B50121174800F021FE02210446154836
:10AC000000F01CFE002814BF022300230421114879
:10AC10001C4400F013FE002814BF04230023082165
:10AC2000E4B20C481C4400F009FE002814BF0823BD
:10AC30000023E4B2102107481C4400F0FFFD002867
:10AC400014BF10230023E4B21C44034BE4B21C8065
:10AC500010BD00BF6CBF03001ACC002007B5044B29
:10AC60000093044A402303F037FA03B05DF804FB75
:10AC7000D1AC020085C6002010B5028943899A42F2
:10AC800010D2838802685C1C8480D15481884289F8
:10AC9000B1FBF2F302FB13138380038901330381B9
:10ACA000012010BD0020FCE7022908B502D00329CD
:10ACB00004D008BDBDE80840FFF79ABF00F0D2F904
:10ACC0000248BDE8084000F06DBA00BF6CBF030049
:10ACD00070B50E4E33780D464BB10D4E8C18A54213
:10ACE00012D015F8011B3046FFF7C6FFF7E7D4B2C4
:10ACF000224608480FF0D3F92246064906480DF0CF
:10AD0000E1F908B90123337070BD00BF84C600208B
:10AD100058BD002085C60020DCBE0300023808B5FF
:10AD20000C280DD8DFE800F0070D0C0C0C0C1424D7
:10AD3000300C0C0C11000DF067FC154B01221A7041
:10AD400008BDBDE80840FFF753BF0DF011FCF4E764
:10AD50000EF01CFC0028F3D10DF008FC0D4B0E4941
:10AD60001888000440F00300BDE8084003F0A6BCCA
:10AD7000084B0A491888000440F0030003F09EFCC9
:10AD8000BDE808400DF036BCBDE808400DF0F2BB50
:10AD9000D2C4002070C1002063C003006EC0030055
:10ADA00070470A4601460020FFF792BF70B50023A6
:10ADB00090B00489D9B29CB1C18805684A1C92B28E
:10ADC000C2806E5C45890DF80360B2FBF5F101337A
:10ADD00005FB1122013C402BC2800481E9D11946B8
:10ADE0006846FFF7DEFF10B070BD00002DE9F041AE
:10ADF0000546032906D8DFE801F012071F021F4BA2
:10AE000000221A70BDE8F0811C4B1D4800221A7008
:10AE10000389002BF6D0BDE8F041FFF7C7BF0DF066
:10AE20006FF9184FDFF8648006460024B4420AD157
:10AE300028460DF068F968B9012212491248BDE8A8
:10AE4000F0410DF063B9E3B24046F95CFFF714FF3F
:10AE50000134EBE7402828BF402002460446094958
:10AE60000948084F094E0DF051F90025795D30462B
:10AE70000135FFF701FFAC42F8D1DDE784C60020C1
:10AE800058BD002044C60020DCBE03004CBD00209D
:10AE9000014B1889704700BF4CBD002007B502ABBD
:10AEA000012103F8010D1846FFF77BFF03B05DF8A1
:10AEB00004FB000030B50A4B1A8972B1D8881C68AF
:10AEC0005D89411C89B2D980205CB1FBF5F4013A5F
:10AED00005FB1411D9801A8130BD1046FCE700BF74
:10AEE0004CBD002008B505F069FF08B103F066FD10
:10AEF00016480DF0ABFA08B103F060FD14480DF0F0
:10AF00009DFB08B103F05AFD11480DF009FC08B192
:10AF100003F054FD0F480DF091FB08B103F04EFD16
:10AF20000D480DF08BFB08B103F048FD0B480DF008
:10AF300085FB08B103F042FD09480DF07FFB08B125
:10AF400003F03CFD00F01EFD002008BD48C00300DA
:10AF50006CBF0300A0BF030034BF0300FCBE0300AE
:10AF6000DCBE030010B50DF0EBFA044608B103F0A7
:10AF700025FD204610BD000038B5144D144C0DF0D1
:10AF8000E7FD18B9BDE8384000F01ABD2B78002B5A
:10AF9000F5D023680133642B2360F0DD00232B7090
:10AFA00023600EF0FDFA50B101F044FD0028E6D117
:10AFB0000EF052FB18B9012001F054FDDFE701F05B
:10AFC0002DFD0028DBD101F041FDD8E7D2C40020DF
:10AFD000D4C4002010B50146054800F049F80446E5
:10AFE0000EF01CFB08B10DF019FBE0B210BD00BF64
:10AFF0006CBF03000146052201480CF0D5BA00BF22
:10B00000A0BF030037B504460322ADF8050001A92F
:10B0100008488DF804200CF0C7FA074B074905468D
:10B0200018880004224640F0030003F04BFB28463A
:10B0300003B030BD34BF030070C1002054C0030012
:10B0400007B50423ADF8050003220DEB0301044806
:10B050008DF804300CF0A8FA03B05DF804FB00BFD3
:10B0600034BF0300014B00221A70704706CB00204A
:10B070002DE9F04F074687B057F810AB454E044610
:10B08000384688460BF04DFF96F800B00AF11C03D5
:10B09000082503604560BBF1000F16D03E4C3F48C9
:10B0A00023785A1C227000EBC3002A4641460EF05A
:10B0B000F6FF23783A4A03F00F0323701378013325
:10B0C0001370012007B0BDE8F08F2A4641460AF10F
:10B0D00014000EF0E4FF237A2268002B55D0A37AE7
:10B0E00004F10901002B52D0E37A02F10808CB5C8D
:10B0F00000936FF00801404604F0EAFF23680193D3
:10B1000038460BF00EFF019B814603F11C00C9E994
:10B1100000052368143319462A4601930EF0B0FF48
:10B12000019B70B31946D9F80420D9F800000EF03D
:10B13000B6FF384624680BF0F4FE1C34C0E9004525
:10B1400006A8CDE9034500F80DBDCDF814B003F015
:10B15000E5FE03A900980DF05BFB044618B92946EB
:10B16000404604F09FFF9DF80B0003F0FBFE14F037
:10B17000FF0008D1DAF808301B0704D5012333702B
:10B18000A0E70446F3E70023F9E75B78FFDE1B78CE
:10B19000FCE700BF06CB002088CB002007CB0020B7
:10B1A00005CB002073B50E4D2B780646ABB10D4C88
:10B1B0000D4923785A1C01EBC3012270684608220E
:10B1C0000EF06DFF237803F00F0323702B78694690
:10B1D000013B30462B70FFF74BFF002002B070BDE3
:10B1E00005CB002087CB002007CB002010B50B46F5
:10B1F000044658B90A68096A0968497882F824102F
:10B2000018469A6A02219047204610BD0320FCE7A9
:10B21000F0B5BB4D0C7A2C700468B4F5F07F00F0EB
:10B2200062815FD840F2D716B44200F01E81B4F5B7
:10B23000EC7F26D2B4F5E87F00F0ED800BD8002C2F
:10B2400000F0CA8040F2CF16B44200F0D88000234C
:10B2500003601846D2E0B4F5EA7F00F0F980B4F557
:10B26000EB7FF4D100240AB106791655A54E366855
:10B270000134767806719C42C0F0F88040F2D71312
:10B28000BAE0B4F5ED7F00F0098114D8B4F5EC7F95
:10B2900000F0F78040F2D916B442D8D100240AB1A8
:10B2A0000679165501344E7E06719C42C0F0F78037
:10B2B0004FF4ED73A0E0B4F5EF7F00F0FC8000F2F6
:10B2C000068140F2DB16B442C1D100240AB10679EE
:10B2D0001655013409269C420671C0F0ED804FF4EA
:10B2E000EF7389E040F2F916B44200F07181B4F5D1
:10B2F000FD7F3CD240F2E316B44200F01881B4F571
:10B30000F27F14D240F2E116B44200F00381B4F5AA
:10B31000F17F9CD100240AB10679165501344E699B
:10B3200006719C42C0F0048140F2E31364E040F2F5
:10B33000EF16B44200F02D81B4F5F87F00F03781AC
:10B34000B4F5F67F83D100240AB1067916556E4E06
:10B3500037780E6956F827606C4F36683E800134A6
:10B360009C420671C0F0168140F2EF1344E040F2B7
:10B37000FF16B44200F05281B4F5007F14D2B4F548
:10B38000FD7F00F03181B4F5FF7F7FF460AF0024D2
:10B390000AB106791655013403269C420671C0F0A5
:10B3A0003E8140F2FF1327E040F20126B44200F054
:10B3B0004D81B4F5007F40F23D8140F20226B44257
:10B3C0007FF445AF00240AB1067916554E4F3E78FA
:10B3D000013601343E70C6E04D4E34704C4E377825
:10B3E0002E78B74202D340F2062305E00926A34295
:10B3F000067105D840F2CF1303600120F0BD002490
:10B400000AB106791655013404269C42067103D30D
:10B410004FF4E873F0E700240AB1067916553C4E64
:10B420000F7A3678DFF8DCC0B74204F1010440F24D
:10B430001A8101F1090706EB460607EB060E9C424E
:10B44000BE5DCCF800E0067103D34FF4EA73D3E796
:10B4500000240AB106791655013400269C42067173
:10B46000FFF401AF4FF4EB73C6E700240AB106798D
:10B470001655013403269C42067103D34FF4EC7336
:10B48000BAE700240AB10679165501340E7E06711A
:10B490009C42FFF404AF40F2D913ADE700240AB197
:10B4A00006791655013400269C420671FFF40EAF52
:10B4B00040F2DB13A0E700240AB1067916550134E7
:10B4C00021269C42067103D340F2DF1394E7002447
:10B4D0000AB106791655013411269C42067103D330
:10B4E0004FF4F07388E700240AB106791655013449
:10B4F00001269C4206710ED340F2E1137CE700BFA7
:10B5000092CB002094CB002093CB00208ACB00204C
:10B5100091CB002000240AB106791655013400268B
:10B520009C420671FFF4F7AE4FF4F17364E7002418
:10B530000AB1067916554F4E4F6937704E4E0027A7
:10B54000013437704C4EDFF82CC137789CF800C0BE
:10B55000BC4513D8494F3F6897F801C0484F87F85A
:10B5600000C000273770444E3778454E3678B742D2
:10B5700027D3444F3E7801363E702FE70E6956F8C8
:10B580002760A342367906713FF6DEAE4FF4F673BC
:10B5900032E700240AB1067916553B4E368801344D
:10B5A000360A9C42067103D34FF4F87324E7002453
:10B5B0000AB106791655304F3E78013601343E7097
:10B5C000C0E707269C42067103D340F2F91313E744
:10B5D00000240AB106791655013405269C420671ED
:10B5E00003D34FF4FD7307E700240AB1067916551B
:10B5F000224E244F36683F7896F801C0BC4504F1CE
:10B60000010435D996F802C03E449C4216F80C60FD
:10B610000671FFF4BDAE4FF4FF73EDE600240AB1EE
:10B6200006791655013440269C42067103D34FF427
:10B630000073E1E600240AB10679165501340026AC
:10B640009C42067103D340F20123D5E600240AB1DF
:10B6500006791655013401269C420671FFF4B3AEFB
:10B6600040F20223C8E60023CCF800301B78FFDE4E
:10B670000023FBE789CB002093CB002094CB002054
:10B6800090CB002091CB00208ACB002030B5036AFC
:10B690001A680024147087B01A685B68054606A80B
:10B6A0000132013B00F8154DCDE90434039203F05B
:10B6B00035FC204603A90DF0ABF8044630B9074B22
:10B6C00001A9CDE9013501F059FB04469DF80300BD
:10B6D00003F048FC204607B030BD00BFEDB10200CA
:10B6E0000A79012A0B4607D1C169D1E90012581C19
:10B6F000013A013101F054BB022A01D1016AF4E799
:10B700000620704710B404460B4654F8102B21460F
:10B7100008325DF8044B0BF0E9BA2DE9FF47037AD4
:10B7200006680446002B4AD0837A00F10902002BF8
:10B7300047D0C37A08366FF00801304604F110098B
:10B7400012F8038004F0C4FC484625680BF0E9FBBE
:10B75000074605F11C00082538607D60236803F169
:10B76000140A2A4651460EF08BFC30B37A683868CA
:10B7700051460EF094FC484624680BF0D2FB1C3472
:10B78000C0E9004504A8002300F80D3DCDE90145BE
:10B79000039303F0C3FB01A940460DF039F80446BA
:10B7A00018B92946304604F07DFC9DF8030003F0EB
:10B7B000D9FB204604B0BDE8F0870446F9E75B7882
:10B7C000FFDE1B78FCE7FFF7A8BF0000F0B50468B8
:10B7D0009DF814603CB1B4F5067F4FF0000420D012
:10B7E000046020461CE00D6955F826502F68114D65
:10B7F0002F60114D2C60104D0E4F2D683F68BD42DB
:10B8000002D940F21B2309E00F6957F82670BF6880
:10B81000A3427D5D057104D84FF4067303600120D7
:10B82000F0BD0AB105791555034F3D680135013466
:10B830003D60E0E798CB00208CCB0020036893F8B4
:10B840002430194214BF012000207047BFF34F8FEE
:10B850000549064BCA6802F4E0621343CB60BFF3AC
:10B860004F8F00BFFDE700BF00ED00E00400FA05C8
:10B870000020704708B5FAF76FFE002008BD07B535
:10B880004368012B11DD04230DEB0302012100F0BD
:10B8900013FB9DF804003038C0B2092801D8FFF727
:10B8A0009FF8002003B05DF804FBFFF783F8F8E78A
:10B8B00007B54368012B11DD04230DEB03020121C1
:10B8C00000F0FAFA9DF804003038C0B2092801D817
:10B8D00001F03AF8002003B05DF804FB00F0ECFF43
:10B8E000F8E710B504460EF041FCC1B22046BDE8B1
:10B8F0001040FFF756BA000070B50A4D0A4E0024FA
:10B900006059FFF7EEFF0920FFF7C8FA2B190C3436
:10B910009868FFF7E6FF3046FFF7E3FF542CEFD1BE
:10B92000002070BD5CC10300E6C60300F0B587B01F
:10B9300002AD10224FF6FF7128460EF0BBFB06A9A0
:10B94000082341F8143D2846FFF716F80B4E0C4F1C
:10B950000024019B9C4202D3002007B0F0BD30467A
:10B96000FFF7BFFF15F814003030C0B2FFF796FAAA
:10B970003846FFF7B6FF0134EBE700BFB0C1030064
:10B98000E6C6030013B500240094074B074A084994
:10B99000084800F07FF8084908482346072202B00B
:10B9A000BDE8104000F000BAB5AE020091AE020052
:10B9B0009DAE0200BCCB00205CC10300D8CB0020B0
:10B9C000F7B5124C237823B93E20FFF767FA01231D
:10B9D00023700F4E0F4D32680F4805F12007BB1A38
:10B9E000294600F065F8B84230600CD101AA29461A
:10B9F0000A4800F0DEF92022002128460EF05AFB0A
:10BA000000233560237003B0F0BD00BFE4CB0020FD
:10BA100064BD00209CCB0020BCCB0020D8CB0020F4
:10BA200070B58D1806462C46601B14F8013B03B90F
:10BA300070BD326818469047F6E710B504460368B3
:10BA40000D20984723680A20BDE81040184770B5BC
:10BA500005460E460024B44200DB70BD2B681B2057
:10BA600098472B685B2098472B68442098470134FF
:10BA7000F1E770B505460E4600242B681B20984759
:10BA80002B685B20984701342B6843209847B442C9
:10BA9000F3D170BDF8B504461D460F46164600F0BA
:10BAA00029F9069B6561C4E90376A361F8BD00002E
:10BAB0002DE9F74FDFF838828C4E009204460F468E
:10BAC0009946154623699847002858D063699847D6
:10BAD00001468246204600F017F9A269834602B16A
