:020000022000DC
:106000000000042001BE020029BE02002BBE0200D7
:106010002DBE02002FBE020031BE020000000000B3
:1060200000000000000000000000000033BE02007D
:1060300035BE02000000000037BE020039BE02007B
:106040001D0703003BBE02002D070300AD0B03003C
:10605000491103003BBE020019030300910703002E
:106060003BBE02003BBE02003BBE02003BBE020044
:106070003BBE02003BBE02003BBE02003BBE020034
:106080003BBE0200A5DC02003BBE02003BBE02009C
:1060900041DD02003BBE0200195903003BBE020075
:1060A0003BBE02003BBE02003BBE02003BBE020004
:1060B000AD1203003BBE0200000000000000000023
:1060C0003BBE02003BBE02003BBE0200450B03008C
:1060D0003BBE02003BBE02003BBE02002D8B030014
:1060E0003BBE02003BBE02003BBE020000000000BF
:1060F000000000003BBE0200000000003BBE0200AA
:10610000000000000000000000000000000000008F
:10611000000000000000000000000000000000007F
:10612000000000000000000000000000000000006F
:10613000000000000000000000000000000000005F
:10614000000000000000000000000000000000004F
:10615000000000000000000000000000000000003F
:10616000000000000000000000000000000000002F
:10617000000000000000000000000000000000001F
:10618000000000000000000000000000000000000F
:1061900000000000000000000000000000000000FF
:1061A00000000000000000000000000000000000EF
:1061B00000000000000000000000000000000000DF
:1061C00000000000000000000000000000000000CF
:1061D00000000000000000000000000000000000BF
:1061E00000000000000000000000000000000000AF
:1061F000000000000000000000000000000000009F
:1062000010B5054C237833B9044B13B10448AFF3F0
:1062100000800123237010BDB4C1002000000000E5
:10622000ECC4030008B5034B1BB103490348AFF3AB
:10623000008008BD00000000B8C10020ECC40300CD
:10624000154B002B08BF134B9D46A3F5803A002148
:106250008B460F461348144A121A12F0AFFE0F4B2A
:10626000002B00D098470E4B002B00D09847002001
:10627000002104000D000D48002802D00C48AFF3A7
:10628000008012F03DFE2000290005F045FD12F0CF
:1062900023FE00BF000008000000042000000000F2
:1062A00000000000B4C10020F4E70020000000005E
:1062B000000000001F288ABF054B4FF0A04300F0EC
:1062C0001F00D3F8103523FA00F000F001007047EA
:1062D0000003005070477047704770477047704721
:1062E00008B500F0BFFB08BD08B54FF0A0430C2275
:1062F000C3F834270D20C3F86027FFF7DBFF024601
:106300001820FFF7D7FF024B42EA4000187008BD83
:10631000D0C1002010B5184C22780D209200D2B2C6
:10632000FFF7C8FF01461820FFF7C4FF41EA40000D
:106330001043C0B22070114B114C00F00F002278B6
:106340001B5C13445BB2012B237003DD0021084664
:10635000FFF7C6FF94F90030013303DA0121002072
:10636000FFF7BEFF94F90030002B03F00103B8BF24
:106370005B42237010BD00BFD0C100203C9C0300D5
:10638000D1C10020014B1878704700BFD2C1002056
:10639000A0F5C043B3F5005F09D3A0F58043B3F582
:1063A000805F04D3A0F58073B3F5F85F0BD2C0B261
:1063B000031F9BB2232B0BD92B3880B20D288CBF27
:1063C000002001207047B0F5807F28BF0020EFE754
:1063D0000120704708B5FFF7DBFF08BD10B5FFF7D8
:1063E000F9FF00B3104C2088D0B102F04FFE0F49E6
:1063F000DFED0F6A0A7842F6E06393FBF0F0C0B27B
:10640000801A07EE900A07EE102AF8EEE77AB8EE47
:10641000C77AA7EEA67AFCEEC77A17EE903A0B7011
:1064200002F028FE208010BDD4C10020D2C100207F
:10643000A779473D10B50F4C208802F027FEB0F534
:106440007A7F16D90C4ADFED0D6A1378594207EEB0
:10645000101A07EE903AB8EEC77AF8EEE77AE7EE50
:10646000267AFCEEE77A17EE903A137002F002FEFD
:10647000208010BDD4C10020D2C10020A779473DA3
:1064800010B5104C206802F039FD042813D8DFE85D
:1064900000F0030A0C0E10000B4A0C48182112F0F1
:1064A00095FD0A4810BD0A4AF7E70A4AF5E70A4A85
:1064B000F3E70A4AF1E72368094A0448182112F071
:1064C00085FDEEE7C8C200204C9C030070E300206D
:1064D000599C03006A9C0300789C0300879C03007E
:1064E000999C03003CDF704738B5054D044645F0E4
:1064F00001054FF47A40A847013CFAD138BD00BFEE
:10650000B09C03001F2886BF00F01F00044B4FF013
:10651000A04300F5E070032243F82020704700BF3D
:10652000000300501F2886BF00F01F00044A4FF0F0
:10653000A042012303FA00F0C2F80805704700BF2B
:10654000000300501F2886BF00F01F00044A4FF0D0
:10655000A042012303FA00F0C2F80C05704700BF07
:106560000003005008B557210020FFF7BBFFBFF321
:106570004F8F0549054BCA6802F4E0621343CB60B4
:10658000BFF34F8F00BFFDE700ED00E00400FA0508
:1065900008B538B10720FFF7B5FF0720BDE8084070
:1065A000FFF7C0BF0720FFF7ADFF0720BDE8084099
:1065B000FFF7C8BF10B54FF0A0431A4CD3F8103501
:1065C0009B0E03F00102D1B210B92078904228D07E
:1065D00003F0010381F00100237005F031FB207806
:1065E00005F022FB4A20FFF7ADFF2378CBB14A200C
:1065F000FFF798FF6420FFF777FF4A20FFF7A2FF1D
:106600006420FFF771FF4A20FFF78CFF6420FFF73B
:106610006BFF4A20FFF796FF6420BDE81040FFF7AC
:1066200063BF10BDD6C1002008B54FF08043D3F83A
:106630003824D10701D5920705D5D3F8383403F0B3
:106640000303032B09D105F0F5FA90B905F0E6FA3A
:1066500078B1BDE8084005F005BB05F0EBFA40B1A4
:1066600005F0DCFA28B905F0F1FABDE8084005F0BC
:1066700023BA08BD08B50720FFF744FF4A20FFF7FB
:1066800041FF5020FFF730FF0120BDE80840FFF731
:1066900091BF000008B5084B1B780BB9FFF7C4FF8A
:1066A00005F0C8FA20B105F0B9FA08B904F046FFC0
:1066B000BDE8084002F0D0BDD7C100200020FFF7A0
:1066C00067BF08B5FFF7D6FF05F0CCFAFFF70CFE61
:1066D0000020BDE8084000F0E3BE08B5FFF71AFE51
:1066E000FFF7A8FE01F054F9BDE80840FFF7D2BF5C
:1066F0000378032B02D0352001F0F6BB7047000071
:1067000010B5074C0023A37002F0B4FC40F0010167
:10671000A180206889B2BDE8104001F0FFBA00BF37
:1067200070BC002010B5074C0023A37002F0A2FC3F
:1067300040F00101A180206889B2BDE8104001F05D
:10674000EDBA00BF76BC002010B5044600780328DF
:1067500006D102F0FBF92046BDE8104001F04EB929
:106760003520BDE8104001F0EEBA000070B503F02E
:106770002DFB41F2680404FB00F340F6E4450C4AAB
:1067800093FBF5F318210B4812F020FC03F01EFBDD
:1067900012236043084A90FBF5F01821A0F516601B
:1067A000BDE8704090FBF3F3044812F00FBC00BF4B
:1067B0007DA0030018E400208BA0030048E4002023
:1067C00037B505F037FA0B4D0B4C002808BF2C46A7
:1067D00005F024FA094B0A4A002814BF1846284637
:1067E000009023461821074812F0F0FB054803B03B
:1067F00030BD00BFCCB803006CA003006FA0030045
:1068000072A00300E8E3002010B5FFF7BBFD044AC7
:10681000034618210348BDE8104012F0D7BB00BF63
:1068200096A00300B8E3002030B504460D4685B0BD
:1068300000F094FF392CAB781ED045F6F542944217
:106840002CD0AB7833B1FFF791FF2046FFF7C6FDA0
:10685000FFF7DAFFA4F5B9425B3AAB78132A2AD8DE
:10686000DFE802F02531363E462C53535353535341
:10687000655D5D5D5D5D5D72002BE2D0354B364A36
:1068800018784FF4806120B100201870C2F80C1500
:10689000D7E701201870C2F80815D2E7002BD0D036
:1068A000A92001F050FAA92001F01EFBC9E713B19D
:1068B000002000F006FA012005B030BD002BFAD010
:1068C00003F078F9F7E7002BF5D005F0F5F8F2E7DB
:1068D000002BF0D005F0BAF9204B00221A70F4E733
:1068E000002BE8D005F0BEF91C4B01221A70E2E73C
:1068F000002BE0D005F092F920B105F0B3F904F0D7
:106900001DFED8E705F0A2F9D5E7002BD3D005F09E
:106910009DF904F11F00C0B205F016F9CBE7002B7A
:10692000C9D004F11800C0B203F05AF9C3E7002B34
:10693000C1D003F04BFA0A490246684612F07AFBCE
:10694000684600F0BBF9B6E7002BB4D0FFF70AFEAB
:10695000B1E700BFD8C1002000030050D7C100201C
:1069600066A003000020704708B52D4B186802F0A0
:10697000C5FA042845D8DFE800F0030335172600E0
:10698000FFF77EFD002100F0E1FEFFF719FF002177
:1069900000F0DCFE0021234800F0D8FE2248002150
:1069A000BDE8084000F0D2BE0021204800F0CEFE35
:1069B00000211F4800F0CAFE00211E4800F0C6FE5C
:1069C00000211D48ECE700211C4800F0BFFE00211B
:1069D0001B4800F0BBFE00211A4800F0B7FE002162
:1069E0001948DDE70021194800F0B0FE00211848E1
:1069F00000F0ACFE0021104800F0A8FE0021154870
:106A0000CEE70021144800F0A1FE00210A4800F062
:106A10009DFE0021114800F099FE00211048BFE7BB
:106A2000C8C20020B8E3002048E40020AC9F030067
:106A3000C19F0300D59F0300DD9F0300EB9F030070
:106A400000A003000AA0030018A0030027A0030071
:106A50003CA0030002B103004FA003005CA00300B0
:106A600061A0030038B5324B18680C4602F046FAB4
:106A7000012832D002D302283DD038BD0123BCB159
:106A80002C4CA37002F0F6FA40F00101A1802068BE
:106A900089B201F043F9284A2848002107F0D6FAC4
:106AA0002748002240F28F21BDE8384007F0E0BAC5
:106AB000244DAB7002F0DEFA40F00101A980286895
:106AC00089B201F02BF9204A2048214607F0BEFA8E
:106AD000224640F28F211E48E6E73CB14B2000F0F1
:106AE0007DF84B20BDE8384000F08EB84E2000F015
:106AF00075F84E20F6E702F029F9420706D514B1E1
:106B0000FFF7EDFBB9E7FFF7E9FBB6E702F01EF987
:106B1000C30706D514B1FFF7E0FBAEE7FFF7DCFBD8
:106B2000ABE714B1FFF7D7FBA7E7FFF7D3FBA4E769
:106B3000C8C2002076BC002025670200A49F030085
:106B4000DCC1002070BC002001670200A89F030088
:106B5000FCC1002008B500F0070301209840C0B236
:106B600002F016F9BDE8084002F062B9FFF7F2BF83
:106B700008B500F0070301209840C0B202F010F9F8
:106B8000BDE8084002F054B9FFF7F2BFA0F58073EA
:106B9000B3F5F85F70B505460C4612D2E80501D58D
:106BA000E0208847A90501D5E120A0476A0501D565
:106BB000E220A0472B0501D5E320A047B5F5805F73
:106BC00000D270BDE420A047E520A047E620A04702
:106BD0002346E720BDE8704018470000A0F1E0031D
:106BE000072B10B5044600D940B905492046FFF7E8
:106BF000CDFFE0B2BDE8104001F0A5B80149F6E7CD
:106C00006D6B0200556B020010B50446C0B201F076
:106C10006BF9A4F1E003072B00D92CB903492046F6
:106C2000BDE81040FFF7B2BF0149F8E7896B0200E9
:106C3000716B02000120704708B5FFF7F5FD08BD34
:106C400010B50C4B1C5C0C4BC35C6BB1E12001F02C
:106C50007AF8204601F077F8204601F045F9E12066
:106C6000BDE8104001F040B9204601F06CF8204624
:106C7000F6E700BF9EA003001EA1030038B504463E
:106C80002078D0B1012804F1010507D164782046AD
:106C900001F059F8204601F027F904E0022804D158
:106CA000607801F050F86C1CEAE7032801D16078A5
:106CB000F1E7FFF7C5FF2546F5E738BD0021FFF7EF
:106CC000DDBF10B501248440E0B202F059F920463E
:106CD000BDE8104001F005BF02F07ABD08B500F034
:106CE0002BFFBDE8084002F077BD704708B5FFF7FD
:106CF000FCFF08BD08B5FFF7F9FF08BD704708B5F0
:106D000001F088FBFFF7FAFFBDE80840FFF72ABC57
:106D100037B50388ADF80430A44B1B780546F3B9AA
:106D200083780198BBB101F08FFF044601460198BA
:106D300001F046FF0199204600F050F9294604462B
:106D400000F082FE29462046FFF776FF60B9002456
:106D5000204603B030BD01F057FF0446EAE7019832
:106D600001F072FF0199E7E72946204600F0A0FEF6
:106D70000028ECD02946204600F044FB0028E6D04D
:106D800045F614439C4213D845F602439C4260D218
:106D9000B4F5B84F4ED045F601439C4250D0844BD9
:106DA00001221A705A702846FFF744FF0446CFE7C5
:106DB00045F6D4439C4200F0BE8018D845F61543F2
:106DC0009C42ECD101F0C2FFAA787A4B002A00F075
:106DD000F98000F0AA00002815BF0122002235200A
:106DE00029201A7001F082FF02F022F8AFE745F681
:106DF000D5439C426E4B00F0BD8045F6D64294428E
:106E0000CDD1AA78002A40F0B7805C78002C40F001
:106E1000C980694B588802F039F9C72800F2C2804E
:106E2000202001F0C7F8282000F08DFF282001F075
:106E30005BF88DE7AB78002B89D0FFF760FF86E722
:106E4000AB78002B83D05D4A137843F001031370B5
:106E50007DE7AB78002BA6D002F082F808B902F0EB
:106E600067F802F091F8A4F5B844554B033C18803C
:106E7000112C0AD8DFE804F013171B1F23272B2F30
:106E800033373B3F43474B4F53571A7842F0010289
:106E90001A70187802F07BF801F0BCFA57E71A78FC
:106EA00042F00202F4E71A7842F00402F0E71A789E
:106EB00042F00802ECE71A7842F01002E8E71A788C
:106EC00042F02002E4E71A7842F04002E0E71A7844
:106ED00042F08002DCE71A7842F00C02D8E71A7818
:106EE0006FF30002D4E71A786FF34102D0E71A7803
:106EF0006FF38202CCE71A786FF3C302C8E71A78FF
:106F00006FF30412C4E71A786FF34512C0E71A78DA
:106F10006FF38612BCE71A786FF3C712B8E71A78D6
:106F200002F0FB02E8E71A78C2F3C01181F0010118
:106F300061F3C712ACE7AC781D4B4CB100241C7058
:106F400002F098F81C4B1880022001F02AF8FFE6A6
:106F50001B785BB9184B188802F098F8C72805D839
:106F6000262000F0F0FE262000F0BEFF022001F0F7
:106F700021F8EDE6AA783AB100245C7002F07AF8C4
:106F80000D4B58802020E0E75B785BB90A4B5888AE
:106F900002F07CF8C72805D8272000F0D4FE27206F
:106FA00000F0A2FF202001F005F8D0E678C2002012
:106FB00022C200201CC200201EC200200BC30020E1
:106FC0006CE600201B78002B14BF3520292001F02F
:106FD00095FE09E70020704770470000C1F30723C2
:106FE000C3EB03124B2303FB002050FA81F0034B49
:106FF00033F8100082B002B0704700BFB69C0300A7
:10700000014B33F8100070479EA1030013B5ADF893
:1070100004100199FFF7E2FF00F056F9B0F5A04F18
:1070200004462FD2B0F5804F80F0D480E72816D8E0
:10703000E0287BD2A72808D8A5286DD2012875D0D2
:1070400001D3042872D2002470E0BE2871D9C02870
:10705000F9D3C03880B2FFF7D3FF044666E0B0F53D
:10706000005F08D2B0F5807F03D2F028EBD340F464
:10707000A044A4B25AE0B0F5405F80F0A380C0F312
:107080000B00E8E7B0F5AA4F1ED2B0F5A84FC3B287
:1070900080F0BF80B0F5A44F08D2B0F5A24FC0F089
:1070A0009E804AF2F10040EA03243FE0B0F5A64F8B
:1070B00080F0A5809808012403F003039C4044EA73
:1070C000401444F40C44D4E7B0F5B24F0FD2B0F5FD
:1070D000B04F80F0A380B0F5AC4FB4D2C0B200F096
:1070E0005FF9040204F4F85444F400541EE0B0F5CF
:1070F000B44FC0F09880A0F5C043B3F5005FA2D2B2
:10710000C0F3042000F04CF9E4B2000200F4F8509F
:1071100044F40054044309E000F0908044F28202F9
:1071200044F28303A6280CBF14461C46204602B036
:1071300010BDA82800F08580A92800F08580AA2825
:1071400000F08580AB2800F08580AC2800F08580B9
:10715000BB2800F08580BC2800F08580AD2800F0B9
:107160008580B02800F08580AE2800F08580AF28AB
:1071700000F08580B12800F08580B22800F085807D
:10718000B32800F08580B42800F08580B52800F091
:107190008580B62800F08580B72800F08580B82863
:1071A00000F08580B92800F08580BD2800F085803A
:1071B000BE2800F08580BA2844F22A6418BF4FF434
:1071C0008844B3E7C3B202054CBF43F4484443F4D8
:1071D0004044ABE7C0F30B0444F42044A6E703F0BB
:1071E000030201249440C0F3011044F40C4444EA27
:1071F0000024C3F3810344EA43139CB296E7980842
:10720000012403F003039C4044EA401444F40A447C
:107210002FE74AF2F40444EA032487E74AF2F00035
:1072200040EA042425E700F00F0000F0B9F8C4F3A9
:10723000031440EA042444F410441AE744F281049D
:1072400074E744F2E24471E744F2E9446EE744F241
:10725000EA446BE744F2B54468E744F2B64465E7B4
:1072600044F2B34462E744F2B4445FE744F2B74403
:107270005CE744F2CC4459E744F2CD4456E744F28B
:10728000835453E744F28A5450E744F292544DE752
:1072900044F294544AE744F2216447E744F22364F9
:1072A00044E744F2246441E744F225643EE744F2B3
:1072B00026643BE744F2276438E744F26F4435E73D
:1072C00044F2704432E7000082281AD00CD83128EA
:1072D00054D004D829284AD02A2856D070473528B7
:1072E0003ED039280DD07047E32823D004D8E028B9
:1072F0000ED0E22813D07047E62822D0E72829D004
:107300007047264B1B7813F0030F18BFE02070471F
:10731000224B1B7813F0010F18BF392070471F4B09
:107320001B7859071BD513F0100F08BFE32018BFB7
:1073300000207047194B1B785A072DD413F0100FFB
:10734000F5E7164B1B78190709D513F0100F08BF86
:10735000E720ECE7114B1B781A07EFD5E6207047C2
:107360000E4B1B7813F0200F18BF292070470B4BD2
:107370001B7813F0200F18BF35207047074B1B7880
:1073800013F0400F18BF2A207047044B1B7813F0EE
:10739000400F18BF31207047E22070476CE6002094
:1073A000164B1B78590707D500F01802082A12D18E
:1073B00000F0F70040F004001A0707D500F01802AB
:1073C000182A11D100F0E70040F01400DB0648BF96
:1073D00000F0E700704700F01402042A04BF00F038
:1073E000FB0040F00800E7E700F01402142A04BF95
:1073F00000F0EB0040F01800E8E700BF6CE600206A
:107400007047000070B58B78054613B901242046FB
:1074100070BD144E3478A4B945F616439842F5D1A0
:10742000FFF7EEFF0123337001F024FE0E4B1880AE
:107430000E4B1C700E4B1C805C809C80DC801C8181
:10744000E5E7094B188801F021FEB0F5967FDDD203
:10745000064A0749137821F81350013313700024AA
:10746000D5E700BF32C2002030C200202EC200206B
:1074700024C2002010B5074C4FF4007200212046B2
:1074800011F09CFD044B1C60044B4FF6FF721A80F8
:1074900010BD00BF60E4002064E6002034C200207C
:1074A000F0B585B0FFF75EFA334D344B287010F01D
:1074B000010F0CBF802220221A7002F0F7FB304B24
:1074C0006A4603F10807164618685968144603C44B
:1074D0000833BB422246F7D118681B79206023711C
:1074E0000D22642331463C2002F0FCFB50B1254BB9
:1074F00025491888000440F0030006F0DDF900205B
:1075000005B0F0BD287810F002054FF064034FF08D
:10751000030209D11D493C2002F0E4FB70B1194B74
:107520001B4918880004E6E71A493C2002F0DAFB00
:1075300020B1144B184918880004DCE764230D229D
:1075400016493C2002F0CEFB044620B10D4B1449F5
:1075500018880004CFE701F093FD124B00F56A4054
:1075600060301860FFF786FF0F4B012018700F4B3B
:1075700018700F4B1C70C3E737C2002038C20020C0
:107580009EA1030054C10020EBA603009FBC002075
:1075900007A703009CBC00202DA70300A2BC00206D
:1075A00045A7030060E6002036C2002033C2002059
:1075B00039C20020084B00EB40001B78400003FB61
:1075C000010189B2B1F5007F044B28BF00211944A5
:1075D000034B1960704700BF38C2002060E40020F0
:1075E00064E6002010B50C480C490268531A0C4A96
:1075F000063312789BB293FBF2F402FB1434121B95
:10760000D2B2052A9CBF9B189BB2B3F5007F28BF5E
:1076100000230B44036010BD64E6002060E40020FA
:1076200038C2002070B5204C05460E46062221685F
:107630001E4811F0B8FCDF2D0FD90622002120686A
:1076400011F0BCFC9EB906222168184811F09CFC80
:10765000B0B9BDE87040FFF7C5BF1549206805EB1C
:107660004505062201EB450111F09DFCEAE7236880
:10767000991D9942E7D01A78D24303F8012BF8E715
:1076800023680C4A0C489B1AC3F34A129BB201218F
:107690000488063301FA02F25B09224301FA03F37C
:1076A00013430380D5E700BF64E600203AC2002000
:1076B000ABA1030060E4002034C2002070B5134E7B
:1076C000134B3168134C1A78091B8DB295FBF2F3FA
:1076D00002FB1353D31ADBB260B10624B3FBF4F4FC
:1076E000631EDCB2FF2C00D170BD00212020FFF70B
:1076F00099FFF5E71D44B5F5007FAABF034689B29F
:107700001946194421443160EEE700BF64E60020C9
:1077100038C2002060E400200A2802D10120FFF7CF
:10772000CDBF0D2801D10020F9E7FFF77BBF70B571
:1077300004460E4611F09EFC2518AC4200D370BDE5
:10774000314614F8010BFFF7E7FFF6E708B5FFF73E
:10775000EEFF0120BDE80840FFF7B0BF37B501F0EC
:107760008FFC114B114C00F56A40603018604FF4EB
:107770002F43ADF80430237825469BB964230222B9
:1077800001A93C2002F0AEFA50B1094B0949188812
:10779000000440F0030006F08FF8207803B030BDFD
:1077A000012323702878F9E760E6002033C2002027
:1077B00054C1002071A703002DE9F74F554C2288D2
:1077C000002A00F0A380544B1B78002B40F09E80D1
:1077D000DDB242FA05F1C90703F10103F8D54F4EB6
:1077E000337813F001024E4B1BD1680100F06001A9
:1077F0009970C0091F315871D9709A714849642332
:1078000007223C2002F06EFA804698B1454B46496B
:107810001888000440F0030003B0BDE8F04F06F004
:107820004BB8EA00D2B29A7000210732DA7059716F
:107830000322E2E73378DB074FEA45170FD43B4AD0
:10784000642300933A44202340213C2002F078FA3C
:10785000002853D0334B364918880004DAE7014634
:107860002022344811F0AAFB4046334B10F803C0E5
:107870002E4BBC449C44314BC25C2E4B013A1A4403
:1078800000260123C6F1070A03FA06FB12F8019F3E
:107890005FFA8AFA5FFA8BFB4FF0000E1CF80E10AD
:1078A000AAEB0E030BEA010103F0070301FA03F848
:1078B0005B4203F0070321FA03F348EA03030EF1E6
:1078C000010E49EA0303BEF1080F5FFA83F9E5D11F
:1078D0000136082E82F80090D3D101300428C4D19B
:1078E00064230093134A202340213C2002F028FA0D
:1078F00020B10C4B1249188800048BE7FFF72EFFCC
:107900000123AB40258825EA0305258003B0BDE8A7
:10791000F08F00BF34C2002039C2002037C20020DF
:10792000AFBC002054C1002085A7030060E4002004
:10793000A8A7030040C20020DCA70300E0A70300C3
:10794000C1A7030037B50F4C4FF42E43ADF80430F8
:107950002378254693B16423022201A93C2002F03A
:10796000C1F950B1084B09491888000440F00300E0
:1079700005F0A2FF207803B030BD2070287880F099
:107980000100F8E733C2002054C100205CA70300C7
:1079900008B50C4B1B78A3B100210846FFF70AFE7F
:1079A000FEF7E2FFFFF708FF074B1B784BB101F032
:1079B00067FB064B1B68984203D9BDE80840FFF7F8
:1079C000C1BF08BD36C2002033C2002060E60020DF
:1079D00010B5012304468375407B01F0BDF9A07BFF
:1079E00001F0D6F901F024FA6368E16904F10C00B2
:1079F00013B1BDE81040184710BD000070B5437AC0
:107A00000646DBB98488A4F5AE4465010C4C6219C6
:107A100005F10C00D1699268204402B190472C44D2
:107A2000607B01F0A1F9A07B01F0BAF901F000FA46
:107A3000044A002333703372B372138070BD00BFE9
:107A40007CBC002060C200202DE9F8438B780746FB
:107A500073B1144E96F90020013209D0124CDFF8B0
:107A60004C9000254FF0010896F90030AB4201DA46
:107A7000BDE8F883237B8BB1238ABB4203D1B9F8DD
:107A80000030BB420AD0A37D84F8148013B920468D
:107A9000FFF79EFF04F10C00FFF7B0FF0135203423
:107AA000E2E700BFB6BC00207CBC002060C2002022
:107AB000F8B5A0F5AE44FF2C074629D81B4B1C4E49
:107AC00093F90000A4B222B29042B8BF1C706401C6
:107AD00035198B786B758A782B7BDAB101332B7370
:107AE0002F8201F0C7FA688201F07EF9687301F015
:107AF0002DF9A87301F046F9AB7BE9691843A87327
:107B0000335904F10C00304403B19847094B1F80EE
:107B10000120F8BD002BFBD0AB7D002BF8D004F189
:107B20000C003044FFF76AFFF2E700BFB6BC00204C
:107B30007CBC002060C200202DE9F843154B93F96E
:107B400000200132994620D1BDE8F883640108EB9A
:107B500004052E8B2B7B002E08BFC82673B1688AC4
:107B600001F094FAB04209D9AB7D13B92846FFF76A
:107B70002FFF04F10C004044FFF740FF013799F953
:107B80000030FCB29C42E1DDDEE70027DFF8088030
:107B9000F5E700BFB6BC00207CBC0020014B18609C
:107BA000704700BF64C20020024B186808B1036828
:107BB0001847704764C20020024B1B680BB15B681A
:107BC0001847704764C20020024B1B680BB19B68CA
:107BD0001847704764C20020054B1988814205D0C0
:107BE0001880044B1B680BB1DB681847704700BF57
:107BF0006AC2002064C20020054B1988814205D06A
:107C00001880044B1B680BB11B691847704700BFF5
:107C100068C2002064C200200120704708B501F04E
:107C200019FA01F01FFE01F08BFBFEF747FD08BDBE
:107C30002DE9FF4701F06CFFFFF7EEFF002850D061
:107C4000334EDFF8D490002437465FFA84F840467C
:107C500001F0C6FD36F81450854282463ED099F8B0
:107C60000030980701D501F0C1FD85EA0A0500231F
:107C7000ADB245FA03F1C907DAB22CD501259D4012
:107C80001AEA050F14BF012300238DF800208DF898
:107C900002308DF8018001F0EDF940F001006B46F3
:107CA000ADF8040093E8030000F038F837F814301A
:107CB0006B4027F81430174C01F0CAFCFFF774FF33
:107CC0002378834220D0FFF76FFF207004B0BDE817
:107CD000F047FFF70FB801330F2BCAD10134052C41
:107CE000B3D14FF6FF73ADF8083000238DF80A309A
:107CF00001F0C0F940F00100ADF80C0004AB13E94D
:107D0000030000F00BF8D6E704B0BDE8F08700BF31
:107D10006EC200206CC200200BC3002084B06B46F2
:107D200083E803000022ADF80E2093E8030004ABC3
:107D30000290ADF80C1013E9030004B000F012BE7D
:107D4000008800F0A3BF08B5002800F0CC8082288E
:107D500010D1FFF729FF810700F1C580392000F01D
:107D6000C5FF01F065F8392000F0C8FFBDE8084004
:107D700001F05EB883280BD1FFF716FFC20700F1B0
:107D8000B280532000F0B2FF01F052F85320EBE72D
:107D900084280BD1FFF708FF430700F1A480472098
:107DA00000F0A4FF01F044F84720DDE7021FD2B243
:107DB000A02A02D800F09AFFD8E700F12002D2B240
:107DC000072A07D800F0070301209840C0B200F04E
:107DD000C3FFCBE700F15B02D2B2022A0BD8A52881
:107DE00007D0A6280CBF82208320BDE80840FFF7FB
:107DF000F3BE8120F9E700F15802D2B2162A6AD800
:107E0000A82832D0A92832D0AA2832D0AB2832D024
:107E1000AC2832D0BB2832D0BC2832D0AD2832D0EA
:107E2000B02832D0AE2832D0AF2832D0B12833D0EB
:107E3000B22834D0B32835D0B42836D0B52837D0BE
:107E4000B62838D0B72839D0B8283AD0B9283BD08E
:107E5000BD283CD0BE283CD0BA2840F22A2018BF0A
:107E60000020BDE80840FFF7C7BEE220F9E7E9209F
:107E7000F7E7EA20F5E7B520F3E7B620F1E7B3200E
:107E8000EFE7B420EDE7B720EBE7CC20E9E7CD2022
:107E9000E7E740F28310E4E74FF4C570E1E74FF401
:107EA000C970DEE74FF4CA70DBE740F22120D8E763
:107EB00040F22320D5E74FF40970D2E740F22520A5
:107EC000CFE740F22620CCE740F22720C9E76F2019
:107ED000C7E77020C5E7EF2805D901F0B9FABDE87A
:107EE000084001F0A7BB08BD08B5002858D082287B
:107EF0000FD1FFF759FE810752D5392000F0F6FE69
:107F000000F096FF392000F0F9FEBDE8084000F0CF
:107F10008FBF83280AD1FFF747FEC20740D5532001
:107F200000F0E4FE00F084FF5320ECE784280AD13F
:107F3000FFF73AFE430733D5472000F0D7FE00F0A5
:107F400077FF4720DFE7021FD2B2A02ADBD900F17A
:107F50002002D2B2072A07D800F007030120984078
:107F6000C0B200F001FFD0E700F15B02D2B2022AFA
:107F700004D80020BDE80840FFF72EBE00F15802EB
:107F8000D2B2162A04D80020BDE80840FFF734BE5C
:107F9000EF2805D901F0C6FABDE8084001F04ABB58
:107FA00008BD08B528B100F0D7FEBDE8084000F0D4
:107FB0003FBF08BD08B528B100F0D6FEBDE80840B7
:107FC00000F036BF08BD00002DE9F84390F8069098
:107FD000857807460C464FEA19190DB100F0E8FE06
:107FE00000F0AAFE804670B11DB304F12003DBB29D
:107FF000072B1ED9022000F069FF00F09DFE80F0E3
:1080000001005FFA80F8C4F303360F2E40D8DFE892
:1080100016F0130013005A005A00A400BD003F00E0
:108020003F00F10049015B015B01B1013F003F00EE
:10803000BA014FF00008E6E7C4F30723C4F30326B0
:1080400013F0F00F18BF3601E4B295B156B104F148
:108050002003DBB2072B304600D93CB900F07CFE90
:1080600000F0E6FE2046FFF76EFE11E000F090FE05
:10807000F6E72046FFF738FF56B104F12003DBB2E4
:10808000072B304600D9DCB900F06EFE00F0D0FEC0
:10809000B8F1000F00F07E8100F046FE10F0010004
:1080A00040F07881B87000F037FE00F04FFD3846A0
:1080B00000F074F900F030FEBDE8F84300F050BD68
:1080C00000F06EFEE2E7C4F3072303F0F003C4F30D
:1080D0000326202BE0B218BF360160B101282CD056
:1080E000ADB3B9F1000F2CD0BB79D907BBD56FF375
:1080F0000713BB7125E09DB1B9F1000F06D100F067
:1081000073FE3043C0B2FFF74CFFC1E7B9F1010F76
:10811000F5D100F069FE3043C0B200F071FEB7E760
:10812000B9F1000F05D100F077FE3046FFF742FFAE
:10813000AEE7B9F1010FABD0F5E725B1B9F1050F05
:10814000A6D83046DFE7B9F1040FA1D8EDE7B9F1C1
:10815000000FEAD0FFF7C8FE9AE7C4F381232BB1E2
:10816000012B0BD0083E032E61D991E725B1C4F352
:108170000900FFF731FD8BE72846FAE725B1C4F384
:108180000900FFF739FD83E72846FAE7E0B2CDB1F1
:10819000F5280DD0F62810D0F42804D17E4A1368B3
:1081A00043F00103136001F053F901F043FA6FE764
:1081B000794A136843F00203F4E7774A136843F0FF
:1081C0000403EFE7F5280BD0F6280ED0F42804D1ED
:1081D000714A136823F00103136001F0A3F9E4E787
:1081E0006D4A136823F00203F6E76B4A136823F025
:1081F0000403F1E714F4407F27D1C5B9E206C4F3C4
:10820000421048BF0F254FEA800048BF854004F068
:108210000F03C4F3812448BFED438340022C45EA99
:1082200003000CD00ED8012C06D000F065FCFFF73F
:10823000BBFCFEF75FFD2BE700F056FCF7E700F014
:1082400063FCF4E700F04DFCF1E7C4F30122D3B284
:10825000EDB102F00103002BE9D0C4F3421083001A
:1082600004F00F0000FA03F214F010001CBF0F20FE
:108270009840C4F3812418BFC043022C40EA020096
:108280000AD00CD8012C04D000F088FCCFE75B08A2
:10829000E1E700F07BFCCAE700F088FCC7E700F0EC
:1082A00041FCC4E7E6B2C4F3032435B1204600F034
:1082B0004DFC3046FFF775FEB9E73046FFF77AFE12
:1082C000204600F04DFCB2E7E0B2A0F1F003042B31
:1082D0003DD8DFE803F00310161D260045B1B9F1C3
:1082E000040F3FF63FAFC4F3042000F045FC39E72C
:1082F000B9F1050FF5E7C4F3042035B100F026FC11
:1083000030E7C4F30420002DF8D000F029FC29E761
:1083100025B1C4F3042000F014FC23E700F00EFCA8
:1083200020E74DB1C4F30424204600F00FFC0321E4
:10833000204600F0B1FD15E7012000F0C7FDB9F1BE
:10834000010F7FF60FAF022000F0C0FD0AE745B134
:10835000B9F1000F02D0FFF7F6FC03E7C4F30420E5
:10836000CCE7B9F1000F02D0FFF7BEFDFAE6C4F387
:108370000420CAE7C4F30322E1B23846FEF72AFE1E
:1083800000F05CFB84E6C4F30322E1B23846FEF75A
:1083900023FE7DE6BDE8F88368E6002037B58388D4
:1083A0000288ADF804200446C3B1BDF804204FF69E
:1083B000FF739A4212D0FEF7ABFC78B12188A07807
:1083C00000F070FC054600F0F9FB00F089FB29463F
:1083D000204603B0BDE83040FFF7F6BD03B030BD26
:1083E00008B500F0E5FC00F0F9FC00F021FD01F01B
:1083F000ADF901F01FF90020FFF7EEFB0020BDE80A
:108400000840FFF7F9BB08B500F080FCBDE8084064
:10841000FFF7E6BF08B500F0AFFCBDE80840FFF786
:10842000F2BFC0F303330E3303F00F020D2A0CD852
:108430000123934013F4105FC1B217D140F203300F
:10844000184004D113F010030BD100207047F0291D
:1084500002D003D8E729F8D801207047F429F4D1D5
:10846000FAE7E729F8D9F129F6D07047C0F3C02020
:10847000704707B5ADF80400019800F007FC03B0A1
:108480005DF804EBFFF7CDBF82B002AB03E9030058
:1084900002B0704782B002AB03E9030002B070473C
:1084A00070B5094B094E1C78094D3378A34200D1B1
:1084B00070BD05EBC40355F8340059680134FFF76B
:1084C000E9FF04F00704F0E7C3C20020C2C20020A5
:1084D00082C20020024B18685968FFF7DBBF00BF5B
:1084E0007AC200202DE9F341274A937913F0F00F67
:1084F0000CD1937853B1254BDFF898C01978244DEF
:108500004FF6FF769CF800308B4202D102B0BDE8F6
:10851000F0819388002B33D0177892F801E08DF822
:1085200004708DF805E0BDF80400B04228D0C80002
:108530002C1894F80180F04522D115F831E0BE45A1
:108540001ED1A778E7B9A488A3428ABFF31AE31A19
:108550001B19C72BCCBF002301238BB193790121B9
:1085600061F3071393712B1807489A7961F3071287
:108570009A71FFF713FF02B0BDE8F041FFF790BF1B
:10858000013101F00701BDE77AC20020C3C200201B
:1085900082C20020C2C200202DE9F047A54C05464A
:1085A0008EB0A7880068218808900DF1200C2A78E9
:1085B0006B7895F80280B5F80490ADF8041094F843
:1085C00000E06078002F00F03D818EB24FF6FF7121
:1085D0008E4200F03781A678002E00F033814F459F
:1085E0008ABFCF1BA9EB07074F44C72FA179CCBF88
:1085F0000027012701F0F00A002F00F0C980BAF12E
:10860000000F7BD18DF809008DF808E0BDF808C097
:108610004FF6FF708445464618D08DF820208DF81F
:1086200021302088BDF820C084450FD176B90123C0
:1086300063F30711A171FFF74DFF7E48FFF7AEFE10
:10864000A379AB7130460EB0BDE8F087B9F1000FE9
:1086500008D1B8F1000FF5D0A37943F00103A3715D
:108660000026EFE78DF81C208DF81D30BDF81C00AA
:108670004FF6FF718842ECD0B8F1000FECD16E4894
:108680006E4990F800C009786D4861450FD18DF8AA
:1086900020208DF82130089800F0F8FAC0F303325A
:1086A000C3B2032A1DD8DFE802F01313212100EB27
:1086B000C10494F801E09E4506D110F831E09645DA
:1086C00002D1A478002CBDD1013101F00701DCE713
:1086D00010F4706F01D0002BB4D02033DBB2072B25
:1086E000B0D92846FFF75AFE3E46ABE710F4706F4C
:1086F000F3D0AA7912F0F00FEFD1A3E78DF80D00B7
:108700008DF80CE0BDF80C604FF6FF70864216D075
:108710008DF820208DF821302088BDF82060864219
:108720000DD1B8F1000F0AD1A9712846FFF736FE26
:108730002B6823606B686360FFF7CCFED4E78DF88D
:1087400020208DF821300898FFF793FEE0B1B8F1B2
:10875000000F19D0A3791F2B0CD92288ADF828203F
:1087600000228DF82A20ADF82C908DF82E300AA822
:10877000FFF714FE2B6823606B686360FFF7B2FE9F
:10878000FFF7A8FE01265DE72846FFF707FEF9E799
:10879000BAF1000F13D18DF820208DF821308DF81B
:1087A0002280ADF824909CE80300FFF76DFE21487D
:1087B000FFF7F4FD27606760FFF78CFE50E78DF848
:1087C00011008DF810E0BDF810704FF6FF70874271
:1087D00014D08DF820208DF821302088BDF820702D
:1087E00087420BD1B8F1000F08D1A9712846FFF7D5
:1087F000D5FDC4F80080C4F8048023E78DF820205C
:108800008DF821300898FFF734FE0028BCD0B8F16D
:10881000000FB9D0A3791F2BACD92288ADF8302036
:1088200000228DF83220ADF834908DF836300CA847
:108830009EE700BF7AC20020C2C20020C3C200204F
:1088400082C20020002F72D08DF814E08DF8150040
:10885000BDF814104FF6FF76B14268D0A178002918
:1088600065D14F4539D8A9EB0707C72FCCBF0026E4
:108870000126002E4CD04646002E85D08DF818E0FB
:108880008DF81900BDF818004FF6FF7188422DD001
:108890008DF820208DF821302188BDF820008842F5
:1088A00024D1A379DA071CD413F0F00F19D003F008
:1088B000F002F02A1CBFC3F303120132AB711CBFDC
:1088C00062F30713AB712846FFF768FD2B6823603E
:1088D0006B686360FFF7FEFDB4E6F61B4E44C72EDF
:1088E000C4E72B6823606B686360ABE68DF82020DB
:1088F0008DF821300898FFF7BCFD00287FF43AAFCF
:10890000A379284643F00103A371FFF747FD99E6D9
:108910008DF82280ADF824908DF820208DF821303C
:108920009CE80300FFF7B0FD26606660D2E7B8F16F
:10893000000F3FF429AF8DF820208DF821300898E2
:10894000FFF797FD064600283FF41EAF2B68236013
:108950006B6803486360FFF7F3F9FFF7C3FDB9E7FE
:108960007AC20020F0B587B06C4684E80300204648
:10897000FFF712FE2D4E2E4D074688B1BDF804308C
:10898000BDF80020ADF8082043B192B24FF6FF7356
:108990009A4203D094E80300FFF77CFD254C40E0A9
:1089A00094E8030004AB83E80300BDF80420BDF89D
:1089B0001010ADF80C10002AF0D089B24FF6FF72FB
:1089C0009142EBD034782978621C02F007028A4287
:1089D0000BD0184F327003CB07EBC40C47F83400B0
:1089E000CCF80410FFF75CFDD8E7FFF713FD124B3E
:1089F00037702F701F605F6007B0F0BD04EBC000E0
:108A0000FFF7CAFD0028F7D02B7804EBC30254F817
:108A100033005168FFF73EFD2B78013303F0070365
:108A20002B70287833788342E8D1E5E7C2C2002072
:108A3000C3C2002082C200207AC2002038B558B1DB
:108A400001250378732B00F1010406D8042B32D2E0
:108A5000012B0DD0022B1DD038BD752B29D9A3F1C8
:108A600084026F2AF8D803F07F00FFF73DFA0FE089
:108A7000841C407800F12002D2B2072A1CD800F0F2
:108A8000070003FA00F0C0B200F098F900F0D0F946
:108A90002046D6E7841C407800F12003DBB2072B88
:108AA000E3D800F0070005FA00F0C0B200F08EF93C
:108AB000ECE7841CECE71846FFF745F9E8E7704758
:108AC00008B5FFF7FCFF08BD08B5FFF7F9FF034B3A
:108AD0001860BDE80840FFF783BC00BFC4C2002097
:108AE0007047FFF7F1BF0000024B1B681843FFF708
:108AF000EBBF00BFC4C20020024B1B681840FFF749
:108B0000E3BF00BFC4C20020024B1B685840FFF700
:108B1000DBBF00BFC4C20020704708B5FFF7FCFFF1
:108B200008BD000008B5FFF7F8FF034B1860BDE86B
:108B30000840FFF755BC00BFC8C200200020FFF767
:108B4000F1BF012303FA00F0FFF7ECBF012303FAA2
:108B500000F0024B1B681843FFF7E4BFC8C20020B7
:108B6000012303FA00F0034B1B6823EA0000FFF720
:108B7000D9BF00BFC8C20020012303FA00F0024B96
:108B80001B685840FFF7CEBFC8C20020024B1B68CD
:108B90001843FFF7C7BF00BFC8C20020024B1B68C5
:108BA0001840FFF7BFBF00BFC8C20020024B1B68C0
:108BB0005840FFF7B7BF00BFC8C200207047000091
:108BC000C0F30723C3EB031353FA80F3DBB237B5CB
:108BD00003F0070201209040DB080A4A03EB8303FD
:108BE000C0B21344002413F8015F21FA04F242F3E7
:108BF00000026A40024001346A40052C1A70F2D12A
:108C000003B030BDCBC20020C0F30723C3EB031376
:108C100013B553FA80F0C0B200F007040949C00848
:108C200000EB80000022014410468B5CE34003F01F
:108C30000103934001321843052AC0B2F5D102B0B6
:108C400010BD00BFCCC2002073B50E4BADF80400C0
:108C50001E680D4B1B681F241E4326FA04F3DB0716
:108C6000E5B206D414F1FF34F7D20025284602B04D
:108C700070BD01992846FEF7C9F980B20128F1D0EC
:108C8000F4E700BFC8C20020C4C2002007B5ADF899
:108C900004000198FFF7D8FF019903B05DF804EBD9
:108CA000FEF7B4B913B5104BADF804101B782BB117
:108CB000019802B0BDE81040FFF7E8BF70B101981D
:108CC000FFF7C2FF044601460198FFF779FF0199BB
:108CD000204602B0BDE81040FEF798B90198FFF7B2
:108CE00093FF0446F3E700BF78C20020024B014621
:108CF000186800F084B900BFB8BC0020024B0146E0
:108D0000186800F07EB900BFB8BC0020014B18689D
:108D100000F079B9B8BC0020024B93F90000C0F311
:108D2000C700704707C30020024B187800F0070007
:108D3000704700BF07C30020034B187810F00700EE
:108D400018BF0120704700BF07C30020014B1878EF
:108D5000704700BF09C30020024A137818431070FF
:108D6000704700BF09C30020024A137823EA0000BD
:108D70001070704709C30020014B00221A70704721
:108D800009C30020014B1878704700BF0AC30020B8
:108D9000024A137818431070704700BF0AC30020BE
:108DA000024A137823EA0000107070470AC30020BB
:108DB000014B00221A7070470AC30020024A137840
:108DC00018431070704700BF06C30020024A137892
:108DD00023EA00001070704706C30020014B0022F8
:108DE0001A70704706C30020014B1878704700BF07
:108DF00008C30020704708B5FFF7FCFF08BD00005E
:108E000008B5044B1978814202D01870FFF7F3FFC0
:108E100008BD00BF08C3002008B5044B1A781AB17A
:108E200000201870FFF7E7FF08BD00BF08C300204F
:108E300010B5114C11492268097811702168104849
:108E40000A78007802430A7021680E480A78007890
:108E500002430A700C4A12784AB1236819780A430F
:108E60001A70206800F097F808B1FFF7D5FF206866
:108E7000BDE81040FEF7A0BEB8BC002009C300202A
:108E80000AC3002006C3002008C30020704708B5AD
:108E9000FFF7FCFF08BD000010B5064C41EAC00119
:108EA0002170FFF753FE94F90000C0F3C700FFF7ED
:108EB000EEFF10BD07C3002008B5034B002018705B
:108EC000FFF7E5FF08BD00BF07C3002008B50A4A49
:108ED00092F9003023EA000040B2107042070AD134
:108EE000DBB2834207D0C0F3C700FFF739FEBDE80D
:108EF0000840FFF7E1BF08BD07C30020030C002BAB
:108F000016BF184600231023020A1CBF1046083360
:108F100002091EBF04331046DBB282081EBF0233B3
:108F20001046DBB242081CBF0133DBB21846704763
:108F300008B54FF6ED61002000F000FA0021022094
:108F400000F0FAF90021032000F0F6F900210420D6
:108F500000F0F2F900210520BDE8084000F0ECB96E
:108F600008B5002000F0C0F94FF6ED63C31A58426F
:108F7000584108BD022000F08FB9032000F08CB9E1
:108F80000146032000F0D8B9042000F085B901465D
:108F9000042000F0D1B9821C00F1080300209A429D
:108FA00000D1704712F8011B0029F8D00130C0B27F
:108FB000F5E730B54FF0FF33851C002215F8014B63
:108FC0008C420ED0B3F1FF3F02D1002C08BF1346F4
:108FD0000132D4B2062C62B2F0D15A1C01D018442E
:108FE000817030BD10B5831C0022083013F8014B8E
:108FF0008C4208BF03F8012C8342F7D110BDFFF764
:10900000D8BFFFF7EFBF0622002102300FF0D6BF16
:1090100008B5084A084813680A3313600021074A54
:1090200005F014F800224FF4A4710548BDE808408B
:1090300005F01EB82CC30020E4A703001190020025
:109040000CC30020024A136818441060704700BF28
:109050002CC3002008B5054A0548002104F0F6FF9E
:1090600018B1BDE8084004F0A7BD08BD119002008A
:10907000E4A70300014B186880B270472CC300209E
:10908000014B1868704700BF2CC30020054B1A68BD
:109090001B6892B2904288BF03F1FF33181A80B266
:1090A000704700BF2CC30020024B1960024B1860B0
:1090B000704700BF30C3002034C3002041DF704739
:1090C00030B5354D4268354B017853F82230344A7B
:1090D0000446288852F821203249000487B040F025
:1090E000030004F0F7FB2378052B2BD8DFE803F00F
:1090F000032C2A2C2A48616821BB2B4B01221A70B1
:1091000001A812220FF05AFF01A805F02FFF08B1A5
:1091100004F052FD2888BDF808202449000440F0DE
:10912000030004F0CDFB2888BDF80A202049000484
:1091300040F0030004F0C4FBBDF80A30222B01D933
:1091400005F0C2FE07B030BD6368002BFAD1288855
:10915000A2681849000440F0030004F0B1FB28881D
:10916000A2891549000440F0030004F0A9FB2888F7
:10917000E2891249000440F0030004F0A1FBE1E79A
:109180006368002BDED128880D49000440F00300FD
:1091900004F092FBD6E700BF54C10020BCBC002005
:1091A00094A80300E8A7030064C3002000A80300FC
:1091B00018A8030050A8030062A8030072A80300C7
:1091C00085A803001FB51E4805F0ACFC05F0C0FCE7
:1091D00008B104F0F1FC1B4A13784BB300210822BC
:1091E0006846CDE900110FF0E9FE6B46164A41F2E0
:1091F00001014FF4805005F08BFEE0B9CDE902008B
:1092000002A9114805F0A2FD08B104F0D5FC242202
:1092100003990E480FF0C7FE0B4805F0BBFD08B1DF
:1092200004F0CAFC0A4B01221A7005B05DF804FB79
:10923000FFF744FFD0E70749034805F00DFEEEE7CE
:10924000C190020064C3002068C3002038C300201E
:109250005CC30020ACA8030008B50B4A137893B197
:109260000A4B1968C8290BD90021196008481170E8
:10927000084905F0FBFD30B1BDE8084004F09CBC96
:109280001A6804321A6008BD5DC3002060C3002064
:1092900068C30020ACA8030010B5044B1B7804463B
:1092A0000BB9FFF78FFF024B185D10BD5CC30020A8
:1092B00038C3002038B5084B1B7804460D460BB95F
:1092C000FFF780FF054B1D55054B01221A70054B1A
:1092D00000221A6038BD00BF5CC3002038C30020E4
:1092E0005DC3002060C3002038B50546FFF7D4FFFA
:1092F0000446681CFFF7D0FF44EA002080B238BD66
:1093000038B5094B1B7805460C460BB9FFF75AFFD9
:10931000064B5C552B44240A5C70054B01221A70E5
:10932000044B00221A6038BD5CC3002038C3002003
:109330005DC3002060C30020FFF7BCBFFFF7E0BFA4
:1093400008B5FFF70DFE08B9FFF7F2FDFFF712FEB3
:10935000054B1870FFF718FE044B1880FFF70DFE41
:10936000BDE80840FFF7BDBB0BC300206CE6002042
:10937000194B1B78D90709D5184B187800EB8000DA
:1093800080087F2823D820B3C0B270479A0705D53C
:10939000124B187800EB80004008F2E75B0704D519
:1093A0000E4B187800EB8000EBE70D4B1B7863B198
:1093B0000C4A0A4912780878934200EB80003EBFBD
:1093C000584390FBF2F080B2DBE70520DCE77F201A
:1093D00070470120704700BF7BC30020FEBC002007
:1093E0007CC30020FFBC0020154B1B78D90705D596
:1093F000144B1878800800B3C0B270479A0703D5A1
:10940000104B18784008F6E75B0705D50D4B187828
:109410007F28F0D97F2070470B4B1B785BB10B4A3C
:10942000084912780878934236BF10FB03F080B2E7
:1094300090FBF2F0ECE70120DEE70120704700BF6F
:109440007BC3002000BD00207CC3002001BD0020A4
:10945000F02808B505D1FFF78BFF40422F4B9870DD
:1094600008BDF12802D1FFF783FFF7E7F22805D105
:10947000FFF77EFF4042294B5870F1E7F32802D1F5
:10948000FFF776FFF7E7F92804D1FFF7ADFF234B8D
:10949000D870E5E7FA2803D1FFF7A6FF4042F6E7C8
:1094A000FB2805D1FFF7A0FF40421C4B1871D7E7FE
:1094B000FC2802D1FFF798FFF7E7F42804D1174AF8
:1094C000137843F0010313E0F52804D1134A13780D
:1094D00043F002030CE0F62804D1104A137843F05D
:1094E000040305E0F72805D10C4A137843F008037C
:1094F0001370B5E7F82804D1084A137843F0100335
:10950000F6E7FD2801D1064ADAE7FE2801D1044A30
:10951000DDE7FF28A4D1024AE0E700BF76C30020C0
:109520007BC30020F028404B14D193F90220002A7D
:1095300001DA00229A7093F9012052B993F90220BE
:109540003AB993F9032022B993F904300BB9374A99
:1095500013707047F12804D193F90220002AE8DC47
:10956000E9E7F22893F9012004D1002AE3DA002286
:109570005A70E0E7F32802D1002AF8DCDBE7F9288B
:1095800006D193F90320002AD5DD0022DA70D2E754
:10959000FA2804D193F90320002ACCDAF5E7FB2856
:1095A00006D193F90420002AC5DA00221A71C2E715
:1095B000FC2804D193F90420002AF6DCBBE7F42848
:1095C00004D11A7822F001021A70B4E7F52803D109
:1095D0001A7822F00202F7E7F62803D11A7822F06F
:1095E0000402F1E7F72803D11A7822F00802EBE72A
:1095F000F82803D11A7822F01002E5E7FD2805D1FA
:109600000B490A7822F001020A7094E7FE2804D17F
:1096100007490A7822F00202F6E7FF288BD10449B5
:109620000A7822F00402EFE776C300207CC3002012
:109630007BC3002008B50448FEF7C6FAFFF71AFD01
:10964000024B188008BD00BF76C3002074C3002001
:10965000F8B5394B1888FFF719FD38490A78A2B1D7
:10966000374B1B7898420FDB364C94F9013094F954
:10967000027094F9036094F9045063B9002F58D133
:10968000002E56D1002D54D1F8BD2F4B1B7803EB83
:1096900083035B00E6E7FF2A01D001320A70002B4A
:1096A00002DDFFF765FE607094F90130002B03DAEC
:1096B000FFF75EFE40426070002F02DDFFF758FEAC
:1096C000A07094F90230002B03DAFFF751FE4042FC
:1096D000A07094F9012072B194F9021059B1B52328
:1096E0005A43121203FB01F308BF01221B1208BFE9
:1096F00001236270A370002E02DDFFF775FEE0709B
:1097000094F90330002B03DAFFF76EFE4042E0705D
:10971000002D02DDFFF768FE207194F90430002B64
:1097200003DAFFF761FE40422071BDE8F840FFF721
:1097300081BFFF2AB1D1BFE774C300207CC30020E2
:10974000FDBC002076C30020FCBC0020044A00239E
:1097500013601371034A1370034A1370704700BFFC
:1097600076C300207CC300207BC3002002790368FD
:1097700082B033F81230ADF804309DF80430002088
:1097800063F307009DF8053063F30F2002B07047C4
:10979000002937B5C0F3072014BF05210021440874
:1097A0000A4D0F2394FBF3F31944C3EB0313E41A9C
:1097B000012335F91120A3401BB2C0074CBF1A4347
:1097C0009A4325F8112003B030BD00BF7EC30020AE
:1097D00008B5FCF776FF08BD08B5FCF77EFF08BDAD
:1097E000014B33F8100070477EC300207047000023
:1097F00030B500220C4C0D4D104654F822101F2994
:109800008ABF2B464FF0A04301F01F01D3F810355B
:10981000CB40DB4303F00103934001321843052A98
:10982000C0B2EAD130BD00BFA4AA030000030050BB
:1098300030B50A4C0A4D0022012054F822301F2B6B
:1098400086BF03F01F0329464FF0A041013200FA02
:1098500003F30F2AC1F80835EFD130BD68AA030021
:109860000003005038B51D4C1D4D00220C2054F84B
:1098700022301F2B86BF03F01F0329464FF0A04163
:1098800003F5E0730132052A41F82300EFD1154CAE
:10989000134DFFF7CDFF002240F2036054F8223051
:1098A0001F2B86BF03F01F0329464FF0A04103F58D
:1098B000E07301320F2A41F82300EFD10A490B4A25
:1098C00000230B8013804B8053808B809380CB8050
:1098D000D3800B811381FDF7FFF938BDA4AA0300E3
:1098E0000003005068AA03007EC3002088C3002044
:1098F000074B53F820301F2B86BF03F01F03054989
:109900004FF0A041012202FA03F3C1F80C35704771
:1099100068AA03000003005010B5FFF7E9FFFFF746
:1099200067FF0446FFF784FF204610BDF8B50E4DD3
:1099300000240126E0B2FFF7EFFF06FA04F109B2B6
:10994000CF43002335F9132040FA03FC1CF0010F2C
:1099500014BF0A433A4025F813200133052BF1D1F7
:1099600001340F2CE6D1F8BDAEE600202DE9F04120
:1099700086B000240594FFF7D9FF5C4A5C49107853
:109980005C4F23460D4637F8136031F813C0B445D9
:1099900018BF21F8136003F101031CBF012402204A
:1099A000052BF0D104B11070137833B3013BDBB257
:1099B000137013BB504FDFF854C1BE4637F8130085
:1099C00035F8132090424FEA43060FD0002180EA79
:1099D000020444FA01F0C00705D5059805980598DA
:1099E00005980130059001310F29F2D10133052B83
:1099F0002EF8062026F80C20E0D14049404C0B7888
:109A000094F806800133DBB2FF2B08BF00230B70F4
:109A1000B8F1000F29D02046FFF7A8FEC6B2394D95
:109A2000AB7923B32846FFF7A1FEC7B235480978C2
:109A3000FFF79CFEFF2FADF810000FD0324B1A78C5
:109A40003C2393FBF2F39DF81020891AC9B28B4294
:109A500011DBB8F1000F0CD1BE4202D8284DA3791A
:109A60004BBB012006B0BDE8F081FF26D7E7FF27FA
:109A7000DCE7BE42F2D9DFF88C8018E04046FFF701
:109A800075FEADF80400C0B2B842E5D100210198DE
:109A9000FFF77EFEAA7952B12B79E8790133DBB268
:109AA000013AB3FBF0F100FB11332B71AA71AB79D2
:109AB000002BE3D1D0E72846FFF758FEADF80400AD
:109AC000C0B2B042CDD101210198FFF761FEA27969
:109AD000002AC4D02379E0790133DBB2013AB3FB29
:109AE000F0F100FB11332371A271B8E702BD002031
:109AF00088C30020AEE6002092C300209CC3002053
:109B00000CBD002004BD0020F6B303007EC300207E
:109B100010B50448FFF72AFF0446FDF7DFF820469A
:109B200010BD00BF7EC3002033DF704708B503F0CF
:109B300061FD18B9BDE8084006F0AAB908BD704734
:109B400010B54FF40041002003F0EEFC08B104F022
:109B500033F8084C03F024FC0321204603F0DEFE1A
:109B60000123637206F07EF918B1BDE8104004F0DD
:109B700023B810BD14BD0020F8B50C680D46082CA4
:109B800006464FF6FF7028BF082409F04BFE00235D
:109B90002B604FF6FF77B84202D014F1FF3400D2A9
:109BA000F8BD2B685A1C2A6026F8130009F03AFE0B
:109BB000F1E7000008B5084B08491888000440F098
:109BC000030003F079FE09F085FE18B1BDE80840F6
:109BD00003F0F2BF08BD00BF54C10020CBAA0300B0
:109BE00010B5044601F0AAFC204609F069FE08B150
:109BF00003F0E2FF054B064918880004224640F0B6
:109C00000300BDE8104003F05BBE00BF54C100205C
:109C1000B8AA030030B44FF08043D3F83824D107FA
:109C200001D5920730D5D3F8383403F00303032B62
:109C30002AD0164C164D0022012054F822301F2B3A
:109C400086BF03F01F0329464FF0A041013200FAFE
:109C500003F30F2AC1F80C35EFD10E4C0C4D0E4812
:109C6000002254F822301F2B86BF03F01F03294621
:109C70004FF0A04103F5E0730132052A41F82300BB
:109C8000EFD130BCFFF750BF30BC704768AA03006B
:109C900000030050A4AA03000C0003000378024A4A
:109CA00001331360704700BFA0C4002030B50A4BD9
:109CB0000A4D0FCB85B06C4684E80F002146002387
:109CC000074A284607F014F80446284607F098F893
:109CD000204605B030BD00BFDCAA0300F8AA03008F
:109CE0009D9C020037B5124C00232360009313465D
:109CF0000A4601460F4807F0D1F930B1206810F14B
:109D0000FF3018BF012003B030BD40F2E9352368B1
:109D1000002BF3D106F0BCF8013DF8D1064B074902
:109D20001888000440F0030003F0C6FDE6E700BF1A
:109D3000A0C40020F8AA030054C10020ECAA03002C
:109D40002DE9F0410A4DBDF81870064628469446A4
:109D50001C461A4600F8011B61460FF024F9621CEC
:109D60003B462946304692B2BDE8F041FFF7BABF04
:109D70009DC300207047000030B50C4C0C49206892
:109D800085B00025009068468DF8005006F0B2FDC1
:109D9000234601AA53F8040F59681B7A03C201A98C
:109DA0002846137006F0EAFD05B030BD00AB030095
:109DB000759D020010B5044C0020214606F034FECB
:109DC00008B10023238010BDA4C40020064BB3F9C2
:109DD00000004FF4616320EAE07010FB03F0FF2302
:109DE000B0FBF3F080B27047A4C400207047704706
:109DF00010B50121174800F021FE02210446154844
:109E000000F01CFE002814BF022300230421114887
:109E10001C4400F013FE002814BF04230023082173
:109E2000E4B20C481C4400F009FE002814BF0823CB
:109E30000023E4B2102107481C4400F0FFFD002875
:109E400014BF10230023E4B21C44034BE4B21C8073
:109E500010BD00BFA0AC0300EECB002007B5044B43
:109E60000093044A402303F035FA03B05DF804FB85
:109E7000D19E020059C6002010B5028943899A423A
:109E800010D2838802685C1C8480D1548188428906
:109E9000B1FBF2F302FB13138380038901330381C7
:109EA000012010BD0020FCE7022908B502D00329DB
:109EB00004D008BDBDE80840FFF79ABF00F0D2F912
:109EC0000248BDE8084000F06DBA00BFA0AC030036
:109ED00070B50E4E33780D464BB10D4E8C18A54221
:109EE00012D015F8011B3046FFF7C6FFF7E7D4B2D2
:109EF000224608480FF057F82246064906480DF05A
:109F0000B5F808B90123337070BD00BF58C60020F2
:109F10003CBD002059C6002010AC0300023808B533
:109F20000C280DD8DFE800F0070D0C0C0C0C1424E5
:109F3000300C0C0C11000DF03BFB154B01221A707C
:109F400008BDBDE80840FFF753BF0DF0E5FAF4E7A0
:109F50000EF0F0FA0028F3D10DF0DCFA0D4B0E49AB
:109F60001888000440F00300BDE8084003F0A4BCDA
:109F7000084B0A491888000440F0030003F09CFCD9
:109F8000BDE808400DF00ABBBDE808400DF0C6BAB8
:109F9000A6C4002054C1002097AD0300A2AD030069
:109FA00070470A4601460020FFF792BF70B50023B4
:109FB00090B00489D9B29CB1C18805684A1C92B29C
:109FC000C2806E5C45890DF80360B2FBF5F1013388
:109FD00005FB1122013C402BC2800481E9D11946C6
:109FE0006846FFF7DEFF10B070BD00002DE9F041BC
:109FF0000546032906D8DFE801F012071F021F4BB0
:10A0000000221A70BDE8F0811C4B1D4800221A7016
:10A010000389002BF6D0BDE8F041FFF7C7BF0DF074
:10A0200043F8184FDFF8648006460024B4420AD192
:10A0300028460DF03CF868B9012212491248BDE8E3
:10A04000F0410DF037B8E3B24046F95CFFF714FF7A
:10A050000134EBE7402828BF402002460446094966
:10A060000948084F094E0DF025F80025795D304666
:10A070000135FFF701FFAC42F8D1DDE758C60020FB
:10A080003CBD002018C6002010AC030030BD0020ED
:10A09000014B1889704700BF30BD002007B502ABE7
:10A0A000012103F8010D1846FFF77BFF03B05DF8AF
:10A0B00004FB000030B50A4B1A8972B1D8881C68BD
:10A0C0005D89411C89B2D980205CB1FBF5F4013A6D
:10A0D00005FB1411D9801A8130BD1046FCE700BF82
:10A0E00030BD002008B505F067FF08B103F064FD3E
:10A0F00016480DF07FF908B103F05EFD14480DF02D
:10A1000071FA08B103F058FD11480DF0DDFA08B1FD
:10A1100003F052FD0F480DF065FA08B103F04CFD55
:10A120000D480DF05FFA08B103F046FD0B480DF045
:10A1300059FA08B103F040FD09480DF053FA08B18F
:10A1400003F03AFD00F01EFD002008BD7CAD0300C9
:10A15000A0AC0300D4AC030068AC030030AC030037
:10A1600010AC030010B50DF0BFF9044608B103F0C0
:10A1700023FD204610BD000038B5144D144C0DF0E1
:10A18000BBFC18B9BDE8384000F01ABD2B78002B95
:10A19000F5D023680133642B2360F0DD00232B709E
:10A1A00023600EF0D1F950B101F044FD0028E6D152
:10A1B0000EF026FA18B9012001F054FDDFE701F096
:10A1C0002DFD0028DBD101F041FDD8E7A6C4002019
:10A1D000A8C4002010B50146054800F049F804461F
:10A1E0000EF0F0F908B10DF0EDF9E0B210BD00BFCE
:10A1F000A0AC03000146052201480CF0A9B900BF3C
:10A20000D4AC030037B504460322ADF8050001A91C
:10A2100008488DF804200CF09BF9074B07490546C8
:10A2200018880004224640F0030003F049FB28464A
:10A2300003B030BD68AC030054C1002088AD0300FA
:10A2400007B50423ADF8050003220DEB0301044814
:10A250008DF804300CF07CF903B05DF804FB00BF0E
:10A2600068AC0300014B00221A707047DACA002064
:10A270002DE9F04F074687B057F810AB454E04461E
:10A28000384688460BF021FE96F800B00AF11C0310
:10A29000082503604560BBF1000F16D03E4C3F48D7
:10A2A00023785A1C227000EBC3002A4641460EF068
:10A2B0007AFE23783A4A03F00F03237013780133B0
:10A2C0001370012007B0BDE8F08F2A4641460AF11D
:10A2D00014000EF068FE237A2268002B55D0A37A72
:10A2E00004F10901002B52D0E37A02F10808CB5C9B
:10A2F00000936FF00801404604F0E8FF23680193E3
:10A3000038460BF0E2FD019B814603F11C00C9E9D0
:10A3100000052368143319462A4601930EF034FED3
:10A32000019B70B31946D9F80420D9F800000EF04B
:10A330003AFE384624680BF0C8FD1C34C0E90045DD
:10A3400006A8CDE9034500F80DBDCDF814B003F023
:10A35000E3FE03A900980DF02FFA044618B9294628
:10A36000404604F09DFF9DF80B0003F0F9FE14F049
:10A37000FF0008D1DAF808301B0704D50123337039
:10A38000A0E70446F3E70023F9E75B78FFDE1B78DC
:10A39000FCE700BFDACA00205CCB0020DBCA00204B
:10A3A000D9CA002073B50E4D2B780646ABB10D4CC3
:10A3B0000D4923785A1C01EBC3012270684608221C
:10A3C0000EF0F1FD237803F00F0323702B7869461C
:10A3D000013B30462B70FFF74BFF002002B070BDF1
:10A3E000D9CA00205BCB0020DBCA002010B50B4689
:10A3F000044658B90A68096A0968497882F824103D
:10A4000018469A6A02219047204610BD0320FCE7B7
:10A41000F0B5BB4D0C7A2C700468B4F5F07F00F0F9
:10A4200062815FD840F2D716B44200F01E81B4F5C5
:10A43000EC7F26D2B4F5E87F00F0ED800BD8002C3D
:10A4400000F0CA8040F2CF16B44200F0D88000235A
:10A4500003601846D2E0B4F5EA7F00F0F980B4F565
:10A46000EB7FF4D100240AB106791655A54E366863
:10A470000134767806719C42C0F0F88040F2D71320
:10A48000BAE0B4F5ED7F00F0098114D8B4F5EC7FA3
:10A4900000F0F78040F2D916B442D8D100240AB1B6
:10A4A0000679165501344E7E06719C42C0F0F78045
:10A4B0004FF4ED73A0E0B4F5EF7F00F0FC8000F204
:10A4C000068140F2DB16B442C1D100240AB10679FC
:10A4D0001655013409269C420671C0F0ED804FF4F8
:10A4E000EF7389E040F2F916B44200F07181B4F5DF
:10A4F000FD7F3CD240F2E316B44200F01881B4F57F
:10A50000F27F14D240F2E116B44200F00381B4F5B8
:10A51000F17F9CD100240AB10679165501344E69A9
:10A5200006719C42C0F0048140F2E31364E040F203
:10A53000EF16B44200F02D81B4F5F87F00F03781BA
:10A54000B4F5F67F83D100240AB1067916556E4E14
:10A5500037780E6956F827606C4F36683E800134B4
:10A560009C420671C0F0168140F2EF1344E040F2C5
:10A57000FF16B44200F05281B4F5007F14D2B4F556
:10A58000FD7F00F03181B4F5FF7F7FF460AF0024E0
:10A590000AB106791655013403269C420671C0F0B3
:10A5A0003E8140F2FF1327E040F20126B44200F062
:10A5B0004D81B4F5007F40F23D8140F20226B44265
:10A5C0007FF445AF00240AB1067916554E4F3E7808
:10A5D000013601343E70C6E04D4E34704C4E377833
:10A5E0002E78B74202D340F2062305E00926A342A3
:10A5F000067105D840F2CF1303600120F0BD00249E
:10A600000AB106791655013404269C42067103D31B
:10A610004FF4E873F0E700240AB1067916553C4E72
:10A620000F7A3678DFF8DCC0B74204F1010440F25B
:10A630001A8101F1090706EB460607EB060E9C425C
:10A64000BE5DCCF800E0067103D34FF4EA73D3E7A4
:10A6500000240AB106791655013400269C42067181
:10A66000FFF401AF4FF4EB73C6E700240AB106799B
:10A670001655013403269C42067103D34FF4EC7344
:10A68000BAE700240AB10679165501340E7E067128
:10A690009C42FFF404AF40F2D913ADE700240AB1A5
:10A6A00006791655013400269C420671FFF40EAF60
:10A6B00040F2DB13A0E700240AB1067916550134F5
:10A6C00021269C42067103D340F2DF1394E7002455
:10A6D0000AB106791655013411269C42067103D33E
:10A6E0004FF4F07388E700240AB106791655013457
:10A6F00001269C4206710ED340F2E1137CE700BFB5
:10A7000066CB002068CB002067CB00205ECB00200A
:10A7100065CB002000240AB10679165501340026C5
:10A720009C420671FFF4F7AE4FF4F17364E7002426
:10A730000AB1067916554F4E4F6937704E4E0027B5
:10A74000013437704C4EDFF82CC137789CF800C0CC
:10A75000BC4513D8494F3F6897F801C0484F87F868
:10A7600000C000273770444E3778454E3678B742E0
:10A7700027D3444F3E7801363E702FE70E6956F8D6
:10A780002760A342367906713FF6DEAE4FF4F673CA
:10A7900032E700240AB1067916553B4E368801345B
:10A7A000360A9C42067103D34FF4F87324E7002461
:10A7B0000AB106791655304F3E78013601343E70A5
:10A7C000C0E707269C42067103D340F2F91313E752
:10A7D00000240AB106791655013405269C420671FB
:10A7E00003D34FF4FD7307E700240AB10679165529
:10A7F000224E244F36683F7896F801C0BC4504F1DC
:10A80000010435D996F802C03E449C4216F80C600B
:10A810000671FFF4BDAE4FF4FF73EDE600240AB1FC
:10A8200006791655013440269C42067103D34FF435
:10A830000073E1E600240AB10679165501340026BA
:10A840009C42067103D340F20123D5E600240AB1ED
:10A8500006791655013401269C420671FFF4B3AE09
:10A8600040F20223C8E60023CCF800301B78FFDE5C
:10A870000023FBE75DCB002067CB002068CB0020E6
:10A8800064CB002065CB00205ECB002030B5036A8E
:10A890001A680024147087B01A685B68054606A819
:10A8A0000132013B00F8154DCDE90434039203F069
:10A8B00033FC204603A90CF07FFF044630B9074B58
:10A8C00001A9CDE9013501F057FB04469DF80300CD
:10A8D00003F046FC204607B030BD00BFEDA30200E8
:10A8E0000A79012A0B4607D1C169D1E90012581C27
:10A8F000013A013101F052BB022A01D1016AF4E7A9
:10A900000620704710B404460B4654F8102B21461D
:10A9100008325DF8044B0BF0BDB92DE9FF47037A0F
:10A9200006680446002B4AD0837A00F10902002B06
:10A9300047D0C37A08366FF00801304604F1100999
:10A9400012F8038004F0C2FC484625680BF0BDFAFB
:10A95000074605F11C00082538607D60236803F177
:10A96000140A2A4651460EF00FFB30B37A68386855
:10A9700051460EF018FB484624680BF0A6FA1C342A
:10A98000C0E9004504A8002300F80D3DCDE90145CC
:10A99000039303F0C1FB01A940460CF00DFF0446F0
:10A9A00018B92946304604F07BFC9DF8030003F0FB
:10A9B000D7FB204604B0BDE8F0870446F9E75B7892
:10A9C000FFDE1B78FCE7FFF7A8BF0000F0B50468C6
:10A9D0009DF814603CB1B4F5067F4FF0000420D020
:10A9E000046020461CE00D6955F826502F68114D73
:10A9F0002F60114D2C60104D0E4F2D683F68BD42E9
:10AA000002D940F21B2309E00F6957F82670BF688E
:10AA1000A3427D5D057104D84FF4067303600120E5
:10AA2000F0BD0AB105791555034F3D680135013474
:10AA30003D60E0E76CCB002060CB0020036893F81A
:10AA40002430194214BF012000207047BFF34F8FFC
:10AA50000549064BCA6802F4E0621343CB60BFF3BA
:10AA60004F8F00BFFDE700BF00ED00E00400FA05D6
:10AA70000020704708B5FBF775FD002008BD07B53D
:10AA80004368012B11DD04230DEB0302012100F0CB
:10AA900013FB9DF804003038C0B2092801D8FFF735
:10AAA0009FF8002003B05DF804FBFFF783F8F8E798
:10AAB00007B54368012B11DD04230DEB03020121CF
:10AAC00000F0FAFA9DF804003038C0B2092801D825
:10AAD00001F03AF8002003B05DF804FB00F0ECFF51
:10AAE000F8E710B504460EF0C5FAC1B22046BDE83D
:10AAF0001040FFF756BA000070B50A4D0A4E002408
:10AB00006059FFF7EEFF0920FFF7C8FA2B190C3444
:10AB10009868FFF7E6FF3046FFF7E3FF542CEFD1CC
:10AB2000002070BD90AE03001EB40300F0B587B0E6
:10AB300002AD10224FF6FF7128460EF03FFA06A92B
:10AB4000082341F8143D2846FFF716F80B4E0C4F2A
:10AB50000024019B9C4202D3002007B0F0BD304688
:10AB6000FFF7BFFF15F814003030C0B2FFF796FAB8
:10AB70003846FFF7B6FF0134EBE700BFE4AE030051
:10AB80001EB4030013B500240094074B074A08497C
:10AB9000084800F07FF8084908482346072202B019
:10ABA000BDE8104000F000BAB5A0020091A002007C
:10ABB0009DA0020090CB002090AE0300ACCB002003
:10ABC000F7B5124C237823B93E20FFF767FA01232B
:10ABD00023700F4E0F4D32680F4805F12007BB1A46
:10ABE000294600F065F8B84230600CD101AA294628
:10ABF0000A4800F0DEF92022002128460EF0DEF996
:10AC000000233560237003B0F0BD00BFB8CB002037
:10AC100048BD002070CB002090CB0020ACCB0020A2
:10AC200070B58D1806462C46601B14F8013B03B91D
:10AC300070BD326818469047F6E710B504460368C1
:10AC40000D20984723680A20BDE81040184770B5CA
:10AC500005460E460024B44200DB70BD2B681B2065
:10AC600098472B685B2098472B684420984701340D
:10AC7000F1E770B505460E4600242B681B20984767
:10AC80002B685B20984701342B6843209847B442D7
:10AC9000F3D170BDF8B504461D460F46164600F0C8
:10ACA00029F9069B6561C4E90376A361F8BD00003C
:10ACB0002DE9F74FDFF838828C4E009204460F469C
:10ACC0009946154623699847002858D063699847E4
:10ACD00001468246204600F017F9A269834602B178
:10ACE0009047BBF10A0F00F0D68059D8BBF1060F90
:10ACF00000F0B88049D8BBF1020F5DD0BBF1030F63
:10AD000000F0C980BBF1010FDCD13368D8F8002016
:10AD1000D21A511C1A440B443A4401333B441046A6
:10AD2000A2EB000C614500F39880A34650465BF807
:10AD30000C2F9047D8F80010326885F800A0013138
:10AD400001326B1CC8F80010584639463260019336
:10AD5000FFF766FF01465846FFF779FFD8F8001065
:10AD600009F1FF328A420EDC5846FFF766FF5F4A60
:10AD7000002313605E4A1360009B4B441D46284627
:10AD800003B0BDE8F08F019D9CE7BBF1080F48D0F0
:10AD900079D83168002995DD00236D1A336048E0C9
:10ADA000BBF1100F5ED034D8BBF10C0F00F08F80D8
:10ADB00049D3BBF10E0F85D13168002982DDD8F867
:10ADC000003001F1FF3CA3EB010E0CF1FF323944DE
:10ADD0003A440846A0EB010AD64557DA04F10C0ABA
:10ADE000013B01215046C6F800C0C8F80030FFF70B
:10ADF0002EFF3268013D39465046FFF711FFE368E8
:10AE0000019020209847019950460131FFF71FFF1C
:10AE100058E7BBF1300F5AD00ED8BBF12F0F7FF49B
:10AE200051AF3368002B7FF74DAF013B013D3360DD
:10AE3000012104F10C00E9E7BBF1310FA9D0BBF10E
:10AE4000320F7FF43FAF3168D8F800309942BFF637
:10AE500039AF591A0D44336043E010F801C903F8C3
:10AE600001CD5DE704F10C007FE703F8011BDA1B5D
:10AE70009145FADCE3685E20984754F80C3F432084
:10AE80009847204671E73B460021F0E710F801ABF8
:10AE900002F801AF9EE7D8F80030002B7FF712AF21
:10AEA0003268511C3944501EA3EB020A38448C46C8
:10AEB000ACEB010EF24505DA013BC8F8003004F1B5
:10AEC0000C0A98E71CF801EB00F801EFF0E7336893
:10AED000D8F800209342BFF6F5AE01330135336058
:10AEE000012104F10C00FFF7C4FEEBE6C0CB00200B
:10AEF000BCCB0020C31C00F10B01002203F8012F82
:10AF00008B42FBD1026070472DE9F0430368254F67
:10AF10005D1C034405601971031D002403EB050E3D
:10AF2000E25907EB040C1646A6EB020816F8019B43
:10AF3000B9F1000FF8D145451E462CD176450BD10D
:10AF4000002240F8032B073300F8012F9842FBD171
:10AF50009CF80400BDE8F08312F8019B16F8018B01
:10AF6000C145EBD00834B4F5027FD9D1002240F8B6
:10AF7000032B073300F8012F8342FBD1A1F12000FE
:10AF80005E288CBF00200120E4E712F8018B16F840
:10AF900001CBE045E6D1A6EB030C6545F5DC0020CE
:10AFA000D8E700BFECAE0300C0E9001283600020C8
:10AFB00070472DE9F041B6B0074600240AA8904634
:10AFC000019400F029F801A90AA800F067F8019B94
:10AFD000FBB13E687B68A34202DC6FF0010511E023
:10AFE000202302AA00210AA800F066F8316802A80E
:10AFF00000F07FF8054648B97368B9680AA8984711
:10B00000C8F80000284636B0BDE8F0810C3601349F
:10B01000E0E74FF0FF35F5E700F10802F0B5013940
:10B02000144611F8013FA3B91B4F237043604168D8
:10B0300010292FDC1446254615F8013BA3F109021F
:10B04000D2B2172A08D827FA02F2D30705D52C4620
:10B05000F1E704F8013BE4E7BBB100EBC10623468E
:10B06000B462A3EB040C1A4613F8015BA5F1090EB8
:10B07000BEF1010F04D90D2D02D015F0DF0FF0D174
:10B080000131C6F82CC04160D1E749F2C0720260BC
:10B090001846F0BD0320FCE713008000026849F267
:10B0A000C0739A4204BF42680A604FF000031ABF9F
:10B0B00001200B601846704730B5002414704568B5
:10B0C0008D4214DD00EBC100013B856AC16AA142DB
:10B0D00002DC0020107004E0A34203DC00231370A4
:10B0E000042030BD295D02F8011B0134EEE7022087
:10B0F000F7E7421E013912F8013F11F8010F0BB9B1
:10B1000010B970478342F6D0984294BF01204FF0A7
:10B11000FF30704774DF704776DF704778DF704725
:10B120007ADF70477CDF70478FDF7047704702F02F
:10B1300043BD000008B5FEF73DFEFEF747FE1E21A9
:10B140004FF6FE72B0FBF1F10948C9B209F053F9AC
:10B15000132807D8074BC340DB0707D4BDE80840D6
:10B1600002F02ABD43F201439842F7D108BD00BF67
:10B17000B0CC002001810A001FB50B78052B1BD035
:10B18000062B1FD0042B1AD18B79022B17D1CB7928
:10B19000ABB90DF10F0201920C4A0D4812880092D2
:10B1A000194601220AF07BFA08B102F005FD094BAD
:10B1B0009DF80F201A8002E0074B01221A7005B09B
:10B1C0005DF804FB044B0022F8E700BF52BD0020ED
:10B1D00054BD0020EECB002020CD002010B5044649
:10B1E0008CB0808806F0C8FD0128238809D0262B62
:10B1F00005D1212B13D8102B1AD0112B44D00CB011
:10B2000010BD212BF6D10CA9002321F82C3DA088DC
:10B21000FFF78AFF0028F2D002F0CEFCEFE73B2BCD
:10B2200001D0562BEBD11321A088FFF775FFF1E772
:10B230001D4BA1881D48198007F0DAFC08B102F007
:10B24000BBFC2C22002101A80DF0B8FE0123002236
:10B250008DF805308DF806308DF80720CDE90322F2
:10B260008DF80830282140F6B8328DF809304FF4B7
:10B27000486044F25063CDE90512CDE9070301A906
:10B280000B4806F0C5FCBAE70A4B0B4918880004C6
:10B2900040F0030002F010FB034B4FF6FF721A80E0
:10B2A000064B00221A80AAE752BD002024CD0020C0
:10B2B000F8CB002054C100209CB20300EECB00204C
:10B2C00000B5B3B008280ED8DFE800F02905101546
:10B2D0001A1F242C46002A4B2A491888000440F0E3
:10B2E000030002F0E9FA33B05DF804FB244B264971
:10B2F00018880004F3E7224B244918880004EEE77D
:10B300001F4B234918880004E9E71D4B2149188881
:10B310000004E4E71A4B204918880004DFE7FEF731
:10B3200079FCE0E732AB0822029243F8BC2D02A977
:10B3300012AA04A808F054FA08B102F03DFC039BDD
:10B340000093029A154812AB04A906F04EFC00289F
:10B35000C9D002F031FCC6E7114B18884FF6FF73D5
:10B360009842C0D012A908F09FFA0528BBD008B1B6
:10B3700002F022FC0DF15901084806F027FCE6E72F
:10B3800054C10020F0B20300FAB2030010B303006E
:10B3900022B3030034B3030055B30300F8CB0020FD
:10B3A00022CD00201FB50E4BADF80E101B884FF6B6
:10B3B000FF72934210D0009301460DF10E0302225A
:10B3C00008480AF074F838B1074B08491888000497
:10B3D00040F0010002F070FA05B05DF804FB00BF18
:10B3E00052BD002054BD002054C10020A9B203006A
:10B3F00002F0E2BB02F0E0BB02F0DEBB10B5154C80
:10B40000154810224FF6FF710DF0D8FD0823214694
:10B4100011482360FEF7B0FB21680F4808F0D6F909
:10B4200008B102F0C9FB21680B4808F0F1F90628C1
:10B4300002D008B102F0C0FB002004F0B3FA40B91A
:10B440000321064806F05FFA18B1BDE8104002F08B
:10B45000B3BB10BD30CD002034CD0020F8CB002090
:10B4600037B50378023B04460B2B13D8DFE803F013
:10B47000061214121C56275412562456284BA28822
:10B4800018882849000440F0030002F019FA264BFE
:10B49000A2881A8003B030BD02A9002301F8043D40
:10B4A000408808F08FF9F5E703F00EFD30F008034F
:10B4B000F0D002F081FBEDE7FFF7A0FFEAE7037CA5
:10B4C000DB07E7D5037A072BE4D1154D1749288808
:10B4D000174C000440F0030002F0EEF928882268BF
:10B4E000144900040823013240F0030002F0F2F98D
:10B4F0002368072BCED8104D0B4A591C12882160A7
:10B50000284625F8132008F083F92168284608F01A
:10B510005DF90028BED0CCE70069FAE78068F8E75B
:10B5200054C1002076B3030022CD00208EB3030067
:10B5300030CD0020C2B3030034CD002008B50B4B42
:10B5400093F85400FFF7E6FD094B18884FF6FF7398
:10B55000984209D01321FFF7DFFD30F0080303D034
:10B56000BDE8084002F028BB08BD00BFF8CB0020B2
:10B5700052BD002010B5044602F038FD08B102F0BB
:10B580001BFB094A0948012102F060FD08B102F0E5
:10B5900013FB22460121064802F058FD18B1BDE810
:10B5A000104002F009BB10BD35B10200E8B2030043
:10B5B000ECB203001FB504AC11231A4804F80C3D8B
:10B5C0000DF058FD174982B22046FFF7ABFD08B1D8
:10B5D00002F0F2FA4FF47070FFF7A0FD08B102F02C
:10B5E000EBFA08220DEB020000210DF0E7FC0E4AF9
:10B5F0000E4B02A8CDE90223FFF792FD08B102F03D
:10B60000DBFA0B490B4801F06BFD08B102F0D4FAEC
:10B6100040F66711074801F07BFD08B102F0CCFA53
:10B6200004B010BDDEB20300180040003200400339
:10B630002DB10200E4CC00202DE9F041384C394E08
:10B6400092B02822002120460DF0B8FC08220021EB
:10B6500030460DF0B3FC08234FF4817223806281E1
:10B6600040F20113022240F203116380228242F26F
:10B670002113618222834FF48271228440F20512E9
:10B6800021250127A3804FF00508A381A3826183B0
:10B69000A3836284A384482240F2012300216846E8
:10B6A0007380A571A4F80880A573A575A57784F8A3
:10B6B000265037807571B5710DF080FCE5221A4B6C
:10B6C000ADF82420194A00930892194B194A0193A6
:10B6D0000C920023184A8DF8183007938DF83630F5
:10B6E0000E934FF02133CDE90F236946A3F50453A0
:10B6F00012488DF808708DF809708DF80A8003944F
:10B700008DF810700596ADF82C50ADF834501193AB
:10B7100009F0CCFB08B102F04FFA12B0BDE8F0819D
:10B72000C6CB002064CD002079B10200B7B1030080
:10B730002FB10200010100032121002154BD00208E
:10B7400010B592B012AC234B44F8403D224821463C
:10B7500007F03CFA08B102F02FFA02238DF800300E
:10B7600043F69253ADF8023048F64223ADF8043068
:10B770004022012300212046ADF806300DF01EFCCA
:10B780002046164906F0C3FB21232046CDF840D0C1
:10B79000ADF8443008F0F6FE08B102F00DFA1422BC
:10B7A000002120460DF00AFC0023029304930C4B69
:10B7B00005930122212321460A488DF80C208DF89B
:10B7C000183008F03EFD08B102F0F6F9FFF734FF3B
:10B7D00012B010BDF9B3020024CD0020EFB3030076
:10B7E00064212100B0CC002000B589B01C220021CA
:10B7F00001A80DF0E3FB00234FF42032CDE9013224
:10B800004FF470220392ADF8123003228DF81430F9
:10B81000069301A8054B8DF81020079301F0DEFB7D
:10B8200008B102F0C9F909B05DF804FBF1B30200F8
:10B8300008B500224FF48031044802F019FC18B119
:10B84000BDE8084002F0B8B908BD00BFC4CC002074
:10B8500013B509F0CBFF08B102F0AEF902AC00233A
:10B8600044F8043D0120214601F0A4F908B102F09A
:10B87000A3F9204601F066FA08B102F09DF902B082
:10B8800010BD000007B507F049FF08B102F094F9B8
:10B890000522002168460DF091FB9DF8003043F031
:10B8A0000103032203F0F10362F306136FF3C713DE
:10B8B0008DF8003007238DF8013010238DF8023009
:10B8C0009DF8033013438DF803309DF8043068462B
:10B8D00013438DF8043007F06BFF08B102F06CF9E8
:10B8E000044807F04DFF08B102F066F903B05DF8B7
:10B8F00004FB00BF61B4020000B5ADB0AC22002172
:10B9000001A80DF05BFB022306228DF804308DF8B0
:10B9100007200123174A8DF806304FF44860ADF830
:10B92000143006928DF87D3000228DF87E308DF82F
:10B9300080308DF8813044F250632821CDE9250311
:10B940008DF87F200C4B2A93CDE9212240F6B832A6
:10B95000CDE92312094B0A482B9301A905F069FF91
:10B9600008B102F029F90121054805F05FFF2DB06B
:10B970005DF804FB4EBD0020C1B20200F5B3020029
:10B98000F8CB0020014B1878704700BFEECB0020A9
:10B9900013B5144B1B884FF6FF72934204461FD019
:10B9A000114A117889B90093082203460F4809F01B
:10B9B0007EFD80B10E4B0F491888000440F0010055
:10B9C00002B0BDE8104001F077BF024608210748E9
:10B9D00009F0CAFDEDE7084A236813606368536005
:10B9E00002B010BD52BD002020CD002054BD00206B
:10B9F00054C10020BCB20300F0CB00201FB5154B92
:10BA00001C884FF6FF739C4222D0134B1B7893B9CE
:10BA10000346009405220121104809F048FDB8B101
:10BA20000F4B10491888000440F0010004B0BDE835
:10BA3000104001F041BF90F9023090F901200178E7
:10BA400002940020CDE90000044809F0CDFDE6E7AE
:10BA500004B010BD52BD002020CD002054BD0020F8
:10BA600054C10020CBB2030001460220FFF79ABC6C
:10BA700001460320FFF796BC70470000C2B22DE9D3
:10BA800000484FEAC23B4FEA524C1BF5FA704FF4A4
:10BA90007A724CF1000100230DF044FF00220146B0
:10BAA000044802F0E5FA18B1BDE8004802F084B895
:10BAB000BDE8008844CD002010B5214C8CB094F82E
:10BAC0005400FFF727FB2C22002101A80DF076FA85
:10BAD00000238DF805308DF806308DF807300123EE
